{
  "_format": "hh-sol-artifact-1",
  "contractName": "GrantNFT",
  "sourceName": "contracts/GrantNFT.sol",
  "abi": [
    {
      "inputs": [],
      "stateMutability": "nonpayable",
      "type": "constructor"
    },
    {
      "inputs": [
        {
          "internalType": "address",
          "name": "sender",
          "type": "address"
        },
        {
          "internalType": "uint256",
          "name": "tokenId",
          "type": "uint256"
        },
        {
          "internalType": "address",
          "name": "owner",
          "type": "address"
        }
      ],
      "name": "ERC721IncorrectOwner",
      "type": "error"
    },
    {
      "inputs": [
        {
          "internalType": "address",
          "name": "operator",
          "type": "address"
        },
        {
          "internalType": "uint256",
          "name": "tokenId",
          "type": "uint256"
        }
      ],
      "name": "ERC721InsufficientApproval",
      "type": "error"
    },
    {
      "inputs": [
        {
          "internalType": "address",
          "name": "approver",
          "type": "address"
        }
      ],
      "name": "ERC721InvalidApprover",
      "type": "error"
    },
    {
      "inputs": [
        {
          "internalType": "address",
          "name": "operator",
          "type": "address"
        }
      ],
      "name": "ERC721InvalidOperator",
      "type": "error"
    },
    {
      "inputs": [
        {
          "internalType": "address",
          "name": "owner",
          "type": "address"
        }
      ],
      "name": "ERC721InvalidOwner",
      "type": "error"
    },
    {
      "inputs": [
        {
          "internalType": "address",
          "name": "receiver",
          "type": "address"
        }
      ],
      "name": "ERC721InvalidReceiver",
      "type": "error"
    },
    {
      "inputs": [
        {
          "internalType": "address",
          "name": "sender",
          "type": "address"
        }
      ],
      "name": "ERC721InvalidSender",
      "type": "error"
    },
    {
      "inputs": [
        {
          "internalType": "uint256",
          "name": "tokenId",
          "type": "uint256"
        }
      ],
      "name": "ERC721NonexistentToken",
      "type": "error"
    },
    {
      "inputs": [
        {
          "internalType": "address",
          "name": "owner",
          "type": "address"
        }
      ],
      "name": "OwnableInvalidOwner",
      "type": "error"
    },
    {
      "inputs": [
        {
          "internalType": "address",
          "name": "account",
          "type": "address"
        }
      ],
      "name": "OwnableUnauthorizedAccount",
      "type": "error"
    },
    {
      "inputs": [],
      "name": "ReentrancyGuardReentrantCall",
      "type": "error"
    },
    {
      "anonymous": false,
      "inputs": [
        {
          "indexed": true,
          "internalType": "address",
          "name": "adminAddress",
          "type": "address"
        }
      ],
      "name": "AdminAddressSet",
      "type": "event"
    },
    {
      "anonymous": false,
      "inputs": [
        {
          "indexed": true,
          "internalType": "address",
          "name": "owner",
          "type": "address"
        },
        {
          "indexed": true,
          "internalType": "address",
          "name": "approved",
          "type": "address"
        },
        {
          "indexed": true,
          "internalType": "uint256",
          "name": "tokenId",
          "type": "uint256"
        }
      ],
      "name": "Approval",
      "type": "event"
    },
    {
      "anonymous": false,
      "inputs": [
        {
          "indexed": true,
          "internalType": "address",
          "name": "owner",
          "type": "address"
        },
        {
          "indexed": true,
          "internalType": "address",
          "name": "operator",
          "type": "address"
        },
        {
          "indexed": false,
          "internalType": "bool",
          "name": "approved",
          "type": "bool"
        }
      ],
      "name": "ApprovalForAll",
      "type": "event"
    },
    {
      "anonymous": false,
      "inputs": [
        {
          "indexed": false,
          "internalType": "uint256",
          "name": "_fromTokenId",
          "type": "uint256"
        },
        {
          "indexed": false,
          "internalType": "uint256",
          "name": "_toTokenId",
          "type": "uint256"
        }
      ],
      "name": "BatchMetadataUpdate",
      "type": "event"
    },
    {
      "anonymous": false,
      "inputs": [
        {
          "indexed": true,
          "internalType": "uint256",
          "name": "tokenId",
          "type": "uint256"
        },
        {
          "indexed": true,
          "internalType": "address",
          "name": "owner",
          "type": "address"
        }
      ],
      "name": "GrantBurned",
      "type": "event"
    },
    {
      "anonymous": false,
      "inputs": [
        {
          "indexed": true,
          "internalType": "uint256",
          "name": "tokenId",
          "type": "uint256"
        },
        {
          "indexed": true,
          "internalType": "address",
          "name": "owner",
          "type": "address"
        },
        {
          "indexed": false,
          "internalType": "uint256",
          "name": "allowance",
          "type": "uint256"
        }
      ],
      "name": "GrantMinted",
      "type": "event"
    },
    {
      "anonymous": false,
      "inputs": [
        {
          "indexed": true,
          "internalType": "address",
          "name": "marketplaceAddress",
          "type": "address"
        }
      ],
      "name": "MarketplaceAddressSet",
      "type": "event"
    },
    {
      "anonymous": false,
      "inputs": [
        {
          "indexed": false,
          "internalType": "uint256",
          "name": "_tokenId",
          "type": "uint256"
        }
      ],
      "name": "MetadataUpdate",
      "type": "event"
    },
    {
      "anonymous": false,
      "inputs": [
        {
          "indexed": true,
          "internalType": "address",
          "name": "previousOwner",
          "type": "address"
        },
        {
          "indexed": true,
          "internalType": "address",
          "name": "newOwner",
          "type": "address"
        }
      ],
      "name": "OwnershipTransferred",
      "type": "event"
    },
    {
      "anonymous": false,
      "inputs": [
        {
          "indexed": true,
          "internalType": "address",
          "name": "from",
          "type": "address"
        },
        {
          "indexed": true,
          "internalType": "address",
          "name": "to",
          "type": "address"
        },
        {
          "indexed": true,
          "internalType": "uint256",
          "name": "tokenId",
          "type": "uint256"
        }
      ],
      "name": "Transfer",
      "type": "event"
    },
    {
      "anonymous": false,
      "inputs": [
        {
          "indexed": true,
          "internalType": "address",
          "name": "owner",
          "type": "address"
        },
        {
          "indexed": false,
          "internalType": "uint256",
          "name": "amount",
          "type": "uint256"
        }
      ],
      "name": "Withdrawn",
      "type": "event"
    },
    {
      "inputs": [],
      "name": "TIER_1_ALLOWANCE",
      "outputs": [
        {
          "internalType": "uint256",
          "name": "",
          "type": "uint256"
        }
      ],
      "stateMutability": "view",
      "type": "function"
    },
    {
      "inputs": [],
      "name": "TIER_1_PRICE",
      "outputs": [
        {
          "internalType": "uint256",
          "name": "",
          "type": "uint256"
        }
      ],
      "stateMutability": "view",
      "type": "function"
    },
    {
      "inputs": [],
      "name": "TIER_1_URI",
      "outputs": [
        {
          "internalType": "string",
          "name": "",
          "type": "string"
        }
      ],
      "stateMutability": "view",
      "type": "function"
    },
    {
      "inputs": [],
      "name": "TIER_2_ALLOWANCE",
      "outputs": [
        {
          "internalType": "uint256",
          "name": "",
          "type": "uint256"
        }
      ],
      "stateMutability": "view",
      "type": "function"
    },
    {
      "inputs": [],
      "name": "TIER_2_PRICE",
      "outputs": [
        {
          "internalType": "uint256",
          "name": "",
          "type": "uint256"
        }
      ],
      "stateMutability": "view",
      "type": "function"
    },
    {
      "inputs": [],
      "name": "TIER_2_URI",
      "outputs": [
        {
          "internalType": "string",
          "name": "",
          "type": "string"
        }
      ],
      "stateMutability": "view",
      "type": "function"
    },
    {
      "inputs": [],
      "name": "TIER_3_ALLOWANCE",
      "outputs": [
        {
          "internalType": "uint256",
          "name": "",
          "type": "uint256"
        }
      ],
      "stateMutability": "view",
      "type": "function"
    },
    {
      "inputs": [],
      "name": "TIER_3_PRICE",
      "outputs": [
        {
          "internalType": "uint256",
          "name": "",
          "type": "uint256"
        }
      ],
      "stateMutability": "view",
      "type": "function"
    },
    {
      "inputs": [],
      "name": "TIER_3_URI",
      "outputs": [
        {
          "internalType": "string",
          "name": "",
          "type": "string"
        }
      ],
      "stateMutability": "view",
      "type": "function"
    },
    {
      "inputs": [],
      "name": "adminAddress",
      "outputs": [
        {
          "internalType": "address",
          "name": "",
          "type": "address"
        }
      ],
      "stateMutability": "view",
      "type": "function"
    },
    {
      "inputs": [
        {
          "internalType": "address",
          "name": "to",
          "type": "address"
        },
        {
          "internalType": "uint256",
          "name": "tokenId",
          "type": "uint256"
        }
      ],
      "name": "approve",
      "outputs": [],
      "stateMutability": "nonpayable",
      "type": "function"
    },
    {
      "inputs": [
        {
          "internalType": "address",
          "name": "owner",
          "type": "address"
        }
      ],
      "name": "balanceOf",
      "outputs": [
        {
          "internalType": "uint256",
          "name": "",
          "type": "uint256"
        }
      ],
      "stateMutability": "view",
      "type": "function"
    },
    {
      "inputs": [
        {
          "internalType": "address",
          "name": "user",
          "type": "address"
        }
      ],
      "name": "decrementAllowanceAndBurnIfExhausted",
      "outputs": [],
      "stateMutability": "nonpayable",
      "type": "function"
    },
    {
      "inputs": [
        {
          "internalType": "address",
          "name": "user",
          "type": "address"
        }
      ],
      "name": "getAllowance",
      "outputs": [
        {
          "internalType": "uint256",
          "name": "",
          "type": "uint256"
        }
      ],
      "stateMutability": "view",
      "type": "function"
    },
    {
      "inputs": [
        {
          "internalType": "uint256",
          "name": "tokenId",
          "type": "uint256"
        }
      ],
      "name": "getApproved",
      "outputs": [
        {
          "internalType": "address",
          "name": "",
          "type": "address"
        }
      ],
      "stateMutability": "view",
      "type": "function"
    },
    {
      "inputs": [
        {
          "internalType": "uint8",
          "name": "tier",
          "type": "uint8"
        }
      ],
      "name": "getTokenURIForTier",
      "outputs": [
        {
          "internalType": "string",
          "name": "",
          "type": "string"
        }
      ],
      "stateMutability": "pure",
      "type": "function"
    },
    {
      "inputs": [
        {
          "internalType": "uint256",
          "name": "",
          "type": "uint256"
        }
      ],
      "name": "grantToAllowance",
      "outputs": [
        {
          "internalType": "uint256",
          "name": "",
          "type": "uint256"
        }
      ],
      "stateMutability": "view",
      "type": "function"
    },
    {
      "inputs": [
        {
          "internalType": "address",
          "name": "owner",
          "type": "address"
        },
        {
          "internalType": "address",
          "name": "operator",
          "type": "address"
        }
      ],
      "name": "isApprovedForAll",
      "outputs": [
        {
          "internalType": "bool",
          "name": "",
          "type": "bool"
        }
      ],
      "stateMutability": "view",
      "type": "function"
    },
    {
      "inputs": [],
      "name": "marketplaceAddress",
      "outputs": [
        {
          "internalType": "address",
          "name": "",
          "type": "address"
        }
      ],
      "stateMutability": "view",
      "type": "function"
    },
    {
      "inputs": [],
      "name": "name",
      "outputs": [
        {
          "internalType": "string",
          "name": "",
          "type": "string"
        }
      ],
      "stateMutability": "view",
      "type": "function"
    },
    {
      "inputs": [],
      "name": "nftMarketplace",
      "outputs": [
        {
          "internalType": "address",
          "name": "",
          "type": "address"
        }
      ],
      "stateMutability": "view",
      "type": "function"
    },
    {
      "inputs": [],
      "name": "owner",
      "outputs": [
        {
          "internalType": "address",
          "name": "",
          "type": "address"
        }
      ],
      "stateMutability": "view",
      "type": "function"
    },
    {
      "inputs": [
        {
          "internalType": "uint256",
          "name": "tokenId",
          "type": "uint256"
        }
      ],
      "name": "ownerOf",
      "outputs": [
        {
          "internalType": "address",
          "name": "",
          "type": "address"
        }
      ],
      "stateMutability": "view",
      "type": "function"
    },
    {
      "inputs": [
        {
          "internalType": "uint8",
          "name": "tier",
          "type": "uint8"
        }
      ],
      "name": "purchaseGrantNFT",
      "outputs": [],
      "stateMutability": "payable",
      "type": "function"
    },
    {
      "inputs": [],
      "name": "renounceOwnership",
      "outputs": [],
      "stateMutability": "nonpayable",
      "type": "function"
    },
    {
      "inputs": [
        {
          "internalType": "address",
          "name": "from",
          "type": "address"
        },
        {
          "internalType": "address",
          "name": "to",
          "type": "address"
        },
        {
          "internalType": "uint256",
          "name": "tokenId",
          "type": "uint256"
        }
      ],
      "name": "safeTransferFrom",
      "outputs": [],
      "stateMutability": "nonpayable",
      "type": "function"
    },
    {
      "inputs": [
        {
          "internalType": "address",
          "name": "from",
          "type": "address"
        },
        {
          "internalType": "address",
          "name": "to",
          "type": "address"
        },
        {
          "internalType": "uint256",
          "name": "tokenId",
          "type": "uint256"
        },
        {
          "internalType": "bytes",
          "name": "data",
          "type": "bytes"
        }
      ],
      "name": "safeTransferFrom",
      "outputs": [],
      "stateMutability": "nonpayable",
      "type": "function"
    },
    {
      "inputs": [
        {
          "internalType": "address",
          "name": "_adminAddress",
          "type": "address"
        }
      ],
      "name": "setAdminAddress",
      "outputs": [],
      "stateMutability": "nonpayable",
      "type": "function"
    },
    {
      "inputs": [
        {
          "internalType": "address",
          "name": "operator",
          "type": "address"
        },
        {
          "internalType": "bool",
          "name": "approved",
          "type": "bool"
        }
      ],
      "name": "setApprovalForAll",
      "outputs": [],
      "stateMutability": "nonpayable",
      "type": "function"
    },
    {
      "inputs": [
        {
          "internalType": "address",
          "name": "_nftMarketplace",
          "type": "address"
        }
      ],
      "name": "setMarketplaceAddress",
      "outputs": [],
      "stateMutability": "nonpayable",
      "type": "function"
    },
    {
      "inputs": [
        {
          "internalType": "bytes4",
          "name": "interfaceId",
          "type": "bytes4"
        }
      ],
      "name": "supportsInterface",
      "outputs": [
        {
          "internalType": "bool",
          "name": "",
          "type": "bool"
        }
      ],
      "stateMutability": "view",
      "type": "function"
    },
    {
      "inputs": [],
      "name": "symbol",
      "outputs": [
        {
          "internalType": "string",
          "name": "",
          "type": "string"
        }
      ],
      "stateMutability": "view",
      "type": "function"
    },
    {
      "inputs": [
        {
          "internalType": "uint256",
          "name": "tokenId",
          "type": "uint256"
        }
      ],
      "name": "tokenURI",
      "outputs": [
        {
          "internalType": "string",
          "name": "",
          "type": "string"
        }
      ],
      "stateMutability": "view",
      "type": "function"
    },
    {
      "inputs": [
        {
          "internalType": "address",
          "name": "from",
          "type": "address"
        },
        {
          "internalType": "address",
          "name": "to",
          "type": "address"
        },
        {
          "internalType": "uint256",
          "name": "tokenId",
          "type": "uint256"
        }
      ],
      "name": "transferFrom",
      "outputs": [],
      "stateMutability": "nonpayable",
      "type": "function"
    },
    {
      "inputs": [
        {
          "internalType": "address",
          "name": "newOwner",
          "type": "address"
        }
      ],
      "name": "transferOwnership",
      "outputs": [],
      "stateMutability": "nonpayable",
      "type": "function"
    },
    {
      "inputs": [],
      "name": "withdraw",
      "outputs": [],
      "stateMutability": "nonpayable",
      "type": "function"
    }
  ],
  "bytecode": "0x608060405234801561001057600080fd5b50336040518060400160405280600881526020016711dc985b9d13919560c21b8152506040518060400160405280600381526020016211d39560ea1b815250816000908161005e91906101a1565b50600161006b82826101a1565b5050506001600160a01b03811661009c57604051631e4fbdf760e01b81526000600482015260240160405180910390fd5b6100a5816100b0565b50600160085561025f565b600780546001600160a01b038381166001600160a01b0319831681179093556040519116919082907f8be0079c531659141344cd1fd0a4f28419497f9722a3daafe3b4186f6b6457e090600090a35050565b634e487b7160e01b600052604160045260246000fd5b600181811c9082168061012c57607f821691505b60208210810361014c57634e487b7160e01b600052602260045260246000fd5b50919050565b601f82111561019c57806000526020600020601f840160051c810160208510156101795750805b601f840160051c820191505b818110156101995760008155600101610185565b50505b505050565b81516001600160401b038111156101ba576101ba610102565b6101ce816101c88454610118565b84610152565b6020601f82116001811461020257600083156101ea5750848201515b600019600385901b1c1916600184901b178455610199565b600084815260208120601f198516915b828110156102325787850151825560209485019460019092019101610212565b50848210156102505786840151600019600387901b60f8161c191681555b50505050600190811b01905550565b6123388061026e6000396000f3fe60806040526004361061020f5760003560e01c806370a0823111610118578063b47cc556116100a0578063daa17f491161006f578063daa17f49146105b9578063e985e9c5146105d9578063eb5a662e146105f9578063f2fde38b14610619578063fc6f94681461063957600080fd5b8063b47cc55614610544578063b88d4fde14610564578063c87b56dd14610584578063d2e07313146105a457600080fd5b806395d89b41116100e757806395d89b41146104ba57806397a3ba50146104cf578063a0f59271146104fc578063a22cb4651461050f578063ad4c66591461052f57600080fd5b806370a0823114610452578063715018a614610472578063888e5d4c146104875780638da5cb5b1461049c57600080fd5b80632c1e816d1161019b5780634608eb771161016a5780634608eb77146103cf5780634bc0b116146103e857806351ef182d146103fd5780636352211e1461041d578063675f4f021461043d57600080fd5b80632c1e816d1461035a5780633ccfd60b1461037a5780633ff2a3e81461038f57806342842e0e146103af57600080fd5b8063095ea7b3116101e2578063095ea7b3146102c35780630e79e406146102e557806310005d6614610308578063179fc1641461032157806323b872dd1461033a57600080fd5b806301ffc9a714610214578063046db5ca1461024957806306fdde0314610276578063081812fc1461028b575b600080fd5b34801561022057600080fd5b5061023461022f366004611c6e565b610659565b60405190151581526020015b60405180910390f35b34801561025557600080fd5b50610269610264366004611c8b565b610684565b6040516102409190611cfe565b34801561028257600080fd5b50610269610749565b34801561029757600080fd5b506102ab6102a6366004611d11565b6107db565b6040516001600160a01b039091168152602001610240565b3480156102cf57600080fd5b506102e36102de366004611d41565b610804565b005b3480156102f157600080fd5b506102fa600181565b604051908152602001610240565b34801561031457600080fd5b506102fa64d18c2e280081565b34801561032d57600080fd5b506102fa64a2fb40580081565b34801561034657600080fd5b506102e3610355366004611d6b565b610813565b34801561036657600080fd5b506102e3610375366004611da8565b61089e565b34801561038657600080fd5b506102e361093e565b34801561039b57600080fd5b506102e36103aa366004611da8565b610a97565b3480156103bb57600080fd5b506102e36103ca366004611d6b565b610d67565b3480156103db57600080fd5b506102fa64746a52880081565b3480156103f457600080fd5b50610269610d87565b34801561040957600080fd5b50600e546102ab906001600160a01b031681565b34801561042957600080fd5b506102ab610438366004611d11565b610da3565b34801561044957600080fd5b50610269610dae565b34801561045e57600080fd5b506102fa61046d366004611da8565b610dca565b34801561047e57600080fd5b506102e3610e12565b34801561049357600080fd5b50610269610e24565b3480156104a857600080fd5b506007546001600160a01b03166102ab565b3480156104c657600080fd5b50610269610e40565b3480156104db57600080fd5b506102fa6104ea366004611d11565b600d6020526000908152604090205481565b6102e361050a366004611c8b565b610e4f565b34801561051b57600080fd5b506102e361052a366004611dc3565b610ffe565b34801561053b57600080fd5b506102fa600281565b34801561055057600080fd5b506102e361055f366004611da8565b611009565b34801561057057600080fd5b506102e361057f366004611e15565b6110a3565b34801561059057600080fd5b5061026961059f366004611d11565b6110bb565b3480156105b057600080fd5b506102fa600381565b3480156105c557600080fd5b50600a546102ab906001600160a01b031681565b3480156105e557600080fd5b506102346105f4366004611ef9565b6111cc565b34801561060557600080fd5b506102fa610614366004611da8565b6111fa565b34801561062557600080fd5b506102e3610634366004611da8565b6112bc565b34801561064557600080fd5b50600b546102ab906001600160a01b031681565b60006001600160e01b03198216632483248360e11b148061067e575061067e826112f7565b92915050565b60608160ff166001036106b0576040518060a00160405280606481526020016121d76064913992915050565b8160ff166002036106da576040518060a001604052806064815260200161229f6064913992915050565b8160ff16600303610704576040518060a001604052806064815260200161223b6064913992915050565b60405162461bcd60e51b8152602060048201526015602482015274125b9d985b1a59081d1a595c881cd95b1958dd1959605a1b60448201526064015b60405180910390fd5b60606000805461075890611f2c565b80601f016020809104026020016040519081016040528092919081815260200182805461078490611f2c565b80156107d15780601f106107a6576101008083540402835291602001916107d1565b820191906000526020600020905b8154815290600101906020018083116107b457829003601f168201915b5050505050905090565b60006107e682611347565b506000828152600460205260409020546001600160a01b031661067e565b61080f828233611380565b5050565b6001600160a01b03821661083d57604051633250574960e11b815260006004820152602401610740565b600061084a83833361138d565b9050836001600160a01b0316816001600160a01b031614610898576040516364283d7b60e01b81526001600160a01b0380861660048301526024820184905282166044820152606401610740565b50505050565b6108a661141d565b6001600160a01b0381166108f45760405162461bcd60e51b8152602060048201526015602482015274496e76616c69642061646d696e206164647265737360581b6044820152606401610740565b600b80546001600160a01b0319166001600160a01b0383169081179091556040517fa54e30973125ab6651706f5e9b1b43cf9bdba85ff8204cba762dfe45c0b4b9d090600090a250565b61094661141d565b61094e61144a565b47806109935760405162461bcd60e51b81526020600482015260146024820152734e6f2066756e647320746f20776974686472617760601b6044820152606401610740565b60006109a76007546001600160a01b031690565b6001600160a01b03168260405160006040518083038185875af1925050503d80600081146109f1576040519150601f19603f3d011682016040523d82523d6000602084013e6109f6565b606091505b5050905080610a3b5760405162461bcd60e51b815260206004820152601160248201527015da5d1a191c985dd85b0819985a5b1959607a1b6044820152606401610740565b6007546001600160a01b03166001600160a01b03167f7084f5476618d8e60b11ef0d7d3f06914655adb8793e28ff7f018d4c76d505d583604051610a8191815260200190565b60405180910390a25050610a956001600855565b565b600e546001600160a01b03163314610ac15760405162461bcd60e51b815260040161074090611f66565b6001600160a01b0381166000908152600c602052604090208054610b275760405162461bcd60e51b815260206004820152601c60248201527f5573657220646f6573206e6f74206f776e20616e79206772616e7473000000006044820152606401610740565b60005b8154811015610d11576000828281548110610b4757610b47611faf565b90600052602060002001549050836001600160a01b0316610b6782610da3565b6001600160a01b031614610bfa5782548390610b8590600190611fdb565b81548110610b9557610b95611faf565b9060005260206000200154838381548110610bb257610bb2611faf565b906000526020600020018190555082805480610bd057610bd0611fee565b600190038181906000526020600020016000905590558180610bf190612004565b92505050610cff565b6000818152600d602052604090205415610cfd576000818152600d60205260408120805460019290610c2d908490611fdb565b90915550506000818152600d6020526040812054900361089857610c5081611474565b6040516001600160a01b0385169082907fa0842786a23266a4cd5246cac6f0d5a7b66308b41f33765c9f324e776cab276a90600090a382548390610c9690600190611fdb565b81548110610ca657610ca6611faf565b9060005260206000200154838381548110610cc357610cc3611faf565b906000526020600020018190555082805480610ce157610ce1611fee565b6001900381819060005260206000200160009055905550505050565b505b80610d098161201b565b915050610b2a565b5060405162461bcd60e51b815260206004820152602160248201527f4e6f20616c6c6f77616e6365206c65667420666f722075736572206772616e746044820152607360f81b6064820152608401610740565b50565b610d82838383604051806020016040528060008152506110a3565b505050565b6040518060a001604052806064815260200161223b6064913981565b600061067e82611347565b6040518060a001604052806064815260200161229f6064913981565b60006001600160a01b038216610df6576040516322718ad960e21b815260006004820152602401610740565b506001600160a01b031660009081526003602052604090205490565b610e1a61141d565b610a9560006114af565b6040518060a00160405280606481526020016121d76064913981565b60606001805461075890611f2c565b60018160ff1610158015610e67575060038160ff1611155b610eab5760405162461bcd60e51b8152602060048201526015602482015274125b9d985b1a59081d1a595c881cd95b1958dd1959605a1b6044820152606401610740565b60008160ff16600114610ed9578160ff16600214610ece5764d18c2e2800610ee0565b64a2fb405800610ee0565b64746a5288005b905060008260ff16600114610f08578260ff16600214610f01576003610f0b565b6002610f0b565b60015b9050813414610f5c5760405162461bcd60e51b815260206004820152601860248201527f496e636f7272656374207061796d656e7420616d6f756e7400000000000000006044820152606401610740565b600160096000828254610f6f9190612034565b9091555050600954610f813382611501565b610f9381610f8e86610684565b61151b565b6000818152600d6020908152604080832085905533808452600c83528184208054600181018255908552938390209093018490555184815283917f12633d699bb30c755e51947d5c1cef67124f54b7069e9196cf71da10b461cfe6910160405180910390a350505050565b61080f33838361156b565b61101161141d565b6001600160a01b0381166110595760405162461bcd60e51b815260206004820152600f60248201526e496e76616c6964206164647265737360881b6044820152606401610740565b600e80546001600160a01b0319166001600160a01b0383169081179091556040517fbf54ea83ad908567bc5ad3199eab9f6f191d26c28764b57f9927110b97a971fd90600090a250565b6110ae848484610813565b610898338585858561160a565b60606110c682611347565b50600082815260066020526040812080546110e090611f2c565b80601f016020809104026020016040519081016040528092919081815260200182805461110c90611f2c565b80156111595780601f1061112e57610100808354040283529160200191611159565b820191906000526020600020905b81548152906001019060200180831161113c57829003601f168201915b50505050509050600061117760408051602081019091526000815290565b90508051600003611189575092915050565b8151156111bb5780826040516020016111a3929190612047565b60405160208183030381529060405292505050919050565b6111c484611735565b949350505050565b6001600160a01b03918216600090815260056020908152604080832093909416825291909152205460ff1690565b600e546000906001600160a01b031633146112275760405162461bcd60e51b815260040161074090611f66565b6001600160a01b0382166000908152600c6020526040812090805b82548110156112b257600083828154811061125f5761125f611faf565b90600052602060002001549050856001600160a01b031661127f82610da3565b6001600160a01b0316036112a9576000818152600d60205260409020546112a69084612034565b92505b50600101611242565b509150505b919050565b6112c461141d565b6001600160a01b0381166112ee57604051631e4fbdf760e01b815260006004820152602401610740565b610d64816114af565b60006001600160e01b031982166380ac58cd60e01b148061132857506001600160e01b03198216635b5e139f60e01b145b8061067e57506301ffc9a760e01b6001600160e01b031983161461067e565b6000818152600260205260408120546001600160a01b03168061067e57604051637e27328960e01b815260048101849052602401610740565b610d8283838360016117aa565b6000828152600260205260408120546001600160a01b031680158015906113bc57506001600160a01b03851615155b156114095760405162461bcd60e51b815260206004820152601a60248201527f536f756c626f756e643a205472616e73666572206661696c65640000000000006044820152606401610740565b6114148585856118b0565b95945050505050565b6007546001600160a01b03163314610a955760405163118cdaa760e01b8152336004820152602401610740565b60026008540361146d57604051633ee5aeb560e01b815260040160405180910390fd5b6002600855565b6000611483600083600061138d565b90506001600160a01b03811661080f57604051637e27328960e01b815260048101839052602401610740565b600780546001600160a01b038381166001600160a01b0319831681179093556040519116919082907f8be0079c531659141344cd1fd0a4f28419497f9722a3daafe3b4186f6b6457e090600090a35050565b61080f8282604051806020016040528060008152506119a9565b600082815260066020526040902061153382826120bd565b506040518281527ff8e1a15aba9398e019f0b49df1a4fde98ee17ae345cb5f6b5e2c27f5033e8ce79060200160405180910390a15050565b6001600160a01b03821661159d57604051630b61174360e31b81526001600160a01b0383166004820152602401610740565b6001600160a01b03838116600081815260056020908152604080832094871680845294825291829020805460ff191686151590811790915591519182527f17307eab39ab6107e8899845ad3d59bd9653f200f220920489ca2b5937696c31910160405180910390a3505050565b6001600160a01b0383163b1561172e57604051630a85bd0160e11b81526001600160a01b0384169063150b7a029061164c90889088908790879060040161217c565b6020604051808303816000875af1925050508015611687575060408051601f3d908101601f19168201909252611684918101906121b9565b60015b6116f0573d8080156116b5576040519150601f19603f3d011682016040523d82523d6000602084013e6116ba565b606091505b5080516000036116e857604051633250574960e11b81526001600160a01b0385166004820152602401610740565b805181602001fd5b6001600160e01b03198116630a85bd0160e11b1461172c57604051633250574960e11b81526001600160a01b0385166004820152602401610740565b505b5050505050565b606061174082611347565b50600061175860408051602081019091526000815290565b9050600081511161177857604051806020016040528060008152506117a3565b80611782846119c1565b604051602001611793929190612047565b6040516020818303038152906040525b9392505050565b80806117be57506001600160a01b03821615155b156118805760006117ce84611347565b90506001600160a01b038316158015906117fa5750826001600160a01b0316816001600160a01b031614155b801561180d575061180b81846111cc565b155b156118365760405163a9fbf51f60e01b81526001600160a01b0384166004820152602401610740565b811561187e5783856001600160a01b0316826001600160a01b03167f8c5be1e5ebec7d5bd14f71427d1e84f3dd0314c0f7b2291e5b200ac8c7c3b92560405160405180910390a45b505b5050600090815260046020526040902080546001600160a01b0319166001600160a01b0392909216919091179055565b6000828152600260205260408120546001600160a01b03908116908316156118dd576118dd818486611a54565b6001600160a01b0381161561191b576118fa6000856000806117aa565b6001600160a01b038116600090815260036020526040902080546000190190555b6001600160a01b0385161561194a576001600160a01b0385166000908152600360205260409020805460010190555b60008481526002602052604080822080546001600160a01b0319166001600160a01b0389811691821790925591518793918516917fddf252ad1be2c89b69c2b068fc378daa952ba7f163c4a11628f55a4df523b3ef91a4949350505050565b6119b38383611ab8565b610d8233600085858561160a565b606060006119ce83611b1d565b600101905060008167ffffffffffffffff8111156119ee576119ee611dff565b6040519080825280601f01601f191660200182016040528015611a18576020820181803683370190505b5090508181016020015b600019016f181899199a1a9b1b9c1cb0b131b232b360811b600a86061a8153600a8504945084611a2257509392505050565b611a5f838383611bf5565b610d82576001600160a01b038316611a8d57604051637e27328960e01b815260048101829052602401610740565b60405163177e802f60e01b81526001600160a01b038316600482015260248101829052604401610740565b6001600160a01b038216611ae257604051633250574960e11b815260006004820152602401610740565b6000611af08383600061138d565b90506001600160a01b03811615610d82576040516339e3563760e11b815260006004820152602401610740565b60008072184f03e93ff9f4daa797ed6e38ed64bf6a1f0160401b8310611b5c5772184f03e93ff9f4daa797ed6e38ed64bf6a1f0160401b830492506040015b6d04ee2d6d415b85acef81000000008310611b88576d04ee2d6d415b85acef8100000000830492506020015b662386f26fc100008310611ba657662386f26fc10000830492506010015b6305f5e1008310611bbe576305f5e100830492506008015b6127108310611bd257612710830492506004015b60648310611be4576064830492506002015b600a831061067e5760010192915050565b60006001600160a01b038316158015906111c45750826001600160a01b0316846001600160a01b03161480611c2f5750611c2f84846111cc565b806111c45750506000908152600460205260409020546001600160a01b03908116911614919050565b6001600160e01b031981168114610d6457600080fd5b600060208284031215611c8057600080fd5b81356117a381611c58565b600060208284031215611c9d57600080fd5b813560ff811681146117a357600080fd5b60005b83811015611cc9578181015183820152602001611cb1565b50506000910152565b60008151808452611cea816020860160208601611cae565b601f01601f19169290920160200192915050565b6020815260006117a36020830184611cd2565b600060208284031215611d2357600080fd5b5035919050565b80356001600160a01b03811681146112b757600080fd5b60008060408385031215611d5457600080fd5b611d5d83611d2a565b946020939093013593505050565b600080600060608486031215611d8057600080fd5b611d8984611d2a565b9250611d9760208501611d2a565b929592945050506040919091013590565b600060208284031215611dba57600080fd5b6117a382611d2a565b60008060408385031215611dd657600080fd5b611ddf83611d2a565b915060208301358015158114611df457600080fd5b809150509250929050565b634e487b7160e01b600052604160045260246000fd5b60008060008060808587031215611e2b57600080fd5b611e3485611d2a565b9350611e4260208601611d2a565b925060408501359150606085013567ffffffffffffffff811115611e6557600080fd5b8501601f81018713611e7657600080fd5b803567ffffffffffffffff811115611e9057611e90611dff565b604051601f8201601f19908116603f0116810167ffffffffffffffff81118282101715611ebf57611ebf611dff565b604052818152828201602001891015611ed757600080fd5b8160208401602083013760006020838301015280935050505092959194509250565b60008060408385031215611f0c57600080fd5b611f1583611d2a565b9150611f2360208401611d2a565b90509250929050565b600181811c90821680611f4057607f821691505b602082108103611f6057634e487b7160e01b600052602260045260246000fd5b50919050565b60208082526029908201527f43616c6c6572206973206e6f7420746865204e46544d61726b6574706c6163656040820152680818dbdb9d1c9858dd60ba1b606082015260800190565b634e487b7160e01b600052603260045260246000fd5b634e487b7160e01b600052601160045260246000fd5b8181038181111561067e5761067e611fc5565b634e487b7160e01b600052603160045260246000fd5b60008161201357612013611fc5565b506000190190565b60006001820161202d5761202d611fc5565b5060010190565b8082018082111561067e5761067e611fc5565b60008351612059818460208801611cae565b83519083019061206d818360208801611cae565b01949350505050565b601f821115610d8257806000526020600020601f840160051c8101602085101561209d5750805b601f840160051c820191505b8181101561172e57600081556001016120a9565b815167ffffffffffffffff8111156120d7576120d7611dff565b6120eb816120e58454611f2c565b84612076565b6020601f82116001811461211f57600083156121075750848201515b600019600385901b1c1916600184901b17845561172e565b600084815260208120601f198516915b8281101561214f578785015182556020948501946001909201910161212f565b508482101561216d5786840151600019600387901b60f8161c191681555b50505050600190811b01905550565b6001600160a01b03858116825284166020820152604081018390526080606082018190526000906121af90830184611cd2565b9695505050505050565b6000602082840312156121cb57600080fd5b81516117a381611c5856fe68747470733a2f2f62656967652d61647669736f72792d6d617274656e2d3337352e6d7970696e6174612e636c6f75642f697066732f516d51746d4e486b5a674a71436874616d4e524d53717a444e445a42756466655177366d744752396e735936426768747470733a2f2f62656967652d61647669736f72792d6d617274656e2d3337352e6d7970696e6174612e636c6f75642f697066732f516d646e4248617a744a47545138377169387538734137414566574a5657774c77654665787458484a4c3332615668747470733a2f2f62656967652d61647669736f72792d6d617274656e2d3337352e6d7970696e6174612e636c6f75642f697066732f516d654c6442486143577a78676f345646785165686d7147697772396a51575079624a616d4a5a6f627879545843a2646970667358221220c31e081cffde2c944a0582ea391c214756c14eaec37ea7e29b46adaee9b5002864736f6c634300081b0033",
  "linkReferences": {},
  "deployedLinkReferences": {}
}