{
  "_format": "hh-sol-artifact-1",
  "contractName": "GrantNFT",
  "sourceName": "contracts/GrantNFT.sol",
  "abi": [
    {
      "inputs": [],
      "stateMutability": "nonpayable",
      "type": "constructor"
    },
    {
      "inputs": [
        {
          "internalType": "address",
          "name": "sender",
          "type": "address"
        },
        {
          "internalType": "uint256",
          "name": "tokenId",
          "type": "uint256"
        },
        {
          "internalType": "address",
          "name": "owner",
          "type": "address"
        }
      ],
      "name": "ERC721IncorrectOwner",
      "type": "error"
    },
    {
      "inputs": [
        {
          "internalType": "address",
          "name": "operator",
          "type": "address"
        },
        {
          "internalType": "uint256",
          "name": "tokenId",
          "type": "uint256"
        }
      ],
      "name": "ERC721InsufficientApproval",
      "type": "error"
    },
    {
      "inputs": [
        {
          "internalType": "address",
          "name": "approver",
          "type": "address"
        }
      ],
      "name": "ERC721InvalidApprover",
      "type": "error"
    },
    {
      "inputs": [
        {
          "internalType": "address",
          "name": "operator",
          "type": "address"
        }
      ],
      "name": "ERC721InvalidOperator",
      "type": "error"
    },
    {
      "inputs": [
        {
          "internalType": "address",
          "name": "owner",
          "type": "address"
        }
      ],
      "name": "ERC721InvalidOwner",
      "type": "error"
    },
    {
      "inputs": [
        {
          "internalType": "address",
          "name": "receiver",
          "type": "address"
        }
      ],
      "name": "ERC721InvalidReceiver",
      "type": "error"
    },
    {
      "inputs": [
        {
          "internalType": "address",
          "name": "sender",
          "type": "address"
        }
      ],
      "name": "ERC721InvalidSender",
      "type": "error"
    },
    {
      "inputs": [
        {
          "internalType": "uint256",
          "name": "tokenId",
          "type": "uint256"
        }
      ],
      "name": "ERC721NonexistentToken",
      "type": "error"
    },
    {
      "inputs": [
        {
          "internalType": "address",
          "name": "owner",
          "type": "address"
        }
      ],
      "name": "OwnableInvalidOwner",
      "type": "error"
    },
    {
      "inputs": [
        {
          "internalType": "address",
          "name": "account",
          "type": "address"
        }
      ],
      "name": "OwnableUnauthorizedAccount",
      "type": "error"
    },
    {
      "anonymous": false,
      "inputs": [
        {
          "indexed": true,
          "internalType": "address",
          "name": "owner",
          "type": "address"
        },
        {
          "indexed": true,
          "internalType": "address",
          "name": "approved",
          "type": "address"
        },
        {
          "indexed": true,
          "internalType": "uint256",
          "name": "tokenId",
          "type": "uint256"
        }
      ],
      "name": "Approval",
      "type": "event"
    },
    {
      "anonymous": false,
      "inputs": [
        {
          "indexed": true,
          "internalType": "address",
          "name": "owner",
          "type": "address"
        },
        {
          "indexed": true,
          "internalType": "address",
          "name": "operator",
          "type": "address"
        },
        {
          "indexed": false,
          "internalType": "bool",
          "name": "approved",
          "type": "bool"
        }
      ],
      "name": "ApprovalForAll",
      "type": "event"
    },
    {
      "anonymous": false,
      "inputs": [
        {
          "indexed": true,
          "internalType": "address",
          "name": "authorizedContract",
          "type": "address"
        }
      ],
      "name": "AuthorizedContractSet",
      "type": "event"
    },
    {
      "anonymous": false,
      "inputs": [
        {
          "indexed": false,
          "internalType": "uint256",
          "name": "_fromTokenId",
          "type": "uint256"
        },
        {
          "indexed": false,
          "internalType": "uint256",
          "name": "_toTokenId",
          "type": "uint256"
        }
      ],
      "name": "BatchMetadataUpdate",
      "type": "event"
    },
    {
      "anonymous": false,
      "inputs": [
        {
          "indexed": true,
          "internalType": "uint256",
          "name": "tokenId",
          "type": "uint256"
        },
        {
          "indexed": true,
          "internalType": "address",
          "name": "owner",
          "type": "address"
        }
      ],
      "name": "GrantBurned",
      "type": "event"
    },
    {
      "anonymous": false,
      "inputs": [
        {
          "indexed": true,
          "internalType": "uint256",
          "name": "tokenId",
          "type": "uint256"
        },
        {
          "indexed": true,
          "internalType": "address",
          "name": "owner",
          "type": "address"
        },
        {
          "indexed": false,
          "internalType": "uint256",
          "name": "allowance",
          "type": "uint256"
        }
      ],
      "name": "GrantMinted",
      "type": "event"
    },
    {
      "anonymous": false,
      "inputs": [
        {
          "indexed": false,
          "internalType": "uint256",
          "name": "_tokenId",
          "type": "uint256"
        }
      ],
      "name": "MetadataUpdate",
      "type": "event"
    },
    {
      "anonymous": false,
      "inputs": [
        {
          "indexed": true,
          "internalType": "address",
          "name": "previousOwner",
          "type": "address"
        },
        {
          "indexed": true,
          "internalType": "address",
          "name": "newOwner",
          "type": "address"
        }
      ],
      "name": "OwnershipTransferred",
      "type": "event"
    },
    {
      "anonymous": false,
      "inputs": [
        {
          "indexed": true,
          "internalType": "address",
          "name": "from",
          "type": "address"
        },
        {
          "indexed": true,
          "internalType": "address",
          "name": "to",
          "type": "address"
        },
        {
          "indexed": true,
          "internalType": "uint256",
          "name": "tokenId",
          "type": "uint256"
        }
      ],
      "name": "Transfer",
      "type": "event"
    },
    {
      "anonymous": false,
      "inputs": [
        {
          "indexed": true,
          "internalType": "address",
          "name": "owner",
          "type": "address"
        },
        {
          "indexed": false,
          "internalType": "uint256",
          "name": "amount",
          "type": "uint256"
        }
      ],
      "name": "Withdrawn",
      "type": "event"
    },
    {
      "inputs": [],
      "name": "TIER_1_ALLOWANCE",
      "outputs": [
        {
          "internalType": "uint256",
          "name": "",
          "type": "uint256"
        }
      ],
      "stateMutability": "view",
      "type": "function"
    },
    {
      "inputs": [],
      "name": "TIER_1_PRICE",
      "outputs": [
        {
          "internalType": "uint256",
          "name": "",
          "type": "uint256"
        }
      ],
      "stateMutability": "view",
      "type": "function"
    },
    {
      "inputs": [],
      "name": "TIER_1_URI",
      "outputs": [
        {
          "internalType": "string",
          "name": "",
          "type": "string"
        }
      ],
      "stateMutability": "view",
      "type": "function"
    },
    {
      "inputs": [],
      "name": "TIER_2_ALLOWANCE",
      "outputs": [
        {
          "internalType": "uint256",
          "name": "",
          "type": "uint256"
        }
      ],
      "stateMutability": "view",
      "type": "function"
    },
    {
      "inputs": [],
      "name": "TIER_2_PRICE",
      "outputs": [
        {
          "internalType": "uint256",
          "name": "",
          "type": "uint256"
        }
      ],
      "stateMutability": "view",
      "type": "function"
    },
    {
      "inputs": [],
      "name": "TIER_2_URI",
      "outputs": [
        {
          "internalType": "string",
          "name": "",
          "type": "string"
        }
      ],
      "stateMutability": "view",
      "type": "function"
    },
    {
      "inputs": [],
      "name": "TIER_3_ALLOWANCE",
      "outputs": [
        {
          "internalType": "uint256",
          "name": "",
          "type": "uint256"
        }
      ],
      "stateMutability": "view",
      "type": "function"
    },
    {
      "inputs": [],
      "name": "TIER_3_PRICE",
      "outputs": [
        {
          "internalType": "uint256",
          "name": "",
          "type": "uint256"
        }
      ],
      "stateMutability": "view",
      "type": "function"
    },
    {
      "inputs": [],
      "name": "TIER_3_URI",
      "outputs": [
        {
          "internalType": "string",
          "name": "",
          "type": "string"
        }
      ],
      "stateMutability": "view",
      "type": "function"
    },
    {
      "inputs": [
        {
          "internalType": "address",
          "name": "to",
          "type": "address"
        },
        {
          "internalType": "uint256",
          "name": "tokenId",
          "type": "uint256"
        }
      ],
      "name": "approve",
      "outputs": [],
      "stateMutability": "nonpayable",
      "type": "function"
    },
    {
      "inputs": [],
      "name": "authorizedContract",
      "outputs": [
        {
          "internalType": "address",
          "name": "",
          "type": "address"
        }
      ],
      "stateMutability": "view",
      "type": "function"
    },
    {
      "inputs": [
        {
          "internalType": "address",
          "name": "owner",
          "type": "address"
        }
      ],
      "name": "balanceOf",
      "outputs": [
        {
          "internalType": "uint256",
          "name": "",
          "type": "uint256"
        }
      ],
      "stateMutability": "view",
      "type": "function"
    },
    {
      "inputs": [
        {
          "internalType": "address",
          "name": "user",
          "type": "address"
        }
      ],
      "name": "decrementAllowance",
      "outputs": [],
      "stateMutability": "nonpayable",
      "type": "function"
    },
    {
      "inputs": [
        {
          "internalType": "uint256",
          "name": "tokenId",
          "type": "uint256"
        }
      ],
      "name": "getApproved",
      "outputs": [
        {
          "internalType": "address",
          "name": "",
          "type": "address"
        }
      ],
      "stateMutability": "view",
      "type": "function"
    },
    {
      "inputs": [],
      "name": "getMyNFTs",
      "outputs": [
        {
          "internalType": "uint256[]",
          "name": "",
          "type": "uint256[]"
        }
      ],
      "stateMutability": "view",
      "type": "function"
    },
    {
      "inputs": [
        {
          "internalType": "uint8",
          "name": "tier",
          "type": "uint8"
        }
      ],
      "name": "getTokenURIForTier",
      "outputs": [
        {
          "internalType": "string",
          "name": "",
          "type": "string"
        }
      ],
      "stateMutability": "pure",
      "type": "function"
    },
    {
      "inputs": [
        {
          "internalType": "address",
          "name": "user",
          "type": "address"
        }
      ],
      "name": "getUserGrants",
      "outputs": [
        {
          "internalType": "uint256[]",
          "name": "",
          "type": "uint256[]"
        },
        {
          "internalType": "uint256[]",
          "name": "",
          "type": "uint256[]"
        }
      ],
      "stateMutability": "view",
      "type": "function"
    },
    {
      "inputs": [
        {
          "internalType": "uint256",
          "name": "",
          "type": "uint256"
        }
      ],
      "name": "grantToAllowance",
      "outputs": [
        {
          "internalType": "uint256",
          "name": "",
          "type": "uint256"
        }
      ],
      "stateMutability": "view",
      "type": "function"
    },
    {
      "inputs": [
        {
          "internalType": "address",
          "name": "owner",
          "type": "address"
        },
        {
          "internalType": "address",
          "name": "operator",
          "type": "address"
        }
      ],
      "name": "isApprovedForAll",
      "outputs": [
        {
          "internalType": "bool",
          "name": "",
          "type": "bool"
        }
      ],
      "stateMutability": "view",
      "type": "function"
    },
    {
      "inputs": [],
      "name": "name",
      "outputs": [
        {
          "internalType": "string",
          "name": "",
          "type": "string"
        }
      ],
      "stateMutability": "view",
      "type": "function"
    },
    {
      "inputs": [],
      "name": "owner",
      "outputs": [
        {
          "internalType": "address",
          "name": "",
          "type": "address"
        }
      ],
      "stateMutability": "view",
      "type": "function"
    },
    {
      "inputs": [
        {
          "internalType": "uint256",
          "name": "tokenId",
          "type": "uint256"
        }
      ],
      "name": "ownerOf",
      "outputs": [
        {
          "internalType": "address",
          "name": "",
          "type": "address"
        }
      ],
      "stateMutability": "view",
      "type": "function"
    },
    {
      "inputs": [
        {
          "internalType": "uint8",
          "name": "tier",
          "type": "uint8"
        }
      ],
      "name": "purchaseGrantNFT",
      "outputs": [],
      "stateMutability": "payable",
      "type": "function"
    },
    {
      "inputs": [],
      "name": "renounceOwnership",
      "outputs": [],
      "stateMutability": "nonpayable",
      "type": "function"
    },
    {
      "inputs": [
        {
          "internalType": "address",
          "name": "from",
          "type": "address"
        },
        {
          "internalType": "address",
          "name": "to",
          "type": "address"
        },
        {
          "internalType": "uint256",
          "name": "tokenId",
          "type": "uint256"
        }
      ],
      "name": "safeTransferFrom",
      "outputs": [],
      "stateMutability": "nonpayable",
      "type": "function"
    },
    {
      "inputs": [
        {
          "internalType": "address",
          "name": "from",
          "type": "address"
        },
        {
          "internalType": "address",
          "name": "to",
          "type": "address"
        },
        {
          "internalType": "uint256",
          "name": "tokenId",
          "type": "uint256"
        },
        {
          "internalType": "bytes",
          "name": "data",
          "type": "bytes"
        }
      ],
      "name": "safeTransferFrom",
      "outputs": [],
      "stateMutability": "nonpayable",
      "type": "function"
    },
    {
      "inputs": [
        {
          "internalType": "address",
          "name": "operator",
          "type": "address"
        },
        {
          "internalType": "bool",
          "name": "approved",
          "type": "bool"
        }
      ],
      "name": "setApprovalForAll",
      "outputs": [],
      "stateMutability": "nonpayable",
      "type": "function"
    },
    {
      "inputs": [
        {
          "internalType": "address",
          "name": "_authorizedContract",
          "type": "address"
        }
      ],
      "name": "setAuthorizedContract",
      "outputs": [],
      "stateMutability": "nonpayable",
      "type": "function"
    },
    {
      "inputs": [
        {
          "internalType": "bytes4",
          "name": "interfaceId",
          "type": "bytes4"
        }
      ],
      "name": "supportsInterface",
      "outputs": [
        {
          "internalType": "bool",
          "name": "",
          "type": "bool"
        }
      ],
      "stateMutability": "view",
      "type": "function"
    },
    {
      "inputs": [],
      "name": "symbol",
      "outputs": [
        {
          "internalType": "string",
          "name": "",
          "type": "string"
        }
      ],
      "stateMutability": "view",
      "type": "function"
    },
    {
      "inputs": [
        {
          "internalType": "uint256",
          "name": "tokenId",
          "type": "uint256"
        }
      ],
      "name": "tokenURI",
      "outputs": [
        {
          "internalType": "string",
          "name": "",
          "type": "string"
        }
      ],
      "stateMutability": "view",
      "type": "function"
    },
    {
      "inputs": [
        {
          "internalType": "address",
          "name": "from",
          "type": "address"
        },
        {
          "internalType": "address",
          "name": "to",
          "type": "address"
        },
        {
          "internalType": "uint256",
          "name": "tokenId",
          "type": "uint256"
        }
      ],
      "name": "transferFrom",
      "outputs": [],
      "stateMutability": "nonpayable",
      "type": "function"
    },
    {
      "inputs": [
        {
          "internalType": "address",
          "name": "newOwner",
          "type": "address"
        }
      ],
      "name": "transferOwnership",
      "outputs": [],
      "stateMutability": "nonpayable",
      "type": "function"
    },
    {
      "inputs": [],
      "name": "withdraw",
      "outputs": [],
      "stateMutability": "nonpayable",
      "type": "function"
    }
  ],
  "bytecode": "0x608060405234801561001057600080fd5b50336040518060400160405280600c81526020017f536f756c626f756e644e465400000000000000000000000000000000000000008152506040518060400160405280600381526020017f5342540000000000000000000000000000000000000000000000000000000000815250816000908161008d919061043d565b50806001908161009d919061043d565b505050600073ffffffffffffffffffffffffffffffffffffffff168173ffffffffffffffffffffffffffffffffffffffff16036101125760006040517f1e4fbdf70000000000000000000000000000000000000000000000000000000081526004016101099190610550565b60405180910390fd5b6101218161012760201b60201c565b5061056b565b6000600760009054906101000a900473ffffffffffffffffffffffffffffffffffffffff16905081600760006101000a81548173ffffffffffffffffffffffffffffffffffffffff021916908373ffffffffffffffffffffffffffffffffffffffff1602179055508173ffffffffffffffffffffffffffffffffffffffff168173ffffffffffffffffffffffffffffffffffffffff167f8be0079c531659141344cd1fd0a4f28419497f9722a3daafe3b4186f6b6457e060405160405180910390a35050565b600081519050919050565b7f4e487b7100000000000000000000000000000000000000000000000000000000600052604160045260246000fd5b7f4e487b7100000000000000000000000000000000000000000000000000000000600052602260045260246000fd5b6000600282049050600182168061026e57607f821691505b60208210810361028157610280610227565b5b50919050565b60008190508160005260206000209050919050565b60006020601f8301049050919050565b600082821b905092915050565b6000600883026102e97fffffffffffffffffffffffffffffffffffffffffffffffffffffffffffffffff826102ac565b6102f386836102ac565b95508019841693508086168417925050509392505050565b6000819050919050565b6000819050919050565b600061033a6103356103308461030b565b610315565b61030b565b9050919050565b6000819050919050565b6103548361031f565b61036861036082610341565b8484546102b9565b825550505050565b600090565b61037d610370565b61038881848461034b565b505050565b5b818110156103ac576103a1600082610375565b60018101905061038e565b5050565b601f8211156103f1576103c281610287565b6103cb8461029c565b810160208510156103da578190505b6103ee6103e68561029c565b83018261038d565b50505b505050565b600082821c905092915050565b6000610414600019846008026103f6565b1980831691505092915050565b600061042d8383610403565b9150826002028217905092915050565b610446826101ed565b67ffffffffffffffff81111561045f5761045e6101f8565b5b6104698254610256565b6104748282856103b0565b600060209050601f8311600181146104a75760008415610495578287015190505b61049f8582610421565b865550610507565b601f1984166104b586610287565b60005b828110156104dd578489015182556001820191506020850194506020810190506104b8565b868310156104fa57848901516104f6601f891682610403565b8355505b6001600288020188555050505b505050505050565b600073ffffffffffffffffffffffffffffffffffffffff82169050919050565b600061053a8261050f565b9050919050565b61054a8161052f565b82525050565b60006020820190506105656000830184610541565b92915050565b613dc88061057a6000396000f3fe6080604052600436106101f95760003560e01c806370a082311161010d578063a22cb465116100a0578063c87b56dd1161006f578063c87b56dd14610719578063d2e0731314610756578063d85704dc14610781578063e985e9c5146107aa578063f2fde38b146107e7576101f9565b8063a22cb46514610671578063a6591cdf1461069a578063ad4c6659146106c5578063b88d4fde146106f0576101f9565b806395d89b41116100dc57806395d89b41146105c457806397a3ba50146105ef5780639aad69e71461062c578063a0f5927114610655576101f9565b806370a082311461051a578063715018a614610557578063888e5d4c1461056e5780638da5cb5b14610599576101f9565b8063179fc164116101905780634608eb771161015f5780634608eb77146104315780634bc0b1161461045c578063629cb2e4146104875780636352211e146104b2578063675f4f02146104ef576101f9565b8063179fc1641461039d57806323b872dd146103c85780633ccfd60b146103f157806342842e0e14610408576101f9565b8063095ea7b3116101cc578063095ea7b3146102e05780630c06628c146103095780630e79e4061461034757806310005d6614610372576101f9565b806301ffc9a7146101fe578063046db5ca1461023b57806306fdde0314610278578063081812fc146102a3575b600080fd5b34801561020a57600080fd5b5061022560048036038101906102209190612b76565b610810565b6040516102329190612bbe565b60405180910390f35b34801561024757600080fd5b50610262600480360381019061025d9190612c12565b610871565b60405161026f9190612ccf565b60405180910390f35b34801561028457600080fd5b5061028d610934565b60405161029a9190612ccf565b60405180910390f35b3480156102af57600080fd5b506102ca60048036038101906102c59190612d27565b6109c6565b6040516102d79190612d95565b60405180910390f35b3480156102ec57600080fd5b5061030760048036038101906103029190612ddc565b6109e2565b005b34801561031557600080fd5b50610330600480360381019061032b9190612e1c565b6109f8565b60405161033e929190612f07565b60405180910390f35b34801561035357600080fd5b5061035c610b4f565b6040516103699190612f4d565b60405180910390f35b34801561037e57600080fd5b50610387610b54565b6040516103949190612f4d565b60405180910390f35b3480156103a957600080fd5b506103b2610b60565b6040516103bf9190612f4d565b60405180910390f35b3480156103d457600080fd5b506103ef60048036038101906103ea9190612f68565b610b6c565b005b3480156103fd57600080fd5b50610406610c6e565b005b34801561041457600080fd5b5061042f600480360381019061042a9190612f68565b610dca565b005b34801561043d57600080fd5b50610446610dea565b6040516104539190612f4d565b60405180910390f35b34801561046857600080fd5b50610471610df6565b60405161047e9190612ccf565b60405180910390f35b34801561049357600080fd5b5061049c610e12565b6040516104a99190612fbb565b60405180910390f35b3480156104be57600080fd5b506104d960048036038101906104d49190612d27565b610f0d565b6040516104e69190612d95565b60405180910390f35b3480156104fb57600080fd5b50610504610f1f565b6040516105119190612ccf565b60405180910390f35b34801561052657600080fd5b50610541600480360381019061053c9190612e1c565b610f3b565b60405161054e9190612f4d565b60405180910390f35b34801561056357600080fd5b5061056c610ff5565b005b34801561057a57600080fd5b50610583611009565b6040516105909190612ccf565b60405180910390f35b3480156105a557600080fd5b506105ae611025565b6040516105bb9190612d95565b60405180910390f35b3480156105d057600080fd5b506105d961104f565b6040516105e69190612ccf565b60405180910390f35b3480156105fb57600080fd5b5061061660048036038101906106119190612d27565b6110e1565b6040516106239190612f4d565b60405180910390f35b34801561063857600080fd5b50610653600480360381019061064e9190612e1c565b6110f9565b005b61066f600480360381019061066a9190612c12565b6111f7565b005b34801561067d57600080fd5b5061069860048036038101906106939190613009565b6113f2565b005b3480156106a657600080fd5b506106af611408565b6040516106bc9190612d95565b60405180910390f35b3480156106d157600080fd5b506106da61142e565b6040516106e79190612f4d565b60405180910390f35b3480156106fc57600080fd5b506107176004803603810190610712919061317e565b611433565b005b34801561072557600080fd5b50610740600480360381019061073b9190612d27565b611450565b60405161074d9190612ccf565b60405180910390f35b34801561076257600080fd5b5061076b611563565b6040516107789190612f4d565b60405180910390f35b34801561078d57600080fd5b506107a860048036038101906107a39190612e1c565b611568565b005b3480156107b657600080fd5b506107d160048036038101906107cc9190613201565b61182e565b6040516107de9190612bbe565b60405180910390f35b3480156107f357600080fd5b5061080e60048036038101906108099190612e1c565b6118c2565b005b6000634906490660e01b7bffffffffffffffffffffffffffffffffffffffffffffffffffffffff1916827bffffffffffffffffffffffffffffffffffffffffffffffffffffffff1916148061086a575061086982611948565b5b9050919050565b606060018260ff160361089e576040518060a0016040528060648152602001613c6760649139905061092f565b60028260ff16036108c9576040518060a0016040528060648152602001613d2f60649139905061092f565b60038260ff16036108f4576040518060a0016040528060648152602001613ccb60649139905061092f565b6040517f08c379a00000000000000000000000000000000000000000000000000000000081526004016109269061328d565b60405180910390fd5b919050565b606060008054610943906132dc565b80601f016020809104026020016040519081016040528092919081815260200182805461096f906132dc565b80156109bc5780601f10610991576101008083540402835291602001916109bc565b820191906000526020600020905b81548152906001019060200180831161099f57829003601f168201915b5050505050905090565b60006109d182611a2a565b506109db82611ab2565b9050919050565b6109f482826109ef611aef565b611af7565b5050565b6060806000600960008573ffffffffffffffffffffffffffffffffffffffff1673ffffffffffffffffffffffffffffffffffffffff168152602001908152602001600020805480602002602001604051908101604052809291908181526020018280548015610a8657602002820191906000526020600020905b815481526020019060010190808311610a72575b505050505090506000815167ffffffffffffffff811115610aaa57610aa9613053565b5b604051908082528060200260200182016040528015610ad85781602001602082028036833780820191505090505b50905060005b8251811015610b4157600a6000848381518110610afe57610afd61330d565b5b6020026020010151815260200190815260200160002054828281518110610b2857610b2761330d565b5b6020026020010181815250508080600101915050610ade565b508181935093505050915091565b600381565b678ac7230489e8000081565b676124fee993bc000081565b600073ffffffffffffffffffffffffffffffffffffffff168273ffffffffffffffffffffffffffffffffffffffff1603610bde5760006040517f64a0ae92000000000000000000000000000000000000000000000000000000008152600401610bd59190612d95565b60405180910390fd5b6000610bf28383610bed611aef565b611b09565b90508373ffffffffffffffffffffffffffffffffffffffff168173ffffffffffffffffffffffffffffffffffffffff1614610c68578382826040517f64283d7b000000000000000000000000000000000000000000000000000000008152600401610c5f9392919061333c565b60405180910390fd5b50505050565b610c76611bd6565b600047905060008111610cbe576040517f08c379a0000000000000000000000000000000000000000000000000000000008152600401610cb5906133bf565b60405180910390fd5b6000610cc8611025565b73ffffffffffffffffffffffffffffffffffffffff1682604051610ceb90613410565b60006040518083038185875af1925050503d8060008114610d28576040519150601f19603f3d011682016040523d82523d6000602084013e610d2d565b606091505b5050905080610d71576040517f08c379a0000000000000000000000000000000000000000000000000000000008152600401610d6890613471565b60405180910390fd5b610d79611025565b73ffffffffffffffffffffffffffffffffffffffff167f7084f5476618d8e60b11ef0d7d3f06914655adb8793e28ff7f018d4c76d505d583604051610dbe9190612f4d565b60405180910390a25050565b610de583838360405180602001604052806000815250611433565b505050565b674563918244f4000081565b6040518060a0016040528060648152602001613ccb6064913981565b6060600060085490506000610e2633610f3b565b90506000808267ffffffffffffffff811115610e4557610e44613053565b5b604051908082528060200260200182016040528015610e735781602001602082028036833780820191505090505b5090506000600190505b848111610f02573373ffffffffffffffffffffffffffffffffffffffff16610ea482610f0d565b73ffffffffffffffffffffffffffffffffffffffff1603610eef5780828481518110610ed357610ed261330d565b5b602002602001018181525050600183610eec91906134c0565b92505b8080610efa906134f4565b915050610e7d565b508094505050505090565b6000610f1882611a2a565b9050919050565b6040518060a0016040528060648152602001613d2f6064913981565b60008073ffffffffffffffffffffffffffffffffffffffff168273ffffffffffffffffffffffffffffffffffffffff1603610fae5760006040517f89c62b64000000000000000000000000000000000000000000000000000000008152600401610fa59190612d95565b60405180910390fd5b600360008373ffffffffffffffffffffffffffffffffffffffff1673ffffffffffffffffffffffffffffffffffffffff168152602001908152602001600020549050919050565b610ffd611bd6565b6110076000611c5d565b565b6040518060a0016040528060648152602001613c676064913981565b6000600760009054906101000a900473ffffffffffffffffffffffffffffffffffffffff16905090565b60606001805461105e906132dc565b80601f016020809104026020016040519081016040528092919081815260200182805461108a906132dc565b80156110d75780601f106110ac576101008083540402835291602001916110d7565b820191906000526020600020905b8154815290600101906020018083116110ba57829003601f168201915b5050505050905090565b600a6020528060005260406000206000915090505481565b611101611bd6565b600073ffffffffffffffffffffffffffffffffffffffff168173ffffffffffffffffffffffffffffffffffffffff1603611170576040517f08c379a000000000000000000000000000000000000000000000000000000000815260040161116790613588565b60405180910390fd5b80600b60006101000a81548173ffffffffffffffffffffffffffffffffffffffff021916908373ffffffffffffffffffffffffffffffffffffffff1602179055508073ffffffffffffffffffffffffffffffffffffffff167f77ee8bee36a9a1f09038caf609e7e58f77c396a126be8ea2799bbebd83cb620260405160405180910390a250565b60018160ff161015801561120f575060038160ff1611155b61124e576040517f08c379a00000000000000000000000000000000000000000000000000000000081526004016112459061328d565b60405180910390fd5b60008060018360ff160361127057674563918244f400009150600390506112a0565b60028360ff160361128f57676124fee993bc000091506005905061129f565b678ac7230489e800009150600a90505b5b8134146112e2576040517f08c379a00000000000000000000000000000000000000000000000000000000081526004016112d9906135f4565b60405180910390fd5b6001600860008282546112f591906134c0565b925050819055506000600854905061130d3382611d23565b61131f8161131a86610871565b611d41565b81600a600083815260200190815260200160002081905550600960003373ffffffffffffffffffffffffffffffffffffffff1673ffffffffffffffffffffffffffffffffffffffff1681526020019081526020016000208190806001815401808255809150506001900390600052602060002001600090919091909150553373ffffffffffffffffffffffffffffffffffffffff16817f12633d699bb30c755e51947d5c1cef67124f54b7069e9196cf71da10b461cfe6846040516113e49190612f4d565b60405180910390a350505050565b6114046113fd611aef565b8383611d9d565b5050565b600b60009054906101000a900473ffffffffffffffffffffffffffffffffffffffff1681565b600581565b61143e848484610b6c565b61144a84848484611f0c565b50505050565b606061145b82611a2a565b50600060066000848152602001908152602001600020805461147c906132dc565b80601f01602080910402602001604051908101604052809291908181526020018280546114a8906132dc565b80156114f55780601f106114ca576101008083540402835291602001916114f5565b820191906000526020600020905b8154815290600101906020018083116114d857829003601f168201915b5050505050905060006115066120c3565b9050600081510361151b57819250505061155e565b600082511115611550578082604051602001611538929190613650565b6040516020818303038152906040529250505061155e565b611559846120da565b925050505b919050565b600a81565b600b60009054906101000a900473ffffffffffffffffffffffffffffffffffffffff1673ffffffffffffffffffffffffffffffffffffffff163373ffffffffffffffffffffffffffffffffffffffff16146115f8576040517f08c379a00000000000000000000000000000000000000000000000000000000081526004016115ef906136e6565b60405180910390fd5b6000600960008373ffffffffffffffffffffffffffffffffffffffff1673ffffffffffffffffffffffffffffffffffffffff16815260200190815260200160002090506000818054905011611682576040517f08c379a000000000000000000000000000000000000000000000000000000000815260040161167990613752565b60405180910390fd5b60005b81805490508110156117ef5760008282815481106116a6576116a561330d565b5b906000526020600020015490506000600a60008381526020019081526020016000205411156117e1576001600a600083815260200190815260200160002060008282546116f39190613772565b925050819055506000600a600083815260200190815260200160002054036117d95761171e81612143565b8373ffffffffffffffffffffffffffffffffffffffff16817fa0842786a23266a4cd5246cac6f0d5a7b66308b41f33765c9f324e776cab276a60405160405180910390a382600184805490506117749190613772565b815481106117855761178461330d565b5b90600052602060002001548383815481106117a3576117a261330d565b5b9060005260206000200181905550828054806117c2576117c16137a6565b5b600190038181906000526020600020016000905590555b50505061182b565b508080600101915050611685565b506040517f08c379a000000000000000000000000000000000000000000000000000000000815260040161182290613821565b60405180910390fd5b50565b6000600560008473ffffffffffffffffffffffffffffffffffffffff1673ffffffffffffffffffffffffffffffffffffffff16815260200190815260200160002060008373ffffffffffffffffffffffffffffffffffffffff1673ffffffffffffffffffffffffffffffffffffffff16815260200190815260200160002060009054906101000a900460ff16905092915050565b6118ca611bd6565b600073ffffffffffffffffffffffffffffffffffffffff168173ffffffffffffffffffffffffffffffffffffffff160361193c5760006040517f1e4fbdf70000000000000000000000000000000000000000000000000000000081526004016119339190612d95565b60405180910390fd5b61194581611c5d565b50565b60007f80ac58cd000000000000000000000000000000000000000000000000000000007bffffffffffffffffffffffffffffffffffffffffffffffffffffffff1916827bffffffffffffffffffffffffffffffffffffffffffffffffffffffff19161480611a1357507f5b5e139f000000000000000000000000000000000000000000000000000000007bffffffffffffffffffffffffffffffffffffffffffffffffffffffff1916827bffffffffffffffffffffffffffffffffffffffffffffffffffffffff1916145b80611a235750611a22826121c9565b5b9050919050565b600080611a3683612233565b9050600073ffffffffffffffffffffffffffffffffffffffff168173ffffffffffffffffffffffffffffffffffffffff1603611aa957826040517f7e273289000000000000000000000000000000000000000000000000000000008152600401611aa09190612f4d565b60405180910390fd5b80915050919050565b60006004600083815260200190815260200160002060009054906101000a900473ffffffffffffffffffffffffffffffffffffffff169050919050565b600033905090565b611b048383836001612270565b505050565b600080611b1584612233565b9050600073ffffffffffffffffffffffffffffffffffffffff168173ffffffffffffffffffffffffffffffffffffffff1614158015611b815750600073ffffffffffffffffffffffffffffffffffffffff168573ffffffffffffffffffffffffffffffffffffffff1614155b15611bc1576040517f08c379a0000000000000000000000000000000000000000000000000000000008152600401611bb89061388d565b60405180910390fd5b611bcc858585612435565b9150509392505050565b611bde611aef565b73ffffffffffffffffffffffffffffffffffffffff16611bfc611025565b73ffffffffffffffffffffffffffffffffffffffff1614611c5b57611c1f611aef565b6040517f118cdaa7000000000000000000000000000000000000000000000000000000008152600401611c529190612d95565b60405180910390fd5b565b6000600760009054906101000a900473ffffffffffffffffffffffffffffffffffffffff16905081600760006101000a81548173ffffffffffffffffffffffffffffffffffffffff021916908373ffffffffffffffffffffffffffffffffffffffff1602179055508173ffffffffffffffffffffffffffffffffffffffff168173ffffffffffffffffffffffffffffffffffffffff167f8be0079c531659141344cd1fd0a4f28419497f9722a3daafe3b4186f6b6457e060405160405180910390a35050565b611d3d82826040518060200160405280600081525061264f565b5050565b80600660008481526020019081526020016000209081611d619190613a59565b507ff8e1a15aba9398e019f0b49df1a4fde98ee17ae345cb5f6b5e2c27f5033e8ce782604051611d919190612f4d565b60405180910390a15050565b600073ffffffffffffffffffffffffffffffffffffffff168273ffffffffffffffffffffffffffffffffffffffff1603611e0e57816040517f5b08ba18000000000000000000000000000000000000000000000000000000008152600401611e059190612d95565b60405180910390fd5b80600560008573ffffffffffffffffffffffffffffffffffffffff1673ffffffffffffffffffffffffffffffffffffffff16815260200190815260200160002060008473ffffffffffffffffffffffffffffffffffffffff1673ffffffffffffffffffffffffffffffffffffffff16815260200190815260200160002060006101000a81548160ff0219169083151502179055508173ffffffffffffffffffffffffffffffffffffffff168373ffffffffffffffffffffffffffffffffffffffff167f17307eab39ab6107e8899845ad3d59bd9653f200f220920489ca2b5937696c3183604051611eff9190612bbe565b60405180910390a3505050565b60008373ffffffffffffffffffffffffffffffffffffffff163b11156120bd578273ffffffffffffffffffffffffffffffffffffffff1663150b7a02611f50611aef565b8685856040518563ffffffff1660e01b8152600401611f729493929190613b80565b6020604051808303816000875af1925050508015611fae57506040513d601f19601f82011682018060405250810190611fab9190613be1565b60015b612032573d8060008114611fde576040519150601f19603f3d011682016040523d82523d6000602084013e611fe3565b606091505b50600081510361202a57836040517f64a0ae920000000000000000000000000000000000000000000000000000000081526004016120219190612d95565b60405180910390fd5b805181602001fd5b63150b7a0260e01b7bffffffffffffffffffffffffffffffffffffffffffffffffffffffff1916817bffffffffffffffffffffffffffffffffffffffffffffffffffffffff1916146120bb57836040517f64a0ae920000000000000000000000000000000000000000000000000000000081526004016120b29190612d95565b60405180910390fd5b505b50505050565b606060405180602001604052806000815250905090565b60606120e582611a2a565b5060006120f06120c3565b90506000815111612110576040518060200160405280600081525061213b565b8061211a8461266b565b60405160200161212b929190613650565b6040516020818303038152906040525b915050919050565b60006121526000836000611b09565b9050600073ffffffffffffffffffffffffffffffffffffffff168173ffffffffffffffffffffffffffffffffffffffff16036121c557816040517f7e2732890000000000000000000000000000000000000000000000000000000081526004016121bc9190612f4d565b60405180910390fd5b5050565b60007f01ffc9a7000000000000000000000000000000000000000000000000000000007bffffffffffffffffffffffffffffffffffffffffffffffffffffffff1916827bffffffffffffffffffffffffffffffffffffffffffffffffffffffff1916149050919050565b60006002600083815260200190815260200160002060009054906101000a900473ffffffffffffffffffffffffffffffffffffffff169050919050565b80806122a95750600073ffffffffffffffffffffffffffffffffffffffff168273ffffffffffffffffffffffffffffffffffffffff1614155b156123dd5760006122b984611a2a565b9050600073ffffffffffffffffffffffffffffffffffffffff168373ffffffffffffffffffffffffffffffffffffffff161415801561232457508273ffffffffffffffffffffffffffffffffffffffff168173ffffffffffffffffffffffffffffffffffffffff1614155b80156123375750612335818461182e565b155b1561237957826040517fa9fbf51f0000000000000000000000000000000000000000000000000000000081526004016123709190612d95565b60405180910390fd5b81156123db57838573ffffffffffffffffffffffffffffffffffffffff168273ffffffffffffffffffffffffffffffffffffffff167f8c5be1e5ebec7d5bd14f71427d1e84f3dd0314c0f7b2291e5b200ac8c7c3b92560405160405180910390a45b505b836004600085815260200190815260200160002060006101000a81548173ffffffffffffffffffffffffffffffffffffffff021916908373ffffffffffffffffffffffffffffffffffffffff16021790555050505050565b60008061244184612233565b9050600073ffffffffffffffffffffffffffffffffffffffff168373ffffffffffffffffffffffffffffffffffffffff161461248357612482818486612739565b5b600073ffffffffffffffffffffffffffffffffffffffff168173ffffffffffffffffffffffffffffffffffffffff1614612514576124c5600085600080612270565b6001600360008373ffffffffffffffffffffffffffffffffffffffff1673ffffffffffffffffffffffffffffffffffffffff168152602001908152602001600020600082825403925050819055505b600073ffffffffffffffffffffffffffffffffffffffff168573ffffffffffffffffffffffffffffffffffffffff1614612597576001600360008773ffffffffffffffffffffffffffffffffffffffff1673ffffffffffffffffffffffffffffffffffffffff168152602001908152602001600020600082825401925050819055505b846002600086815260200190815260200160002060006101000a81548173ffffffffffffffffffffffffffffffffffffffff021916908373ffffffffffffffffffffffffffffffffffffffff160217905550838573ffffffffffffffffffffffffffffffffffffffff168273ffffffffffffffffffffffffffffffffffffffff167fddf252ad1be2c89b69c2b068fc378daa952ba7f163c4a11628f55a4df523b3ef60405160405180910390a4809150509392505050565b61265983836127fd565b6126666000848484611f0c565b505050565b60606000600161267a846128f6565b01905060008167ffffffffffffffff81111561269957612698613053565b5b6040519080825280601f01601f1916602001820160405280156126cb5781602001600182028036833780820191505090505b509050600082602001820190505b60011561272e578080600190039150507f3031323334353637383961626364656600000000000000000000000000000000600a86061a8153600a858161272257612721613c0e565b5b049450600085036126d9575b819350505050919050565b612744838383612a49565b6127f857600073ffffffffffffffffffffffffffffffffffffffff168373ffffffffffffffffffffffffffffffffffffffff16036127b957806040517f7e2732890000000000000000000000000000000000000000000000000000000081526004016127b09190612f4d565b60405180910390fd5b81816040517f177e802f0000000000000000000000000000000000000000000000000000000081526004016127ef929190613c3d565b60405180910390fd5b505050565b600073ffffffffffffffffffffffffffffffffffffffff168273ffffffffffffffffffffffffffffffffffffffff160361286f5760006040517f64a0ae920000000000000000000000000000000000000000000000000000000081526004016128669190612d95565b60405180910390fd5b600061287d83836000611b09565b9050600073ffffffffffffffffffffffffffffffffffffffff168173ffffffffffffffffffffffffffffffffffffffff16146128f15760006040517f73c6ac6e0000000000000000000000000000000000000000000000000000000081526004016128e89190612d95565b60405180910390fd5b505050565b600080600090507a184f03e93ff9f4daa797ed6e38ed64bf6a1f0100000000000000008310612954577a184f03e93ff9f4daa797ed6e38ed64bf6a1f010000000000000000838161294a57612949613c0e565b5b0492506040810190505b6d04ee2d6d415b85acef81000000008310612991576d04ee2d6d415b85acef8100000000838161298757612986613c0e565b5b0492506020810190505b662386f26fc1000083106129c057662386f26fc1000083816129b6576129b5613c0e565b5b0492506010810190505b6305f5e10083106129e9576305f5e10083816129df576129de613c0e565b5b0492506008810190505b6127108310612a0e576127108381612a0457612a03613c0e565b5b0492506004810190505b60648310612a315760648381612a2757612a26613c0e565b5b0492506002810190505b600a8310612a40576001810190505b80915050919050565b60008073ffffffffffffffffffffffffffffffffffffffff168373ffffffffffffffffffffffffffffffffffffffff1614158015612b0157508273ffffffffffffffffffffffffffffffffffffffff168473ffffffffffffffffffffffffffffffffffffffff161480612ac25750612ac1848461182e565b5b80612b0057508273ffffffffffffffffffffffffffffffffffffffff16612ae883611ab2565b73ffffffffffffffffffffffffffffffffffffffff16145b5b90509392505050565b6000604051905090565b600080fd5b600080fd5b60007fffffffff0000000000000000000000000000000000000000000000000000000082169050919050565b612b5381612b1e565b8114612b5e57600080fd5b50565b600081359050612b7081612b4a565b92915050565b600060208284031215612b8c57612b8b612b14565b5b6000612b9a84828501612b61565b91505092915050565b60008115159050919050565b612bb881612ba3565b82525050565b6000602082019050612bd36000830184612baf565b92915050565b600060ff82169050919050565b612bef81612bd9565b8114612bfa57600080fd5b50565b600081359050612c0c81612be6565b92915050565b600060208284031215612c2857612c27612b14565b5b6000612c3684828501612bfd565b91505092915050565b600081519050919050565b600082825260208201905092915050565b60005b83811015612c79578082015181840152602081019050612c5e565b60008484015250505050565b6000601f19601f8301169050919050565b6000612ca182612c3f565b612cab8185612c4a565b9350612cbb818560208601612c5b565b612cc481612c85565b840191505092915050565b60006020820190508181036000830152612ce98184612c96565b905092915050565b6000819050919050565b612d0481612cf1565b8114612d0f57600080fd5b50565b600081359050612d2181612cfb565b92915050565b600060208284031215612d3d57612d3c612b14565b5b6000612d4b84828501612d12565b91505092915050565b600073ffffffffffffffffffffffffffffffffffffffff82169050919050565b6000612d7f82612d54565b9050919050565b612d8f81612d74565b82525050565b6000602082019050612daa6000830184612d86565b92915050565b612db981612d74565b8114612dc457600080fd5b50565b600081359050612dd681612db0565b92915050565b60008060408385031215612df357612df2612b14565b5b6000612e0185828601612dc7565b9250506020612e1285828601612d12565b9150509250929050565b600060208284031215612e3257612e31612b14565b5b6000612e4084828501612dc7565b91505092915050565b600081519050919050565b600082825260208201905092915050565b6000819050602082019050919050565b612e7e81612cf1565b82525050565b6000612e908383612e75565b60208301905092915050565b6000602082019050919050565b6000612eb482612e49565b612ebe8185612e54565b9350612ec983612e65565b8060005b83811015612efa578151612ee18882612e84565b9750612eec83612e9c565b925050600181019050612ecd565b5085935050505092915050565b60006040820190508181036000830152612f218185612ea9565b90508181036020830152612f358184612ea9565b90509392505050565b612f4781612cf1565b82525050565b6000602082019050612f626000830184612f3e565b92915050565b600080600060608486031215612f8157612f80612b14565b5b6000612f8f86828701612dc7565b9350506020612fa086828701612dc7565b9250506040612fb186828701612d12565b9150509250925092565b60006020820190508181036000830152612fd58184612ea9565b905092915050565b612fe681612ba3565b8114612ff157600080fd5b50565b60008135905061300381612fdd565b92915050565b600080604083850312156130205761301f612b14565b5b600061302e85828601612dc7565b925050602061303f85828601612ff4565b9150509250929050565b600080fd5b600080fd5b7f4e487b7100000000000000000000000000000000000000000000000000000000600052604160045260246000fd5b61308b82612c85565b810181811067ffffffffffffffff821117156130aa576130a9613053565b5b80604052505050565b60006130bd612b0a565b90506130c98282613082565b919050565b600067ffffffffffffffff8211156130e9576130e8613053565b5b6130f282612c85565b9050602081019050919050565b82818337600083830152505050565b600061312161311c846130ce565b6130b3565b90508281526020810184848401111561313d5761313c61304e565b5b6131488482856130ff565b509392505050565b600082601f83011261316557613164613049565b5b813561317584826020860161310e565b91505092915050565b6000806000806080858703121561319857613197612b14565b5b60006131a687828801612dc7565b94505060206131b787828801612dc7565b93505060406131c887828801612d12565b925050606085013567ffffffffffffffff8111156131e9576131e8612b19565b5b6131f587828801613150565b91505092959194509250565b6000806040838503121561321857613217612b14565b5b600061322685828601612dc7565b925050602061323785828601612dc7565b9150509250929050565b7f496e76616c696420746965722073656c65637465640000000000000000000000600082015250565b6000613277601583612c4a565b915061328282613241565b602082019050919050565b600060208201905081810360008301526132a68161326a565b9050919050565b7f4e487b7100000000000000000000000000000000000000000000000000000000600052602260045260246000fd5b600060028204905060018216806132f457607f821691505b602082108103613307576133066132ad565b5b50919050565b7f4e487b7100000000000000000000000000000000000000000000000000000000600052603260045260246000fd5b60006060820190506133516000830186612d86565b61335e6020830185612f3e565b61336b6040830184612d86565b949350505050565b7f4e6f2066756e647320746f207769746864726177000000000000000000000000600082015250565b60006133a9601483612c4a565b91506133b482613373565b602082019050919050565b600060208201905081810360008301526133d88161339c565b9050919050565b600081905092915050565b50565b60006133fa6000836133df565b9150613405826133ea565b600082019050919050565b600061341b826133ed565b9150819050919050565b7f5769746864726177616c206661696c6564000000000000000000000000000000600082015250565b600061345b601183612c4a565b915061346682613425565b602082019050919050565b6000602082019050818103600083015261348a8161344e565b9050919050565b7f4e487b7100000000000000000000000000000000000000000000000000000000600052601160045260246000fd5b60006134cb82612cf1565b91506134d683612cf1565b92508282019050808211156134ee576134ed613491565b5b92915050565b60006134ff82612cf1565b91507fffffffffffffffffffffffffffffffffffffffffffffffffffffffffffffffff820361353157613530613491565b5b600182019050919050565b7f496e76616c696420616464726573730000000000000000000000000000000000600082015250565b6000613572600f83612c4a565b915061357d8261353c565b602082019050919050565b600060208201905081810360008301526135a181613565565b9050919050565b7f496e636f7272656374207061796d656e7420616d6f756e740000000000000000600082015250565b60006135de601883612c4a565b91506135e9826135a8565b602082019050919050565b6000602082019050818103600083015261360d816135d1565b9050919050565b600081905092915050565b600061362a82612c3f565b6136348185613614565b9350613644818560208601612c5b565b80840191505092915050565b600061365c828561361f565b9150613668828461361f565b91508190509392505050565b7f43616c6c6572206973206e6f742074686520617574686f72697a656420636f6e60008201527f7472616374000000000000000000000000000000000000000000000000000000602082015250565b60006136d0602583612c4a565b91506136db82613674565b604082019050919050565b600060208201905081810360008301526136ff816136c3565b9050919050565b7f5573657220646f6573206e6f74206f776e20616e79206772616e747300000000600082015250565b600061373c601c83612c4a565b915061374782613706565b602082019050919050565b6000602082019050818103600083015261376b8161372f565b9050919050565b600061377d82612cf1565b915061378883612cf1565b92508282039050818111156137a05761379f613491565b5b92915050565b7f4e487b7100000000000000000000000000000000000000000000000000000000600052603160045260246000fd5b7f4e6f206d696e74696e6720726967687473206c65667420666f72207573657200600082015250565b600061380b601f83612c4a565b9150613816826137d5565b602082019050919050565b6000602082019050818103600083015261383a816137fe565b9050919050565b7f536f756c626f756e643a205472616e73666572206661696c6564000000000000600082015250565b6000613877601a83612c4a565b915061388282613841565b602082019050919050565b600060208201905081810360008301526138a68161386a565b9050919050565b60008190508160005260206000209050919050565b60006020601f8301049050919050565b600082821b905092915050565b60006008830261390f7fffffffffffffffffffffffffffffffffffffffffffffffffffffffffffffffff826138d2565b61391986836138d2565b95508019841693508086168417925050509392505050565b6000819050919050565b600061395661395161394c84612cf1565b613931565b612cf1565b9050919050565b6000819050919050565b6139708361393b565b61398461397c8261395d565b8484546138df565b825550505050565b600090565b61399961398c565b6139a4818484613967565b505050565b5b818110156139c8576139bd600082613991565b6001810190506139aa565b5050565b601f821115613a0d576139de816138ad565b6139e7846138c2565b810160208510156139f6578190505b613a0a613a02856138c2565b8301826139a9565b50505b505050565b600082821c905092915050565b6000613a3060001984600802613a12565b1980831691505092915050565b6000613a498383613a1f565b9150826002028217905092915050565b613a6282612c3f565b67ffffffffffffffff811115613a7b57613a7a613053565b5b613a8582546132dc565b613a908282856139cc565b600060209050601f831160018114613ac35760008415613ab1578287015190505b613abb8582613a3d565b865550613b23565b601f198416613ad1866138ad565b60005b82811015613af957848901518255600182019150602085019450602081019050613ad4565b86831015613b165784890151613b12601f891682613a1f565b8355505b6001600288020188555050505b505050505050565b600081519050919050565b600082825260208201905092915050565b6000613b5282613b2b565b613b5c8185613b36565b9350613b6c818560208601612c5b565b613b7581612c85565b840191505092915050565b6000608082019050613b956000830187612d86565b613ba26020830186612d86565b613baf6040830185612f3e565b8181036060830152613bc18184613b47565b905095945050505050565b600081519050613bdb81612b4a565b92915050565b600060208284031215613bf757613bf6612b14565b5b6000613c0584828501613bcc565b91505092915050565b7f4e487b7100000000000000000000000000000000000000000000000000000000600052601260045260246000fd5b6000604082019050613c526000830185612d86565b613c5f6020830184612f3e565b939250505056fe68747470733a2f2f62656967652d61647669736f72792d6d617274656e2d3337352e6d7970696e6174612e636c6f75642f697066732f516d51746d4e486b5a674a71436874616d4e524d53717a444e445a42756466655177366d744752396e735936426768747470733a2f2f62656967652d61647669736f72792d6d617274656e2d3337352e6d7970696e6174612e636c6f75642f697066732f516d646e4248617a744a47545138377169387538734137414566574a5657774c77654665787458484a4c3332615668747470733a2f2f62656967652d61647669736f72792d6d617274656e2d3337352e6d7970696e6174612e636c6f75642f697066732f516d654c6442486143577a78676f345646785165686d7147697772396a51575079624a616d4a5a6f627879545843a26469706673582212202f2d53fa7545c68c2453a75207a198dd0fb59b8641a5535d3e3cf8c55552ba4964736f6c634300081b0033",
  "linkReferences": {},
  "deployedLinkReferences": {}
}