{
  "_format": "hh-sol-artifact-1",
  "contractName": "NFTMarketplace",
  "sourceName": "contracts/NFTMarketplace.sol",
  "abi": [
    {
      "inputs": [],
      "stateMutability": "nonpayable",
      "type": "constructor"
    },
    {
      "inputs": [
        {
          "internalType": "address",
          "name": "sender",
          "type": "address"
        },
        {
          "internalType": "uint256",
          "name": "tokenId",
          "type": "uint256"
        },
        {
          "internalType": "address",
          "name": "owner",
          "type": "address"
        }
      ],
      "name": "ERC721IncorrectOwner",
      "type": "error"
    },
    {
      "inputs": [
        {
          "internalType": "address",
          "name": "operator",
          "type": "address"
        },
        {
          "internalType": "uint256",
          "name": "tokenId",
          "type": "uint256"
        }
      ],
      "name": "ERC721InsufficientApproval",
      "type": "error"
    },
    {
      "inputs": [
        {
          "internalType": "address",
          "name": "approver",
          "type": "address"
        }
      ],
      "name": "ERC721InvalidApprover",
      "type": "error"
    },
    {
      "inputs": [
        {
          "internalType": "address",
          "name": "operator",
          "type": "address"
        }
      ],
      "name": "ERC721InvalidOperator",
      "type": "error"
    },
    {
      "inputs": [
        {
          "internalType": "address",
          "name": "owner",
          "type": "address"
        }
      ],
      "name": "ERC721InvalidOwner",
      "type": "error"
    },
    {
      "inputs": [
        {
          "internalType": "address",
          "name": "receiver",
          "type": "address"
        }
      ],
      "name": "ERC721InvalidReceiver",
      "type": "error"
    },
    {
      "inputs": [
        {
          "internalType": "address",
          "name": "sender",
          "type": "address"
        }
      ],
      "name": "ERC721InvalidSender",
      "type": "error"
    },
    {
      "inputs": [
        {
          "internalType": "uint256",
          "name": "tokenId",
          "type": "uint256"
        }
      ],
      "name": "ERC721NonexistentToken",
      "type": "error"
    },
    {
      "inputs": [],
      "name": "ReentrancyGuardReentrantCall",
      "type": "error"
    },
    {
      "anonymous": false,
      "inputs": [
        {
          "indexed": true,
          "internalType": "address",
          "name": "adminAddress",
          "type": "address"
        }
      ],
      "name": "AdminAddressSet",
      "type": "event"
    },
    {
      "anonymous": false,
      "inputs": [
        {
          "indexed": true,
          "internalType": "address",
          "name": "owner",
          "type": "address"
        },
        {
          "indexed": true,
          "internalType": "address",
          "name": "approved",
          "type": "address"
        },
        {
          "indexed": true,
          "internalType": "uint256",
          "name": "tokenId",
          "type": "uint256"
        }
      ],
      "name": "Approval",
      "type": "event"
    },
    {
      "anonymous": false,
      "inputs": [
        {
          "indexed": true,
          "internalType": "address",
          "name": "owner",
          "type": "address"
        },
        {
          "indexed": true,
          "internalType": "address",
          "name": "operator",
          "type": "address"
        },
        {
          "indexed": false,
          "internalType": "bool",
          "name": "approved",
          "type": "bool"
        }
      ],
      "name": "ApprovalForAll",
      "type": "event"
    },
    {
      "anonymous": false,
      "inputs": [
        {
          "indexed": false,
          "internalType": "uint256",
          "name": "_fromTokenId",
          "type": "uint256"
        },
        {
          "indexed": false,
          "internalType": "uint256",
          "name": "_toTokenId",
          "type": "uint256"
        }
      ],
      "name": "BatchMetadataUpdate",
      "type": "event"
    },
    {
      "anonymous": false,
      "inputs": [
        {
          "indexed": true,
          "internalType": "address",
          "name": "user",
          "type": "address"
        },
        {
          "indexed": false,
          "internalType": "uint256",
          "name": "amount",
          "type": "uint256"
        }
      ],
      "name": "FeesWithdrawn",
      "type": "event"
    },
    {
      "anonymous": false,
      "inputs": [
        {
          "indexed": true,
          "internalType": "address",
          "name": "seller",
          "type": "address"
        },
        {
          "indexed": false,
          "internalType": "uint256",
          "name": "amount",
          "type": "uint256"
        }
      ],
      "name": "FundsWithdrawn",
      "type": "event"
    },
    {
      "anonymous": false,
      "inputs": [
        {
          "indexed": true,
          "internalType": "uint256",
          "name": "tokenId",
          "type": "uint256"
        },
        {
          "indexed": true,
          "internalType": "address",
          "name": "owner",
          "type": "address"
        }
      ],
      "name": "MarketItemBurned",
      "type": "event"
    },
    {
      "anonymous": false,
      "inputs": [
        {
          "indexed": true,
          "internalType": "uint256",
          "name": "tokenId",
          "type": "uint256"
        },
        {
          "indexed": false,
          "internalType": "address",
          "name": "seller",
          "type": "address"
        },
        {
          "indexed": false,
          "internalType": "address",
          "name": "owner",
          "type": "address"
        },
        {
          "indexed": false,
          "internalType": "uint256",
          "name": "price",
          "type": "uint256"
        },
        {
          "indexed": false,
          "internalType": "bool",
          "name": "sold",
          "type": "bool"
        }
      ],
      "name": "MarketItemCreated",
      "type": "event"
    },
    {
      "anonymous": false,
      "inputs": [
        {
          "indexed": true,
          "internalType": "uint256",
          "name": "tokenId",
          "type": "uint256"
        },
        {
          "indexed": false,
          "internalType": "address",
          "name": "seller",
          "type": "address"
        },
        {
          "indexed": false,
          "internalType": "uint256",
          "name": "newPrice",
          "type": "uint256"
        }
      ],
      "name": "MarketItemPriceUpdated",
      "type": "event"
    },
    {
      "anonymous": false,
      "inputs": [
        {
          "indexed": true,
          "internalType": "uint256",
          "name": "tokenId",
          "type": "uint256"
        },
        {
          "indexed": false,
          "internalType": "address",
          "name": "seller",
          "type": "address"
        },
        {
          "indexed": false,
          "internalType": "uint256",
          "name": "price",
          "type": "uint256"
        }
      ],
      "name": "MarketItemRelisted",
      "type": "event"
    },
    {
      "anonymous": false,
      "inputs": [
        {
          "indexed": true,
          "internalType": "uint256",
          "name": "tokenId",
          "type": "uint256"
        },
        {
          "indexed": false,
          "internalType": "address",
          "name": "seller",
          "type": "address"
        }
      ],
      "name": "MarketItemRemoved",
      "type": "event"
    },
    {
      "anonymous": false,
      "inputs": [
        {
          "indexed": true,
          "internalType": "uint256",
          "name": "tokenId",
          "type": "uint256"
        },
        {
          "indexed": false,
          "internalType": "address",
          "name": "seller",
          "type": "address"
        },
        {
          "indexed": false,
          "internalType": "address",
          "name": "buyer",
          "type": "address"
        },
        {
          "indexed": false,
          "internalType": "uint256",
          "name": "price",
          "type": "uint256"
        }
      ],
      "name": "MarketItemSold",
      "type": "event"
    },
    {
      "anonymous": false,
      "inputs": [
        {
          "indexed": true,
          "internalType": "uint256",
          "name": "tokenId",
          "type": "uint256"
        },
        {
          "indexed": false,
          "internalType": "address",
          "name": "from",
          "type": "address"
        },
        {
          "indexed": false,
          "internalType": "address",
          "name": "to",
          "type": "address"
        }
      ],
      "name": "MarketItemTransferred",
      "type": "event"
    },
    {
      "anonymous": false,
      "inputs": [
        {
          "indexed": true,
          "internalType": "address",
          "name": "marketplaceAddress",
          "type": "address"
        }
      ],
      "name": "MarketplaceAddressSet",
      "type": "event"
    },
    {
      "anonymous": false,
      "inputs": [
        {
          "indexed": false,
          "internalType": "uint256",
          "name": "_tokenId",
          "type": "uint256"
        }
      ],
      "name": "MetadataUpdate",
      "type": "event"
    },
    {
      "anonymous": false,
      "inputs": [
        {
          "indexed": true,
          "internalType": "uint256",
          "name": "tokenId",
          "type": "uint256"
        },
        {
          "indexed": false,
          "internalType": "address",
          "name": "owner",
          "type": "address"
        }
      ],
      "name": "TokenCreated",
      "type": "event"
    },
    {
      "anonymous": false,
      "inputs": [
        {
          "indexed": true,
          "internalType": "address",
          "name": "from",
          "type": "address"
        },
        {
          "indexed": true,
          "internalType": "address",
          "name": "to",
          "type": "address"
        },
        {
          "indexed": true,
          "internalType": "uint256",
          "name": "tokenId",
          "type": "uint256"
        }
      ],
      "name": "Transfer",
      "type": "event"
    },
    {
      "inputs": [],
      "name": "adminAddress",
      "outputs": [
        {
          "internalType": "address",
          "name": "",
          "type": "address"
        }
      ],
      "stateMutability": "view",
      "type": "function"
    },
    {
      "inputs": [
        {
          "internalType": "address",
          "name": "to",
          "type": "address"
        },
        {
          "internalType": "uint256",
          "name": "tokenId",
          "type": "uint256"
        }
      ],
      "name": "approve",
      "outputs": [],
      "stateMutability": "nonpayable",
      "type": "function"
    },
    {
      "inputs": [
        {
          "internalType": "address",
          "name": "owner",
          "type": "address"
        }
      ],
      "name": "balanceOf",
      "outputs": [
        {
          "internalType": "uint256",
          "name": "",
          "type": "uint256"
        }
      ],
      "stateMutability": "view",
      "type": "function"
    },
    {
      "inputs": [
        {
          "internalType": "uint256",
          "name": "tokenId",
          "type": "uint256"
        },
        {
          "internalType": "uint256",
          "name": "newPrice",
          "type": "uint256"
        }
      ],
      "name": "changePrice",
      "outputs": [],
      "stateMutability": "nonpayable",
      "type": "function"
    },
    {
      "inputs": [
        {
          "internalType": "uint256",
          "name": "tokenId",
          "type": "uint256"
        }
      ],
      "name": "createMarketSale",
      "outputs": [],
      "stateMutability": "payable",
      "type": "function"
    },
    {
      "inputs": [
        {
          "internalType": "string",
          "name": "tokenURI",
          "type": "string"
        },
        {
          "internalType": "uint256",
          "name": "price",
          "type": "uint256"
        }
      ],
      "name": "createToken",
      "outputs": [
        {
          "internalType": "uint256",
          "name": "",
          "type": "uint256"
        }
      ],
      "stateMutability": "payable",
      "type": "function"
    },
    {
      "inputs": [
        {
          "internalType": "uint256",
          "name": "tokenId",
          "type": "uint256"
        }
      ],
      "name": "externalBurnUpdate",
      "outputs": [],
      "stateMutability": "nonpayable",
      "type": "function"
    },
    {
      "inputs": [
        {
          "internalType": "address",
          "name": "from",
          "type": "address"
        },
        {
          "internalType": "address",
          "name": "to",
          "type": "address"
        },
        {
          "internalType": "uint256",
          "name": "tokenId",
          "type": "uint256"
        }
      ],
      "name": "externalTransferUpdate",
      "outputs": [],
      "stateMutability": "nonpayable",
      "type": "function"
    },
    {
      "inputs": [],
      "name": "fetchItemsListed",
      "outputs": [
        {
          "components": [
            {
              "internalType": "uint256",
              "name": "tokenId",
              "type": "uint256"
            },
            {
              "internalType": "address payable",
              "name": "seller",
              "type": "address"
            },
            {
              "internalType": "address payable",
              "name": "owner",
              "type": "address"
            },
            {
              "internalType": "uint256",
              "name": "price",
              "type": "uint256"
            },
            {
              "internalType": "bool",
              "name": "sold",
              "type": "bool"
            }
          ],
          "internalType": "struct NFTMarketplace.MarketItem[]",
          "name": "",
          "type": "tuple[]"
        }
      ],
      "stateMutability": "view",
      "type": "function"
    },
    {
      "inputs": [],
      "name": "fetchMarketItems",
      "outputs": [
        {
          "components": [
            {
              "internalType": "uint256",
              "name": "tokenId",
              "type": "uint256"
            },
            {
              "internalType": "address payable",
              "name": "seller",
              "type": "address"
            },
            {
              "internalType": "address payable",
              "name": "owner",
              "type": "address"
            },
            {
              "internalType": "uint256",
              "name": "price",
              "type": "uint256"
            },
            {
              "internalType": "bool",
              "name": "sold",
              "type": "bool"
            }
          ],
          "internalType": "struct NFTMarketplace.MarketItem[]",
          "name": "",
          "type": "tuple[]"
        }
      ],
      "stateMutability": "view",
      "type": "function"
    },
    {
      "inputs": [],
      "name": "fetchMyNFTs",
      "outputs": [
        {
          "components": [
            {
              "internalType": "uint256",
              "name": "tokenId",
              "type": "uint256"
            },
            {
              "internalType": "address payable",
              "name": "seller",
              "type": "address"
            },
            {
              "internalType": "address payable",
              "name": "owner",
              "type": "address"
            },
            {
              "internalType": "uint256",
              "name": "price",
              "type": "uint256"
            },
            {
              "internalType": "bool",
              "name": "sold",
              "type": "bool"
            }
          ],
          "internalType": "struct NFTMarketplace.MarketItem[]",
          "name": "",
          "type": "tuple[]"
        }
      ],
      "stateMutability": "view",
      "type": "function"
    },
    {
      "inputs": [
        {
          "internalType": "uint256",
          "name": "tokenId",
          "type": "uint256"
        }
      ],
      "name": "getApproved",
      "outputs": [
        {
          "internalType": "address",
          "name": "",
          "type": "address"
        }
      ],
      "stateMutability": "view",
      "type": "function"
    },
    {
      "inputs": [],
      "name": "getListingPrice",
      "outputs": [
        {
          "internalType": "uint256",
          "name": "",
          "type": "uint256"
        }
      ],
      "stateMutability": "view",
      "type": "function"
    },
    {
      "inputs": [],
      "name": "grantContract",
      "outputs": [
        {
          "internalType": "contract IGrantContract",
          "name": "",
          "type": "address"
        }
      ],
      "stateMutability": "view",
      "type": "function"
    },
    {
      "inputs": [
        {
          "internalType": "address",
          "name": "from",
          "type": "address"
        },
        {
          "internalType": "uint256",
          "name": "tokenId",
          "type": "uint256"
        }
      ],
      "name": "internalBurnToken",
      "outputs": [],
      "stateMutability": "nonpayable",
      "type": "function"
    },
    {
      "inputs": [
        {
          "internalType": "address",
          "name": "from",
          "type": "address"
        },
        {
          "internalType": "address",
          "name": "to",
          "type": "address"
        },
        {
          "internalType": "uint256",
          "name": "tokenId",
          "type": "uint256"
        }
      ],
      "name": "internalTransferToken",
      "outputs": [],
      "stateMutability": "nonpayable",
      "type": "function"
    },
    {
      "inputs": [
        {
          "internalType": "address",
          "name": "owner",
          "type": "address"
        },
        {
          "internalType": "address",
          "name": "operator",
          "type": "address"
        }
      ],
      "name": "isApprovedForAll",
      "outputs": [
        {
          "internalType": "bool",
          "name": "",
          "type": "bool"
        }
      ],
      "stateMutability": "view",
      "type": "function"
    },
    {
      "inputs": [],
      "name": "listingPrice",
      "outputs": [
        {
          "internalType": "uint256",
          "name": "",
          "type": "uint256"
        }
      ],
      "stateMutability": "view",
      "type": "function"
    },
    {
      "inputs": [],
      "name": "marketplaceAddress",
      "outputs": [
        {
          "internalType": "address",
          "name": "",
          "type": "address"
        }
      ],
      "stateMutability": "view",
      "type": "function"
    },
    {
      "inputs": [],
      "name": "name",
      "outputs": [
        {
          "internalType": "string",
          "name": "",
          "type": "string"
        }
      ],
      "stateMutability": "view",
      "type": "function"
    },
    {
      "inputs": [],
      "name": "owner",
      "outputs": [
        {
          "internalType": "address payable",
          "name": "",
          "type": "address"
        }
      ],
      "stateMutability": "view",
      "type": "function"
    },
    {
      "inputs": [
        {
          "internalType": "uint256",
          "name": "tokenId",
          "type": "uint256"
        }
      ],
      "name": "ownerOf",
      "outputs": [
        {
          "internalType": "address",
          "name": "",
          "type": "address"
        }
      ],
      "stateMutability": "view",
      "type": "function"
    },
    {
      "inputs": [
        {
          "internalType": "uint256",
          "name": "tokenId",
          "type": "uint256"
        }
      ],
      "name": "removeMarketItem",
      "outputs": [],
      "stateMutability": "nonpayable",
      "type": "function"
    },
    {
      "inputs": [
        {
          "internalType": "uint256",
          "name": "tokenId",
          "type": "uint256"
        },
        {
          "internalType": "uint256",
          "name": "price",
          "type": "uint256"
        }
      ],
      "name": "resellToken",
      "outputs": [],
      "stateMutability": "payable",
      "type": "function"
    },
    {
      "inputs": [
        {
          "internalType": "address",
          "name": "from",
          "type": "address"
        },
        {
          "internalType": "address",
          "name": "to",
          "type": "address"
        },
        {
          "internalType": "uint256",
          "name": "tokenId",
          "type": "uint256"
        }
      ],
      "name": "safeTransferFrom",
      "outputs": [],
      "stateMutability": "nonpayable",
      "type": "function"
    },
    {
      "inputs": [
        {
          "internalType": "address",
          "name": "from",
          "type": "address"
        },
        {
          "internalType": "address",
          "name": "to",
          "type": "address"
        },
        {
          "internalType": "uint256",
          "name": "tokenId",
          "type": "uint256"
        },
        {
          "internalType": "bytes",
          "name": "data",
          "type": "bytes"
        }
      ],
      "name": "safeTransferFrom",
      "outputs": [],
      "stateMutability": "nonpayable",
      "type": "function"
    },
    {
      "inputs": [
        {
          "internalType": "address",
          "name": "_adminAddress",
          "type": "address"
        }
      ],
      "name": "setAdminAddress",
      "outputs": [],
      "stateMutability": "nonpayable",
      "type": "function"
    },
    {
      "inputs": [
        {
          "internalType": "address",
          "name": "operator",
          "type": "address"
        },
        {
          "internalType": "bool",
          "name": "approved",
          "type": "bool"
        }
      ],
      "name": "setApprovalForAll",
      "outputs": [],
      "stateMutability": "nonpayable",
      "type": "function"
    },
    {
      "inputs": [
        {
          "internalType": "address",
          "name": "_grantContract",
          "type": "address"
        }
      ],
      "name": "setGrantContract",
      "outputs": [],
      "stateMutability": "nonpayable",
      "type": "function"
    },
    {
      "inputs": [
        {
          "internalType": "address",
          "name": "_marketplaceAddress",
          "type": "address"
        }
      ],
      "name": "setMarketplaceAddress",
      "outputs": [],
      "stateMutability": "nonpayable",
      "type": "function"
    },
    {
      "inputs": [
        {
          "internalType": "bytes4",
          "name": "interfaceId",
          "type": "bytes4"
        }
      ],
      "name": "supportsInterface",
      "outputs": [
        {
          "internalType": "bool",
          "name": "",
          "type": "bool"
        }
      ],
      "stateMutability": "view",
      "type": "function"
    },
    {
      "inputs": [],
      "name": "symbol",
      "outputs": [
        {
          "internalType": "string",
          "name": "",
          "type": "string"
        }
      ],
      "stateMutability": "view",
      "type": "function"
    },
    {
      "inputs": [
        {
          "internalType": "uint256",
          "name": "tokenId",
          "type": "uint256"
        }
      ],
      "name": "tokenURI",
      "outputs": [
        {
          "internalType": "string",
          "name": "",
          "type": "string"
        }
      ],
      "stateMutability": "view",
      "type": "function"
    },
    {
      "inputs": [],
      "name": "totalFees",
      "outputs": [
        {
          "internalType": "uint256",
          "name": "",
          "type": "uint256"
        }
      ],
      "stateMutability": "view",
      "type": "function"
    },
    {
      "inputs": [
        {
          "internalType": "address",
          "name": "from",
          "type": "address"
        },
        {
          "internalType": "address",
          "name": "to",
          "type": "address"
        },
        {
          "internalType": "uint256",
          "name": "tokenId",
          "type": "uint256"
        }
      ],
      "name": "transferFrom",
      "outputs": [],
      "stateMutability": "nonpayable",
      "type": "function"
    },
    {
      "inputs": [
        {
          "internalType": "uint256",
          "name": "_listingPrice",
          "type": "uint256"
        }
      ],
      "name": "updateListingPrice",
      "outputs": [],
      "stateMutability": "nonpayable",
      "type": "function"
    },
    {
      "inputs": [],
      "name": "withdrawFees",
      "outputs": [],
      "stateMutability": "nonpayable",
      "type": "function"
    },
    {
      "inputs": [],
      "name": "withdrawFunds",
      "outputs": [],
      "stateMutability": "nonpayable",
      "type": "function"
    }
  ],
  "bytecode": "0x608060405265e35fa931a000600a556000600b5534801561001f57600080fd5b506040518060400160405280600f81526020016e4e4654204d61726b6574706c61636560881b815250604051806040016040528060048152602001634e46544d60e01b8152508160009081610074919061013f565b506001610081828261013f565b5050600160075550600c80546001600160a01b031916331790556101fd565b634e487b7160e01b600052604160045260246000fd5b600181811c908216806100ca57607f821691505b6020821081036100ea57634e487b7160e01b600052602260045260246000fd5b50919050565b601f82111561013a57806000526020600020601f840160051c810160208510156101175750805b601f840160051c820191505b818110156101375760008155600101610123565b50505b505050565b81516001600160401b03811115610158576101586100a0565b61016c8161016684546100b6565b846100f0565b6020601f8211600181146101a057600083156101885750848201515b600019600385901b1c1916600184901b178455610137565b600084815260208120601f198516915b828110156101d057878501518255602094850194600190920191016101b0565b50848210156101ee5786840151600019600387901b60f8161c191681555b50505050600190811b01905550565b6133088061020c6000396000f3fe6080604052600436106102255760003560e01c80637fb770cb11610123578063b88d4fde116100ab578063d10510861161006f578063d105108614610617578063daa17f4914610637578063e219fc7514610657578063e985e9c51461066a578063fc6f94681461068a57600080fd5b8063b88d4fde1461058e578063be9af536146105ae578063c78f19f9146105c1578063c87b56dd146105d7578063ce0021bc146105f757600080fd5b8063a22cb465116100f2578063a22cb465146104ee578063a7ad71df1461050e578063ae677aa31461052e578063b3de019c1461054e578063b47cc5561461056e57600080fd5b80637fb770cb146104795780638da5cb5b1461049957806395d89b41146104b9578063997965b8146104ce57600080fd5b806323b872dd116101b1578063476343ee11610175578063476343ee146103f15780635c949896146104065780636352211e1461042657806370a082311461044657806372b3b6201461046657600080fd5b806323b872dd1461036757806324600fc3146103875780632c1e816d1461039c57806342842e0e146103bc57806345f8fa80146103dc57600080fd5b80630f08efe0116101f85780630f08efe0146102db57806312e85585146102fd57806313114a9d1461031c578063202e37401461033257806322d468521461034757600080fd5b806301ffc9a71461022a57806306fdde031461025f578063081812fc14610281578063095ea7b3146102b9575b600080fd5b34801561023657600080fd5b5061024a610245366004612c68565b6106aa565b60405190151581526020015b60405180910390f35b34801561026b57600080fd5b506102746106d5565b6040516102569190612cd5565b34801561028d57600080fd5b506102a161029c366004612ce8565b610767565b6040516001600160a01b039091168152602001610256565b3480156102c557600080fd5b506102d96102d4366004612d1d565b610790565b005b3480156102e757600080fd5b506102f061079f565b6040516102569190612d47565b34801561030957600080fd5b50600a545b604051908152602001610256565b34801561032857600080fd5b5061030e600b5481565b34801561033e57600080fd5b506102f061091c565b34801561035357600080fd5b506102d9610362366004612dc7565b610ad2565b34801561037357600080fd5b506102d9610382366004612de2565b610b27565b34801561039357600080fd5b506102d9610bb2565b3480156103a857600080fd5b506102d96103b7366004612dc7565b610ced565b3480156103c857600080fd5b506102d96103d7366004612de2565b610daf565b3480156103e857600080fd5b506102f0610dcf565b3480156103fd57600080fd5b506102d9610f85565b34801561041257600080fd5b506102d9610421366004612de2565b6110e5565b34801561043257600080fd5b506102a1610441366004612ce8565b6112bc565b34801561045257600080fd5b5061030e610461366004612dc7565b6112c7565b61030e610474366004612eaf565b61130f565b34801561048557600080fd5b506102d9610494366004612ce8565b61150d565b3480156104a557600080fd5b50600c546102a1906001600160a01b031681565b3480156104c557600080fd5b5061027461169d565b3480156104da57600080fd5b506102d96104e9366004612d1d565b6116ac565b3480156104fa57600080fd5b506102d9610509366004612f08565b611800565b34801561051a57600080fd5b50600f546102a1906001600160a01b031681565b34801561053a57600080fd5b506102d9610549366004612ce8565b61180b565b34801561055a57600080fd5b506102d9610569366004612f44565b61183a565b34801561057a57600080fd5b506102d9610589366004612dc7565b6119b6565b34801561059a57600080fd5b506102d96105a9366004612f66565b611a80565b6102d96105bc366004612ce8565b611a98565b3480156105cd57600080fd5b5061030e600a5481565b3480156105e357600080fd5b506102746105f2366004612ce8565b611c4c565b34801561060357600080fd5b506102d9610612366004612ce8565b611d5d565b34801561062357600080fd5b506102d9610632366004612de2565b611e8e565b34801561064357600080fd5b50600d546102a1906001600160a01b031681565b6102d9610665366004612f44565b611fe5565b34801561067657600080fd5b5061024a610685366004612fe2565b6121c6565b34801561069657600080fd5b50600e546102a1906001600160a01b031681565b60006001600160e01b03198216632483248360e11b14806106cf57506106cf826121f4565b92915050565b6060600080546106e490613015565b80601f016020809104026020016040519081016040528092919081815260200182805461071090613015565b801561075d5780601f106107325761010080835404028352916020019161075d565b820191906000526020600020905b81548152906001019060200180831161074057829003601f168201915b5050505050905090565b600061077282612244565b506000828152600460205260409020546001600160a01b03166106cf565b61079b82823361227d565b5050565b600854600954606091906000906107b69083613065565b90506000808267ffffffffffffffff8111156107d4576107d4612e1f565b60405190808252806020026020018201604052801561082d57816020015b6040805160a0810182526000808252602080830182905292820181905260608201819052608082015282526000199092019101816107f25790505b50905060005b8481101561091357306010600061084b846001613078565b81526020810191909152604001600020600201546001600160a01b03160361090b57600061087a826001613078565b600081815260106020908152604091829020825160a0810184528154815260018201546001600160a01b039081169382019390935260028201549092169282019290925260038201546060820152600482015460ff1615156080820152855192935090918590879081106108f0576108f061308b565b6020908102919091010152610906600186613078565b945050505b600101610833565b50949350505050565b600854606090600080805b8381101561097757336010600061093f846001613078565b81526020810191909152604001600020600201546001600160a01b03160361096f5761096c600184613078565b92505b600101610927565b5060008267ffffffffffffffff81111561099357610993612e1f565b6040519080825280602002602001820160405280156109ec57816020015b6040805160a0810182526000808252602080830182905292820181905260608201819052608082015282526000199092019101816109b15790505b50905060005b84811015610913573360106000610a0a846001613078565b81526020810191909152604001600020600201546001600160a01b031603610aca576000610a39826001613078565b600081815260106020908152604091829020825160a0810184528154815260018201546001600160a01b039081169382019390935260028201549092169282019290925260038201546060820152600482015460ff161515608082015285519293509091859087908110610aaf57610aaf61308b565b6020908102919091010152610ac5600186613078565b945050505b6001016109f2565b600c546001600160a01b03163314610b055760405162461bcd60e51b8152600401610afc906130a1565b60405180910390fd5b600f80546001600160a01b0319166001600160a01b0392909216919091179055565b6001600160a01b038216610b5157604051633250574960e11b815260006004820152602401610afc565b6000610b5e83833361228a565b9050836001600160a01b0316816001600160a01b031614610bac576040516364283d7b60e01b81526001600160a01b0380861660048301526024820184905282166044820152606401610afc565b50505050565b610bba612383565b3360009081526011602052604090205480610c0e5760405162461bcd60e51b81526020600482015260146024820152734e6f2066756e647320746f20776974686472617760601b6044820152606401610afc565b336000818152601160205260408082208290555190919083908381818185875af1925050503d8060008114610c5f576040519150601f19603f3d011682016040523d82523d6000602084013e610c64565b606091505b5050905080610ca95760405162461bcd60e51b815260206004820152601160248201527015da5d1a191c985dd85b0819985a5b1959607a1b6044820152606401610afc565b60405182815233907feaff4b37086828766ad3268786972c0cd24259d4c87a80f9d3963a3c3d999b0d906020015b60405180910390a25050610ceb6001600755565b565b600c546001600160a01b03163314610d175760405162461bcd60e51b8152600401610afc906130a1565b6001600160a01b038116610d655760405162461bcd60e51b8152602060048201526015602482015274496e76616c69642061646d696e206164647265737360581b6044820152606401610afc565b600e80546001600160a01b0319166001600160a01b0383169081179091556040517fa54e30973125ab6651706f5e9b1b43cf9bdba85ff8204cba762dfe45c0b4b9d090600090a250565b610dca83838360405180602001604052806000815250611a80565b505050565b600854606090600080805b83811015610e2a573360106000610df2846001613078565b81526020810191909152604001600020600101546001600160a01b031603610e2257610e1f600184613078565b92505b600101610dda565b5060008267ffffffffffffffff811115610e4657610e46612e1f565b604051908082528060200260200182016040528015610e9f57816020015b6040805160a081018252600080825260208083018290529282018190526060820181905260808201528252600019909201910181610e645790505b50905060005b84811015610913573360106000610ebd846001613078565b81526020810191909152604001600020600101546001600160a01b031603610f7d576000610eec826001613078565b600081815260106020908152604091829020825160a0810184528154815260018201546001600160a01b039081169382019390935260028201549092169282019290925260038201546060820152600482015460ff161515608082015285519293509091859087908110610f6257610f6261308b565b6020908102919091010152610f78600186613078565b945050505b600101610ea5565b600c546001600160a01b03163314610faf5760405162461bcd60e51b8152600401610afc906130a1565b610fb7612383565b6000600b5411610fff5760405162461bcd60e51b81526020600482015260136024820152724e6f206665657320746f20776974686472617760681b6044820152606401610afc565b600b8054600091829055600c546040519192916001600160a01b039091169083908381818185875af1925050503d8060008114611058576040519150601f19603f3d011682016040523d82523d6000602084013e61105d565b606091505b50509050806110a65760405162461bcd60e51b8152602060048201526015602482015274119959481dda5d1a191c985dd85b0819985a5b1959605a1b6044820152606401610afc565b600c546040518381526001600160a01b03909116907fc0819c13be868895eb93e40eaceb96de976442fa1d404e5c55f14bb65a8c489a90602001610cd7565b600d546001600160a01b03163314806111085750600e546001600160a01b031633145b6111455760405162461bcd60e51b815260206004820152600e60248201526d139bdd08185d5d1a1bdc9a5e995960921b6044820152606401610afc565b816001600160a01b0316611158826112bc565b6001600160a01b0316146111ae5760405162461bcd60e51b815260206004820152601f60248201527f5472616e73666572206e6f742066696e616c697a6564206f6e2d636861696e006044820152606401610afc565b6001600160a01b03821661122c576040805162461bcd60e51b81526020600482015260248101919091527f43616e6e6f7420757064617465206d617070696e6720666f722061206275726e60448201527f206576656e7420696e2065787465726e616c5472616e736665725570646174656064820152608401610afc565b6000818152601060209081526040918290206002810180546001600160a01b03199081166001600160a01b038881169182179093556001840180549092169289169283179091556004909201805460ff1916905583519081529182015282917ff48f5ca9b49ddf80a656cbf7e81eab6b77bc86dbeca4186f9e27a76688ac089e91015b60405180910390a2505050565b60006106cf82612244565b60006001600160a01b0382166112f3576040516322718ad960e21b815260006004820152602401610afc565b506001600160a01b031660009081526003602052604090205490565b6000600a5434146113625760405162461bcd60e51b815260206004820152601a60248201527f496e73756666696369656e74206c697374696e672070726963650000000000006044820152606401610afc565b600f546040516375ad331760e11b81523360048201526000916001600160a01b03169063eb5a662e90602401602060405180830381865afa1580156113ab573d6000803e3d6000fd5b505050506040513d601f19601f820116820180604052508101906113cf91906130e7565b9050600081116114215760405162461bcd60e51b815260206004820152601c60248201527f4e6f206772616e7420616c6c6f77616e636520617661696c61626c65000000006044820152606401610afc565b6001600860008282546114349190613078565b909155505060085461144633826123ad565b6114508186612412565b61145a8185612462565b600f546040516307fe547d60e31b81523360048201526001600160a01b0390911690633ff2a3e890602401600060405180830381600087803b15801561149f57600080fd5b505af11580156114b3573d6000803e3d6000fd5b50505050600a54600b60008282546114cb9190613078565b909155505060405133815281907fc331dc3e37e2ab4d6e65d42a119ffdfab8481b9be24d26704f9f4b4a331d4dd09060200160405180910390a2949350505050565b6000818152601060205260409020600101546001600160a01b031633146115825760405162461bcd60e51b8152602060048201526024808201527f4f6e6c79207468652073656c6c65722063616e2072656d6f76652074686973206044820152636974656d60e01b6064820152608401610afc565b60008181526010602052604090206004015460ff16156115e45760405162461bcd60e51b815260206004820152601a60248201527f4974656d2068617320616c7265616479206265656e20736f6c640000000000006044820152606401610afc565b306115ee826112bc565b6001600160a01b0316146116145760405162461bcd60e51b8152600401610afc90613100565b61161f3033836125ed565b60008181526010602090815260408083208381556001810180546001600160a01b0319908116909155600282018054909116905560038101939093556004909201805460ff19169055905133815282917f4571e34ad3a2ae60bbf6849fda18f900ad12c781f5c284f02319195e6c415dac910160405180910390a250565b6060600180546106e490613015565b816001600160a01b03166116bf826112bc565b6001600160a01b0316146117155760405162461bcd60e51b815260206004820152601c60248201527f53656e64657220646f6573206e6f74206f776e2074686973204e4654000000006044820152606401610afc565b336001600160a01b0383161480611731575061173182336121c6565b61177d5760405162461bcd60e51b815260206004820181905260248201527f43616c6c6572206973206e6f74206f776e6572206e6f7220617070726f7665646044820152606401610afc565b6117868161269d565b6000818152601060205260408082208281556001810180546001600160a01b0319908116909155600282018054909116905560038101839055600401805460ff19169055516001600160a01b0384169183917f9dd5d8cac1488255525553506f38d0ceeec79fd67c43d40e8f0c45119a3d422a9190a35050565b61079b3383836126d8565b600c546001600160a01b031633146118355760405162461bcd60e51b8152600401610afc906130a1565b600a55565b6000828152601060205260409020600101546001600160a01b031633146118af5760405162461bcd60e51b8152602060048201526024808201527f4f6e6c79207468652073656c6c65722063616e206368616e67652074686520706044820152637269636560e01b6064820152608401610afc565b600081116118ff5760405162461bcd60e51b815260206004820152601f60248201527f5072696365206d7573742062652067726561746572207468616e207a65726f006044820152606401610afc565b60008281526010602052604090206004015460ff16156119615760405162461bcd60e51b815260206004820152601a60248201527f4974656d2068617320616c7265616479206265656e20736f6c640000000000006044820152606401610afc565b600082815260106020908152604091829020600301839055815133815290810183905283917ff8e934e738d0efb7cd7a8d3f57c6cb5eca25c6b9e3fbd7fc50382b8f9505dfb291015b60405180910390a25050565b600c546001600160a01b031633146119e05760405162461bcd60e51b8152600401610afc906130a1565b6001600160a01b038116611a365760405162461bcd60e51b815260206004820152601b60248201527f496e76616c6964206d61726b6574706c616365206164647265737300000000006044820152606401610afc565b600d80546001600160a01b0319166001600160a01b0383169081179091556040517fbf54ea83ad908567bc5ad3199eab9f6f191d26c28764b57f9927110b97a971fd90600090a250565b611a8b848484610b27565b610bac3385858585612777565b600081815260106020526040902060030154348114611af95760405162461bcd60e51b815260206004820152601e60248201527f506c65617365207375626d6974207468652061736b696e6720707269636500006044820152606401610afc565b30611b03836112bc565b6001600160a01b031614611b295760405162461bcd60e51b8152600401610afc90613100565b6000828152601060205260408120600180820180546002840180546001600160a01b031990811633179091556004909401805460ff1916841790559283169055600980546001600160a01b03909316939192909190611b89908490613078565b90915550611b9a90503033856125ed565b6001600160a01b03811660009081526011602052604081208054349290611bc2908490613078565b9091555050600c54600a546040516001600160a01b039092169181156108fc0291906000818181858888f19350505050158015611c03573d6000803e3d6000fd5b50604080516001600160a01b038316815233602082015290810183905283907f150ffca547cf855e7fcf5daa82e41c6523b5fb2c8b1309bbb6cf2f87c6ae5a31906060016112af565b6060611c5782612244565b5060008281526006602052604081208054611c7190613015565b80601f0160208091040260200160405190810160405280929190818152602001828054611c9d90613015565b8015611cea5780601f10611cbf57610100808354040283529160200191611cea565b820191906000526020600020905b815481529060010190602001808311611ccd57829003601f168201915b505050505090506000611d0860408051602081019091526000815290565b90508051600003611d1a575092915050565b815115611d4c578082604051602001611d34929190613143565b60405160208183030381529060405292505050919050565b611d55846128a2565b949350505050565b600d546001600160a01b0316331480611d805750600e546001600160a01b031633145b611dbd5760405162461bcd60e51b815260206004820152600e60248201526d139bdd08185d5d1a1bdc9a5e995960921b6044820152606401610afc565b6000611dc8826112bc565b6001600160a01b031614611e1e5760405162461bcd60e51b815260206004820152601c60248201527f546f6b656e206973206e6f74206275726e6564206f6e2d636861696e000000006044820152606401610afc565b6000818152601060205260408082208281556001810180546001600160a01b0319908116909155600282018054909116905560038101839055600401805460ff1916905551339183917f9dd5d8cac1488255525553506f38d0ceeec79fd67c43d40e8f0c45119a3d422a9190a350565b826001600160a01b0316611ea1826112bc565b6001600160a01b031614611ef75760405162461bcd60e51b815260206004820152601c60248201527f53656e64657220646f6573206e6f74206f776e2074686973204e4654000000006044820152606401610afc565b336001600160a01b0384161480611f135750611f1383336121c6565b611f5f5760405162461bcd60e51b815260206004820181905260248201527f43616c6c6572206973206e6f74206f776e6572206e6f7220617070726f7665646044820152606401610afc565b6001600160a01b03821661122c5760405162461bcd60e51b815260206004820152604160248201527f5472616e7366657220746f20746865206275726e2061646472657373206e6f7460448201527f20616c6c6f77656420696e20696e7465726e616c5472616e73666572546f6b656064820152603760f91b608482015260a401610afc565b6000828152601060205260409020600201546001600160a01b031633146120605760405162461bcd60e51b815260206004820152602960248201527f4f6e6c7920746865206f776e65722063616e20706572666f726d20746869732060448201526837b832b930ba34b7b760b91b6064820152608401610afc565b600a5434146120c25760405162461bcd60e51b815260206004820152602860248201527f5072696365206d75737420626520657175616c20746f20746865206c697374696044820152676e6720707269636560c01b6064820152608401610afc565b336120cc836112bc565b6001600160a01b0316146121225760405162461bcd60e51b815260206004820152601e60248201527f43616c6c6572206e6f206c6f6e676572206f776e732074686973204e465400006044820152606401610afc565b600082815260106020526040812060048101805460ff1916905560038101839055600180820180546001600160a01b03199081163317909155600290920180549092163017909155600980549192909161217d908490613065565b9091555061218e90503330846125ed565b604080513381526020810183905283917fb2ba12d2566848b13548a3741edb565b69d3cbce7796959cd67431610207eb1391016119aa565b6001600160a01b03918216600090815260056020908152604080832093909416825291909152205460ff1690565b60006001600160e01b031982166380ac58cd60e01b148061222557506001600160e01b03198216635b5e139f60e01b145b806106cf57506301ffc9a760e01b6001600160e01b03198316146106cf565b6000818152600260205260408120546001600160a01b0316806106cf57604051637e27328960e01b815260048101849052602401610afc565b610dca8383836001612917565b6000828152600260205260408120546001600160a01b03908116908316156122b7576122b7818486612a1d565b6001600160a01b038116156122f5576122d4600085600080612917565b6001600160a01b038116600090815260036020526040902080546000190190555b6001600160a01b03851615612324576001600160a01b0385166000908152600360205260409020805460010190555b60008481526002602052604080822080546001600160a01b0319166001600160a01b0389811691821790925591518793918516917fddf252ad1be2c89b69c2b068fc378daa952ba7f163c4a11628f55a4df523b3ef91a4949350505050565b6002600754036123a657604051633ee5aeb560e01b815260040160405180910390fd5b6002600755565b6001600160a01b0382166123d757604051633250574960e11b815260006004820152602401610afc565b60006123e58383600061228a565b90506001600160a01b03811615610dca576040516339e3563760e11b815260006004820152602401610afc565b600082815260066020526040902061242a82826131b9565b506040518281527ff8e1a15aba9398e019f0b49df1a4fde98ee17ae345cb5f6b5e2c27f5033e8ce79060200160405180910390a15050565b600081116124b25760405162461bcd60e51b815260206004820152601860248201527f5072696365206d757374206265206174206c65617374203100000000000000006044820152606401610afc565b600a54341461250f5760405162461bcd60e51b8152602060048201526024808201527f5072696365206d75737420626520657175616c20746f206c697374696e6720706044820152637269636560e01b6064820152608401610afc565b6040805160a08101825283815233602080830182815230848601818152606086018881526000608088018181528b82526010909652979097209551865591516001860180546001600160a01b03199081166001600160a01b0393841617909155925160028701805490941691161790915593516003840155516004909201805460ff1916921515929092179091556125a791846125ed565b604080513381523060208201529081018290526000606082015282907fb640004f1d14576d0c209e240cad0410e0d8c0c33a09375861fbadae2588a98d906080016119aa565b6001600160a01b03821661261757604051633250574960e11b815260006004820152602401610afc565b60006126258383600061228a565b90506001600160a01b03811661265157604051637e27328960e01b815260048101839052602401610afc565b836001600160a01b0316816001600160a01b031614610bac576040516364283d7b60e01b81526001600160a01b0380861660048301526024820184905282166044820152606401610afc565b60006126ac600083600061228a565b90506001600160a01b03811661079b57604051637e27328960e01b815260048101839052602401610afc565b6001600160a01b03821661270a57604051630b61174360e31b81526001600160a01b0383166004820152602401610afc565b6001600160a01b03838116600081815260056020908152604080832094871680845294825291829020805460ff191686151590811790915591519182527f17307eab39ab6107e8899845ad3d59bd9653f200f220920489ca2b5937696c31910160405180910390a3505050565b6001600160a01b0383163b1561289b57604051630a85bd0160e11b81526001600160a01b0384169063150b7a02906127b9908890889087908790600401613278565b6020604051808303816000875af19250505080156127f4575060408051601f3d908101601f191682019092526127f1918101906132b5565b60015b61285d573d808015612822576040519150601f19603f3d011682016040523d82523d6000602084013e612827565b606091505b50805160000361285557604051633250574960e11b81526001600160a01b0385166004820152602401610afc565b805181602001fd5b6001600160e01b03198116630a85bd0160e11b1461289957604051633250574960e11b81526001600160a01b0385166004820152602401610afc565b505b5050505050565b60606128ad82612244565b5060006128c560408051602081019091526000815290565b905060008151116128e55760405180602001604052806000815250612910565b806128ef84612a81565b604051602001612900929190613143565b6040516020818303038152906040525b9392505050565b808061292b57506001600160a01b03821615155b156129ed57600061293b84612244565b90506001600160a01b038316158015906129675750826001600160a01b0316816001600160a01b031614155b801561297a575061297881846121c6565b155b156129a35760405163a9fbf51f60e01b81526001600160a01b0384166004820152602401610afc565b81156129eb5783856001600160a01b0316826001600160a01b03167f8c5be1e5ebec7d5bd14f71427d1e84f3dd0314c0f7b2291e5b200ac8c7c3b92560405160405180910390a45b505b5050600090815260046020526040902080546001600160a01b0319166001600160a01b0392909216919091179055565b612a28838383612b14565b610dca576001600160a01b038316612a5657604051637e27328960e01b815260048101829052602401610afc565b60405163177e802f60e01b81526001600160a01b038316600482015260248101829052604401610afc565b60606000612a8e83612b77565b600101905060008167ffffffffffffffff811115612aae57612aae612e1f565b6040519080825280601f01601f191660200182016040528015612ad8576020820181803683370190505b5090508181016020015b600019016f181899199a1a9b1b9c1cb0b131b232b360811b600a86061a8153600a8504945084612ae257509392505050565b60006001600160a01b03831615801590611d555750826001600160a01b0316846001600160a01b03161480612b4e5750612b4e84846121c6565b80611d555750506000908152600460205260409020546001600160a01b03908116911614919050565b60008072184f03e93ff9f4daa797ed6e38ed64bf6a1f0160401b8310612bb65772184f03e93ff9f4daa797ed6e38ed64bf6a1f0160401b830492506040015b6d04ee2d6d415b85acef81000000008310612be2576d04ee2d6d415b85acef8100000000830492506020015b662386f26fc100008310612c0057662386f26fc10000830492506010015b6305f5e1008310612c18576305f5e100830492506008015b6127108310612c2c57612710830492506004015b60648310612c3e576064830492506002015b600a83106106cf5760010192915050565b6001600160e01b031981168114612c6557600080fd5b50565b600060208284031215612c7a57600080fd5b813561291081612c4f565b60005b83811015612ca0578181015183820152602001612c88565b50506000910152565b60008151808452612cc1816020860160208601612c85565b601f01601f19169290920160200192915050565b6020815260006129106020830184612ca9565b600060208284031215612cfa57600080fd5b5035919050565b80356001600160a01b0381168114612d1857600080fd5b919050565b60008060408385031215612d3057600080fd5b612d3983612d01565b946020939093013593505050565b602080825282518282018190526000918401906040840190835b81811015612dbc578351805184526020808201516001600160a01b039081168287015260408084015190911690860152606080830151908601526080918201511515918501919091529093019260a090920191600101612d61565b509095945050505050565b600060208284031215612dd957600080fd5b61291082612d01565b600080600060608486031215612df757600080fd5b612e0084612d01565b9250612e0e60208501612d01565b929592945050506040919091013590565b634e487b7160e01b600052604160045260246000fd5b60008067ffffffffffffffff841115612e5057612e50612e1f565b50604051601f19601f85018116603f0116810181811067ffffffffffffffff82111715612e7f57612e7f612e1f565b604052838152905080828401851015612e9757600080fd5b83836020830137600060208583010152509392505050565b60008060408385031215612ec257600080fd5b823567ffffffffffffffff811115612ed957600080fd5b8301601f81018513612eea57600080fd5b612ef985823560208401612e35565b95602094909401359450505050565b60008060408385031215612f1b57600080fd5b612f2483612d01565b915060208301358015158114612f3957600080fd5b809150509250929050565b60008060408385031215612f5757600080fd5b50508035926020909101359150565b60008060008060808587031215612f7c57600080fd5b612f8585612d01565b9350612f9360208601612d01565b925060408501359150606085013567ffffffffffffffff811115612fb657600080fd5b8501601f81018713612fc757600080fd5b612fd687823560208401612e35565b91505092959194509250565b60008060408385031215612ff557600080fd5b612ffe83612d01565b915061300c60208401612d01565b90509250929050565b600181811c9082168061302957607f821691505b60208210810361304957634e487b7160e01b600052602260045260246000fd5b50919050565b634e487b7160e01b600052601160045260246000fd5b818103818111156106cf576106cf61304f565b808201808211156106cf576106cf61304f565b634e487b7160e01b600052603260045260246000fd5b60208082526026908201527f4f6e6c7920746865206f776e65722063616e20706572666f726d20746869732060408201526530b1ba34b7b760d11b606082015260800190565b6000602082840312156130f957600080fd5b5051919050565b60208082526023908201527f4d61726b6574706c616365206e6f206c6f6e676572206f776e7320746869732060408201526213919560ea1b606082015260800190565b60008351613155818460208801612c85565b835190830190613169818360208801612c85565b01949350505050565b601f821115610dca57806000526020600020601f840160051c810160208510156131995750805b601f840160051c820191505b8181101561289b57600081556001016131a5565b815167ffffffffffffffff8111156131d3576131d3612e1f565b6131e7816131e18454613015565b84613172565b6020601f82116001811461321b57600083156132035750848201515b600019600385901b1c1916600184901b17845561289b565b600084815260208120601f198516915b8281101561324b578785015182556020948501946001909201910161322b565b50848210156132695786840151600019600387901b60f8161c191681555b50505050600190811b01905550565b6001600160a01b03858116825284166020820152604081018390526080606082018190526000906132ab90830184612ca9565b9695505050505050565b6000602082840312156132c757600080fd5b815161291081612c4f56fea26469706673582212209e2760118439fdd94982cc49c4216972ba4704f1e2cf912e3041acc60a8d442164736f6c634300081b0033",
  "linkReferences": {},
  "deployedLinkReferences": {}
}