{
  "_format": "hh-sol-artifact-1",
  "contractName": "NFTMarketplace",
  "sourceName": "contracts/NFTMarketplace.sol",
  "abi": [
    {
      "inputs": [],
      "stateMutability": "nonpayable",
      "type": "constructor"
    },
    {
      "inputs": [
        {
          "internalType": "address",
          "name": "sender",
          "type": "address"
        },
        {
          "internalType": "uint256",
          "name": "tokenId",
          "type": "uint256"
        },
        {
          "internalType": "address",
          "name": "owner",
          "type": "address"
        }
      ],
      "name": "ERC721IncorrectOwner",
      "type": "error"
    },
    {
      "inputs": [
        {
          "internalType": "address",
          "name": "operator",
          "type": "address"
        },
        {
          "internalType": "uint256",
          "name": "tokenId",
          "type": "uint256"
        }
      ],
      "name": "ERC721InsufficientApproval",
      "type": "error"
    },
    {
      "inputs": [
        {
          "internalType": "address",
          "name": "approver",
          "type": "address"
        }
      ],
      "name": "ERC721InvalidApprover",
      "type": "error"
    },
    {
      "inputs": [
        {
          "internalType": "address",
          "name": "operator",
          "type": "address"
        }
      ],
      "name": "ERC721InvalidOperator",
      "type": "error"
    },
    {
      "inputs": [
        {
          "internalType": "address",
          "name": "owner",
          "type": "address"
        }
      ],
      "name": "ERC721InvalidOwner",
      "type": "error"
    },
    {
      "inputs": [
        {
          "internalType": "address",
          "name": "receiver",
          "type": "address"
        }
      ],
      "name": "ERC721InvalidReceiver",
      "type": "error"
    },
    {
      "inputs": [
        {
          "internalType": "address",
          "name": "sender",
          "type": "address"
        }
      ],
      "name": "ERC721InvalidSender",
      "type": "error"
    },
    {
      "inputs": [
        {
          "internalType": "uint256",
          "name": "tokenId",
          "type": "uint256"
        }
      ],
      "name": "ERC721NonexistentToken",
      "type": "error"
    },
    {
      "anonymous": false,
      "inputs": [
        {
          "indexed": true,
          "internalType": "address",
          "name": "owner",
          "type": "address"
        },
        {
          "indexed": true,
          "internalType": "address",
          "name": "approved",
          "type": "address"
        },
        {
          "indexed": true,
          "internalType": "uint256",
          "name": "tokenId",
          "type": "uint256"
        }
      ],
      "name": "Approval",
      "type": "event"
    },
    {
      "anonymous": false,
      "inputs": [
        {
          "indexed": true,
          "internalType": "address",
          "name": "owner",
          "type": "address"
        },
        {
          "indexed": true,
          "internalType": "address",
          "name": "operator",
          "type": "address"
        },
        {
          "indexed": false,
          "internalType": "bool",
          "name": "approved",
          "type": "bool"
        }
      ],
      "name": "ApprovalForAll",
      "type": "event"
    },
    {
      "anonymous": false,
      "inputs": [
        {
          "indexed": false,
          "internalType": "uint256",
          "name": "_fromTokenId",
          "type": "uint256"
        },
        {
          "indexed": false,
          "internalType": "uint256",
          "name": "_toTokenId",
          "type": "uint256"
        }
      ],
      "name": "BatchMetadataUpdate",
      "type": "event"
    },
    {
      "anonymous": false,
      "inputs": [
        {
          "indexed": true,
          "internalType": "uint256",
          "name": "tokenId",
          "type": "uint256"
        },
        {
          "indexed": false,
          "internalType": "address",
          "name": "seller",
          "type": "address"
        },
        {
          "indexed": false,
          "internalType": "address",
          "name": "owner",
          "type": "address"
        },
        {
          "indexed": false,
          "internalType": "uint256",
          "name": "price",
          "type": "uint256"
        },
        {
          "indexed": false,
          "internalType": "bool",
          "name": "sold",
          "type": "bool"
        }
      ],
      "name": "MarketItemCreated",
      "type": "event"
    },
    {
      "anonymous": false,
      "inputs": [
        {
          "indexed": false,
          "internalType": "uint256",
          "name": "_tokenId",
          "type": "uint256"
        }
      ],
      "name": "MetadataUpdate",
      "type": "event"
    },
    {
      "anonymous": false,
      "inputs": [
        {
          "indexed": true,
          "internalType": "address",
          "name": "from",
          "type": "address"
        },
        {
          "indexed": true,
          "internalType": "address",
          "name": "to",
          "type": "address"
        },
        {
          "indexed": true,
          "internalType": "uint256",
          "name": "tokenId",
          "type": "uint256"
        }
      ],
      "name": "Transfer",
      "type": "event"
    },
    {
      "inputs": [
        {
          "internalType": "address",
          "name": "to",
          "type": "address"
        },
        {
          "internalType": "uint256",
          "name": "tokenId",
          "type": "uint256"
        }
      ],
      "name": "approve",
      "outputs": [],
      "stateMutability": "nonpayable",
      "type": "function"
    },
    {
      "inputs": [
        {
          "internalType": "address",
          "name": "owner",
          "type": "address"
        }
      ],
      "name": "balanceOf",
      "outputs": [
        {
          "internalType": "uint256",
          "name": "",
          "type": "uint256"
        }
      ],
      "stateMutability": "view",
      "type": "function"
    },
    {
      "inputs": [
        {
          "internalType": "uint256",
          "name": "tokenId",
          "type": "uint256"
        }
      ],
      "name": "createMarketSale",
      "outputs": [],
      "stateMutability": "payable",
      "type": "function"
    },
    {
      "inputs": [
        {
          "internalType": "string",
          "name": "tokenURI",
          "type": "string"
        },
        {
          "internalType": "uint256",
          "name": "price",
          "type": "uint256"
        }
      ],
      "name": "createToken",
      "outputs": [
        {
          "internalType": "uint256",
          "name": "",
          "type": "uint256"
        }
      ],
      "stateMutability": "payable",
      "type": "function"
    },
    {
      "inputs": [],
      "name": "fetchItemsListed",
      "outputs": [
        {
          "components": [
            {
              "internalType": "uint256",
              "name": "tokenId",
              "type": "uint256"
            },
            {
              "internalType": "address payable",
              "name": "seller",
              "type": "address"
            },
            {
              "internalType": "address payable",
              "name": "owner",
              "type": "address"
            },
            {
              "internalType": "uint256",
              "name": "price",
              "type": "uint256"
            },
            {
              "internalType": "bool",
              "name": "sold",
              "type": "bool"
            }
          ],
          "internalType": "struct NFTMarketplace.MarketItem[]",
          "name": "",
          "type": "tuple[]"
        }
      ],
      "stateMutability": "view",
      "type": "function"
    },
    {
      "inputs": [],
      "name": "fetchMarketItems",
      "outputs": [
        {
          "components": [
            {
              "internalType": "uint256",
              "name": "tokenId",
              "type": "uint256"
            },
            {
              "internalType": "address payable",
              "name": "seller",
              "type": "address"
            },
            {
              "internalType": "address payable",
              "name": "owner",
              "type": "address"
            },
            {
              "internalType": "uint256",
              "name": "price",
              "type": "uint256"
            },
            {
              "internalType": "bool",
              "name": "sold",
              "type": "bool"
            }
          ],
          "internalType": "struct NFTMarketplace.MarketItem[]",
          "name": "",
          "type": "tuple[]"
        }
      ],
      "stateMutability": "view",
      "type": "function"
    },
    {
      "inputs": [],
      "name": "fetchMyNFTs",
      "outputs": [
        {
          "components": [
            {
              "internalType": "uint256",
              "name": "tokenId",
              "type": "uint256"
            },
            {
              "internalType": "address payable",
              "name": "seller",
              "type": "address"
            },
            {
              "internalType": "address payable",
              "name": "owner",
              "type": "address"
            },
            {
              "internalType": "uint256",
              "name": "price",
              "type": "uint256"
            },
            {
              "internalType": "bool",
              "name": "sold",
              "type": "bool"
            }
          ],
          "internalType": "struct NFTMarketplace.MarketItem[]",
          "name": "",
          "type": "tuple[]"
        }
      ],
      "stateMutability": "view",
      "type": "function"
    },
    {
      "inputs": [
        {
          "internalType": "uint256",
          "name": "tokenId",
          "type": "uint256"
        }
      ],
      "name": "getApproved",
      "outputs": [
        {
          "internalType": "address",
          "name": "",
          "type": "address"
        }
      ],
      "stateMutability": "view",
      "type": "function"
    },
    {
      "inputs": [],
      "name": "getListingPrice",
      "outputs": [
        {
          "internalType": "uint256",
          "name": "",
          "type": "uint256"
        }
      ],
      "stateMutability": "view",
      "type": "function"
    },
    {
      "inputs": [
        {
          "internalType": "address",
          "name": "owner",
          "type": "address"
        },
        {
          "internalType": "address",
          "name": "operator",
          "type": "address"
        }
      ],
      "name": "isApprovedForAll",
      "outputs": [
        {
          "internalType": "bool",
          "name": "",
          "type": "bool"
        }
      ],
      "stateMutability": "view",
      "type": "function"
    },
    {
      "inputs": [],
      "name": "listingPrice",
      "outputs": [
        {
          "internalType": "uint256",
          "name": "",
          "type": "uint256"
        }
      ],
      "stateMutability": "view",
      "type": "function"
    },
    {
      "inputs": [],
      "name": "name",
      "outputs": [
        {
          "internalType": "string",
          "name": "",
          "type": "string"
        }
      ],
      "stateMutability": "view",
      "type": "function"
    },
    {
      "inputs": [],
      "name": "owner",
      "outputs": [
        {
          "internalType": "address payable",
          "name": "",
          "type": "address"
        }
      ],
      "stateMutability": "view",
      "type": "function"
    },
    {
      "inputs": [
        {
          "internalType": "uint256",
          "name": "tokenId",
          "type": "uint256"
        }
      ],
      "name": "ownerOf",
      "outputs": [
        {
          "internalType": "address",
          "name": "",
          "type": "address"
        }
      ],
      "stateMutability": "view",
      "type": "function"
    },
    {
      "inputs": [
        {
          "internalType": "uint256",
          "name": "tokenId",
          "type": "uint256"
        },
        {
          "internalType": "uint256",
          "name": "price",
          "type": "uint256"
        }
      ],
      "name": "resellToken",
      "outputs": [],
      "stateMutability": "payable",
      "type": "function"
    },
    {
      "inputs": [
        {
          "internalType": "address",
          "name": "from",
          "type": "address"
        },
        {
          "internalType": "address",
          "name": "to",
          "type": "address"
        },
        {
          "internalType": "uint256",
          "name": "tokenId",
          "type": "uint256"
        }
      ],
      "name": "safeTransferFrom",
      "outputs": [],
      "stateMutability": "nonpayable",
      "type": "function"
    },
    {
      "inputs": [
        {
          "internalType": "address",
          "name": "from",
          "type": "address"
        },
        {
          "internalType": "address",
          "name": "to",
          "type": "address"
        },
        {
          "internalType": "uint256",
          "name": "tokenId",
          "type": "uint256"
        },
        {
          "internalType": "bytes",
          "name": "data",
          "type": "bytes"
        }
      ],
      "name": "safeTransferFrom",
      "outputs": [],
      "stateMutability": "nonpayable",
      "type": "function"
    },
    {
      "inputs": [
        {
          "internalType": "address",
          "name": "operator",
          "type": "address"
        },
        {
          "internalType": "bool",
          "name": "approved",
          "type": "bool"
        }
      ],
      "name": "setApprovalForAll",
      "outputs": [],
      "stateMutability": "nonpayable",
      "type": "function"
    },
    {
      "inputs": [
        {
          "internalType": "bytes4",
          "name": "interfaceId",
          "type": "bytes4"
        }
      ],
      "name": "supportsInterface",
      "outputs": [
        {
          "internalType": "bool",
          "name": "",
          "type": "bool"
        }
      ],
      "stateMutability": "view",
      "type": "function"
    },
    {
      "inputs": [],
      "name": "symbol",
      "outputs": [
        {
          "internalType": "string",
          "name": "",
          "type": "string"
        }
      ],
      "stateMutability": "view",
      "type": "function"
    },
    {
      "inputs": [
        {
          "internalType": "uint256",
          "name": "tokenId",
          "type": "uint256"
        }
      ],
      "name": "tokenURI",
      "outputs": [
        {
          "internalType": "string",
          "name": "",
          "type": "string"
        }
      ],
      "stateMutability": "view",
      "type": "function"
    },
    {
      "inputs": [
        {
          "internalType": "address",
          "name": "from",
          "type": "address"
        },
        {
          "internalType": "address",
          "name": "to",
          "type": "address"
        },
        {
          "internalType": "uint256",
          "name": "tokenId",
          "type": "uint256"
        }
      ],
      "name": "transferFrom",
      "outputs": [],
      "stateMutability": "nonpayable",
      "type": "function"
    },
    {
      "inputs": [
        {
          "internalType": "uint256",
          "name": "_listingPrice",
          "type": "uint256"
        }
      ],
      "name": "updateListingPrice",
      "outputs": [],
      "stateMutability": "nonpayable",
      "type": "function"
    }
  ],
  "bytecode": "0x60806040526658d15e1762800060095534801561001b57600080fd5b506040518060400160405280600f81526020017f4e4654204d61726b6574706c61636500000000000000000000000000000000008152506040518060400160405280600481526020017f4e46544d0000000000000000000000000000000000000000000000000000000081525081600090816100979190610340565b5080600190816100a79190610340565b50505033600a60006101000a81548173ffffffffffffffffffffffffffffffffffffffff021916908373ffffffffffffffffffffffffffffffffffffffff160217905550610412565b600081519050919050565b7f4e487b7100000000000000000000000000000000000000000000000000000000600052604160045260246000fd5b7f4e487b7100000000000000000000000000000000000000000000000000000000600052602260045260246000fd5b6000600282049050600182168061017157607f821691505b6020821081036101845761018361012a565b5b50919050565b60008190508160005260206000209050919050565b60006020601f8301049050919050565b600082821b905092915050565b6000600883026101ec7fffffffffffffffffffffffffffffffffffffffffffffffffffffffffffffffff826101af565b6101f686836101af565b95508019841693508086168417925050509392505050565b6000819050919050565b6000819050919050565b600061023d6102386102338461020e565b610218565b61020e565b9050919050565b6000819050919050565b61025783610222565b61026b61026382610244565b8484546101bc565b825550505050565b600090565b610280610273565b61028b81848461024e565b505050565b5b818110156102af576102a4600082610278565b600181019050610291565b5050565b601f8211156102f4576102c58161018a565b6102ce8461019f565b810160208510156102dd578190505b6102f16102e98561019f565b830182610290565b50505b505050565b600082821c905092915050565b6000610317600019846008026102f9565b1980831691505092915050565b60006103308383610306565b9150826002028217905092915050565b610349826100f0565b67ffffffffffffffff811115610362576103616100fb565b5b61036c8254610159565b6103778282856102b3565b600060209050601f8311600181146103aa5760008415610398578287015190505b6103a28582610324565b86555061040a565b601f1984166103b88661018a565b60005b828110156103e0578489015182556001820191506020850194506020810190506103bb565b868310156103fd57848901516103f9601f891682610306565b8355505b6001600288020188555050505b505050505050565b613d5f806104216000396000f3fe6080604052600436106101405760003560e01c806370a08231116100b6578063b88d4fde1161006f578063b88d4fde14610463578063be9af5361461048c578063c78f19f9146104a8578063c87b56dd146104d3578063e219fc7514610510578063e985e9c51461052c57610140565b806370a082311461034e57806372b3b6201461038b5780638da5cb5b146103bb57806395d89b41146103e6578063a22cb46514610411578063ae677aa31461043a57610140565b806312e855851161010857806312e855851461023e578063202e37401461026957806323b872dd1461029457806342842e0e146102bd57806345f8fa80146102e65780636352211e1461031157610140565b806301ffc9a71461014557806306fdde0314610182578063081812fc146101ad578063095ea7b3146101ea5780630f08efe014610213575b600080fd5b34801561015157600080fd5b5061016c60048036038101906101679190612bb5565b610569565b6040516101799190612bfd565b60405180910390f35b34801561018e57600080fd5b506101976105ca565b6040516101a49190612ca8565b60405180910390f35b3480156101b957600080fd5b506101d460048036038101906101cf9190612d00565b61065c565b6040516101e19190612d6e565b60405180910390f35b3480156101f657600080fd5b50610211600480360381019061020c9190612db5565b610678565b005b34801561021f57600080fd5b5061022861068e565b6040516102359190612f4b565b60405180910390f35b34801561024a57600080fd5b506102536108db565b6040516102609190612f7c565b60405180910390f35b34801561027557600080fd5b5061027e6108e5565b60405161028b9190612f4b565b60405180910390f35b3480156102a057600080fd5b506102bb60048036038101906102b69190612f97565b610bbe565b005b3480156102c957600080fd5b506102e460048036038101906102df9190612f97565b610cc0565b005b3480156102f257600080fd5b506102fb610ce0565b6040516103089190612f4b565b60405180910390f35b34801561031d57600080fd5b5061033860048036038101906103339190612d00565b610fb9565b6040516103459190612d6e565b60405180910390f35b34801561035a57600080fd5b5061037560048036038101906103709190612fea565b610fcb565b6040516103829190612f7c565b60405180910390f35b6103a560048036038101906103a0919061314c565b611085565b6040516103b29190612f7c565b60405180910390f35b3480156103c757600080fd5b506103d0611114565b6040516103dd91906131b7565b60405180910390f35b3480156103f257600080fd5b506103fb61113a565b6040516104089190612ca8565b60405180910390f35b34801561041d57600080fd5b50610438600480360381019061043391906131fe565b6111cc565b005b34801561044657600080fd5b50610461600480360381019061045c9190612d00565b6111e2565b005b34801561046f57600080fd5b5061048a600480360381019061048591906132df565b61127c565b005b6104a660048036038101906104a19190612d00565b611299565b005b3480156104b457600080fd5b506104bd6114e1565b6040516104ca9190612f7c565b60405180910390f35b3480156104df57600080fd5b506104fa60048036038101906104f59190612d00565b6114e7565b6040516105079190612ca8565b60405180910390f35b61052a60048036038101906105259190613362565b6115fa565b005b34801561053857600080fd5b50610553600480360381019061054e91906133a2565b6117ff565b6040516105609190612bfd565b60405180910390f35b6000634906490660e01b7bffffffffffffffffffffffffffffffffffffffffffffffffffffffff1916827bffffffffffffffffffffffffffffffffffffffffffffffffffffffff191614806105c357506105c282611893565b5b9050919050565b6060600080546105d990613411565b80601f016020809104026020016040519081016040528092919081815260200182805461060590613411565b80156106525780601f1061062757610100808354040283529160200191610652565b820191906000526020600020905b81548152906001019060200180831161063557829003601f168201915b5050505050905090565b600061066782611975565b50610671826119fd565b9050919050565b61068a8282610685611a3a565b611a42565b5050565b60606000600754905060006008546007546106a99190613471565b90506000808267ffffffffffffffff8111156106c8576106c7613021565b5b60405190808252806020026020018201604052801561070157816020015b6106ee612aec565b8152602001906001900390816106e65790505b50905060005b848110156108d0573073ffffffffffffffffffffffffffffffffffffffff16600b600060018461073791906134a5565b815260200190815260200160002060020160009054906101000a900473ffffffffffffffffffffffffffffffffffffffff1673ffffffffffffffffffffffffffffffffffffffff16036108c357600060018261079391906134a5565b90506000600b60008381526020019081526020016000209050806040518060a0016040529081600082015481526020016001820160009054906101000a900473ffffffffffffffffffffffffffffffffffffffff1673ffffffffffffffffffffffffffffffffffffffff1673ffffffffffffffffffffffffffffffffffffffff1681526020016002820160009054906101000a900473ffffffffffffffffffffffffffffffffffffffff1673ffffffffffffffffffffffffffffffffffffffff1673ffffffffffffffffffffffffffffffffffffffff168152602001600382015481526020016004820160009054906101000a900460ff1615151515815250508486815181106108a6576108a56134d9565b5b60200260200101819052506001856108be91906134a5565b945050505b8080600101915050610707565b508094505050505090565b6000600954905090565b60606000600754905060008060005b8381101561098e573373ffffffffffffffffffffffffffffffffffffffff16600b600060018461092491906134a5565b815260200190815260200160002060020160009054906101000a900473ffffffffffffffffffffffffffffffffffffffff1673ffffffffffffffffffffffffffffffffffffffff16036109815760018361097e91906134a5565b92505b80806001019150506108f4565b5060008267ffffffffffffffff8111156109ab576109aa613021565b5b6040519080825280602002602001820160405280156109e457816020015b6109d1612aec565b8152602001906001900390816109c95790505b50905060005b84811015610bb3573373ffffffffffffffffffffffffffffffffffffffff16600b6000600184610a1a91906134a5565b815260200190815260200160002060020160009054906101000a900473ffffffffffffffffffffffffffffffffffffffff1673ffffffffffffffffffffffffffffffffffffffff1603610ba6576000600182610a7691906134a5565b90506000600b60008381526020019081526020016000209050806040518060a0016040529081600082015481526020016001820160009054906101000a900473ffffffffffffffffffffffffffffffffffffffff1673ffffffffffffffffffffffffffffffffffffffff1673ffffffffffffffffffffffffffffffffffffffff1681526020016002820160009054906101000a900473ffffffffffffffffffffffffffffffffffffffff1673ffffffffffffffffffffffffffffffffffffffff1673ffffffffffffffffffffffffffffffffffffffff168152602001600382015481526020016004820160009054906101000a900460ff161515151581525050848681518110610b8957610b886134d9565b5b6020026020010181905250600185610ba191906134a5565b945050505b80806001019150506109ea565b508094505050505090565b600073ffffffffffffffffffffffffffffffffffffffff168273ffffffffffffffffffffffffffffffffffffffff1603610c305760006040517f64a0ae92000000000000000000000000000000000000000000000000000000008152600401610c279190612d6e565b60405180910390fd5b6000610c448383610c3f611a3a565b611a54565b90508373ffffffffffffffffffffffffffffffffffffffff168173ffffffffffffffffffffffffffffffffffffffff1614610cba578382826040517f64283d7b000000000000000000000000000000000000000000000000000000008152600401610cb193929190613508565b60405180910390fd5b50505050565b610cdb8383836040518060200160405280600081525061127c565b505050565b60606000600754905060008060005b83811015610d89573373ffffffffffffffffffffffffffffffffffffffff16600b6000600184610d1f91906134a5565b815260200190815260200160002060010160009054906101000a900473ffffffffffffffffffffffffffffffffffffffff1673ffffffffffffffffffffffffffffffffffffffff1603610d7c57600183610d7991906134a5565b92505b8080600101915050610cef565b5060008267ffffffffffffffff811115610da657610da5613021565b5b604051908082528060200260200182016040528015610ddf57816020015b610dcc612aec565b815260200190600190039081610dc45790505b50905060005b84811015610fae573373ffffffffffffffffffffffffffffffffffffffff16600b6000600184610e1591906134a5565b815260200190815260200160002060010160009054906101000a900473ffffffffffffffffffffffffffffffffffffffff1673ffffffffffffffffffffffffffffffffffffffff1603610fa1576000600182610e7191906134a5565b90506000600b60008381526020019081526020016000209050806040518060a0016040529081600082015481526020016001820160009054906101000a900473ffffffffffffffffffffffffffffffffffffffff1673ffffffffffffffffffffffffffffffffffffffff1673ffffffffffffffffffffffffffffffffffffffff1681526020016002820160009054906101000a900473ffffffffffffffffffffffffffffffffffffffff1673ffffffffffffffffffffffffffffffffffffffff1673ffffffffffffffffffffffffffffffffffffffff168152602001600382015481526020016004820160009054906101000a900460ff161515151581525050848681518110610f8457610f836134d9565b5b6020026020010181905250600185610f9c91906134a5565b945050505b8080600101915050610de5565b508094505050505090565b6000610fc482611975565b9050919050565b60008073ffffffffffffffffffffffffffffffffffffffff168273ffffffffffffffffffffffffffffffffffffffff160361103e5760006040517f89c62b640000000000000000000000000000000000000000000000000000000081526004016110359190612d6e565b60405180910390fd5b600360008373ffffffffffffffffffffffffffffffffffffffff1673ffffffffffffffffffffffffffffffffffffffff168152602001908152602001600020549050919050565b600060095434146110cb576040517f08c379a00000000000000000000000000000000000000000000000000000000081526004016110c29061358b565b60405180910390fd5b6001600760008282546110de91906134a5565b92505081905550600060075490506110f63382611c6e565b6111008185611d67565b61110a8184611dc3565b8091505092915050565b600a60009054906101000a900473ffffffffffffffffffffffffffffffffffffffff1681565b60606001805461114990613411565b80601f016020809104026020016040519081016040528092919081815260200182805461117590613411565b80156111c25780601f10611197576101008083540402835291602001916111c2565b820191906000526020600020905b8154815290600101906020018083116111a557829003601f168201915b5050505050905090565b6111de6111d7611a3a565b8383611fc7565b5050565b3373ffffffffffffffffffffffffffffffffffffffff16600a60009054906101000a900473ffffffffffffffffffffffffffffffffffffffff1673ffffffffffffffffffffffffffffffffffffffff1614611272576040517f08c379a00000000000000000000000000000000000000000000000000000000081526004016112699061361d565b60405180910390fd5b8060098190555050565b611287848484610bbe565b61129384848484612136565b50505050565b6000600b60008381526020019081526020016000206003015490508034146112f6576040517f08c379a00000000000000000000000000000000000000000000000000000000081526004016112ed90613689565b60405180910390fd5b33600b600084815260200190815260200160002060020160006101000a81548173ffffffffffffffffffffffffffffffffffffffff021916908373ffffffffffffffffffffffffffffffffffffffff1602179055506001600b600084815260200190815260200160002060040160006101000a81548160ff0219169083151502179055506000600b600084815260200190815260200160002060010160006101000a81548173ffffffffffffffffffffffffffffffffffffffff021916908373ffffffffffffffffffffffffffffffffffffffff1602179055506001600860008282546113e391906134a5565b925050819055506113f53033846122ed565b600a60009054906101000a900473ffffffffffffffffffffffffffffffffffffffff1673ffffffffffffffffffffffffffffffffffffffff166108fc6009549081150290604051600060405180830381858888f1935050505015801561145f573d6000803e3d6000fd5b50600b600083815260200190815260200160002060010160009054906101000a900473ffffffffffffffffffffffffffffffffffffffff1673ffffffffffffffffffffffffffffffffffffffff166108fc349081150290604051600060405180830381858888f193505050501580156114dc573d6000803e3d6000fd5b505050565b60095481565b60606114f282611975565b50600060066000848152602001908152602001600020805461151390613411565b80601f016020809104026020016040519081016040528092919081815260200182805461153f90613411565b801561158c5780601f106115615761010080835404028352916020019161158c565b820191906000526020600020905b81548152906001019060200180831161156f57829003601f168201915b50505050509050600061159d61245a565b905060008151036115b25781925050506115f5565b6000825111156115e75780826040516020016115cf9291906136e5565b604051602081830303815290604052925050506115f5565b6115f084612471565b925050505b919050565b3373ffffffffffffffffffffffffffffffffffffffff16600b600084815260200190815260200160002060020160009054906101000a900473ffffffffffffffffffffffffffffffffffffffff1673ffffffffffffffffffffffffffffffffffffffff161461169e576040517f08c379a00000000000000000000000000000000000000000000000000000000081526004016116959061377b565b60405180910390fd5b60095434146116e2576040517f08c379a00000000000000000000000000000000000000000000000000000000081526004016116d99061380d565b60405180910390fd5b6000600b600084815260200190815260200160002060040160006101000a81548160ff02191690831515021790555080600b60008481526020019081526020016000206003018190555033600b600084815260200190815260200160002060010160006101000a81548173ffffffffffffffffffffffffffffffffffffffff021916908373ffffffffffffffffffffffffffffffffffffffff16021790555030600b600084815260200190815260200160002060020160006101000a81548173ffffffffffffffffffffffffffffffffffffffff021916908373ffffffffffffffffffffffffffffffffffffffff1602179055506001600860008282546117e99190613471565b925050819055506117fb3330846122ed565b5050565b6000600560008473ffffffffffffffffffffffffffffffffffffffff1673ffffffffffffffffffffffffffffffffffffffff16815260200190815260200160002060008373ffffffffffffffffffffffffffffffffffffffff1673ffffffffffffffffffffffffffffffffffffffff16815260200190815260200160002060009054906101000a900460ff16905092915050565b60007f80ac58cd000000000000000000000000000000000000000000000000000000007bffffffffffffffffffffffffffffffffffffffffffffffffffffffff1916827bffffffffffffffffffffffffffffffffffffffffffffffffffffffff1916148061195e57507f5b5e139f000000000000000000000000000000000000000000000000000000007bffffffffffffffffffffffffffffffffffffffffffffffffffffffff1916827bffffffffffffffffffffffffffffffffffffffffffffffffffffffff1916145b8061196e575061196d826124da565b5b9050919050565b60008061198183612544565b9050600073ffffffffffffffffffffffffffffffffffffffff168173ffffffffffffffffffffffffffffffffffffffff16036119f457826040517f7e2732890000000000000000000000000000000000000000000000000000000081526004016119eb9190612f7c565b60405180910390fd5b80915050919050565b60006004600083815260200190815260200160002060009054906101000a900473ffffffffffffffffffffffffffffffffffffffff169050919050565b600033905090565b611a4f8383836001612581565b505050565b600080611a6084612544565b9050600073ffffffffffffffffffffffffffffffffffffffff168373ffffffffffffffffffffffffffffffffffffffff1614611aa257611aa1818486612746565b5b600073ffffffffffffffffffffffffffffffffffffffff168173ffffffffffffffffffffffffffffffffffffffff1614611b3357611ae4600085600080612581565b6001600360008373ffffffffffffffffffffffffffffffffffffffff1673ffffffffffffffffffffffffffffffffffffffff168152602001908152602001600020600082825403925050819055505b600073ffffffffffffffffffffffffffffffffffffffff168573ffffffffffffffffffffffffffffffffffffffff1614611bb6576001600360008773ffffffffffffffffffffffffffffffffffffffff1673ffffffffffffffffffffffffffffffffffffffff168152602001908152602001600020600082825401925050819055505b846002600086815260200190815260200160002060006101000a81548173ffffffffffffffffffffffffffffffffffffffff021916908373ffffffffffffffffffffffffffffffffffffffff160217905550838573ffffffffffffffffffffffffffffffffffffffff168273ffffffffffffffffffffffffffffffffffffffff167fddf252ad1be2c89b69c2b068fc378daa952ba7f163c4a11628f55a4df523b3ef60405160405180910390a4809150509392505050565b600073ffffffffffffffffffffffffffffffffffffffff168273ffffffffffffffffffffffffffffffffffffffff1603611ce05760006040517f64a0ae92000000000000000000000000000000000000000000000000000000008152600401611cd79190612d6e565b60405180910390fd5b6000611cee83836000611a54565b9050600073ffffffffffffffffffffffffffffffffffffffff168173ffffffffffffffffffffffffffffffffffffffff1614611d625760006040517f73c6ac6e000000000000000000000000000000000000000000000000000000008152600401611d599190612d6e565b60405180910390fd5b505050565b80600660008481526020019081526020016000209081611d8791906139d9565b507ff8e1a15aba9398e019f0b49df1a4fde98ee17ae345cb5f6b5e2c27f5033e8ce782604051611db79190612f7c565b60405180910390a15050565b60008111611e06576040517f08c379a0000000000000000000000000000000000000000000000000000000008152600401611dfd90613af7565b60405180910390fd5b6009543414611e4a576040517f08c379a0000000000000000000000000000000000000000000000000000000008152600401611e4190613b89565b60405180910390fd5b6040518060a001604052808381526020013373ffffffffffffffffffffffffffffffffffffffff168152602001600073ffffffffffffffffffffffffffffffffffffffff16815260200182815260200160001515815250600b60008481526020019081526020016000206000820151816000015560208201518160010160006101000a81548173ffffffffffffffffffffffffffffffffffffffff021916908373ffffffffffffffffffffffffffffffffffffffff16021790555060408201518160020160006101000a81548173ffffffffffffffffffffffffffffffffffffffff021916908373ffffffffffffffffffffffffffffffffffffffff1602179055506060820151816003015560808201518160040160006101000a81548160ff021916908315150217905550905050611f843330846122ed565b817fb640004f1d14576d0c209e240cad0410e0d8c0c33a09375861fbadae2588a98d3330846000604051611fbb9493929190613ba9565b60405180910390a25050565b600073ffffffffffffffffffffffffffffffffffffffff168273ffffffffffffffffffffffffffffffffffffffff160361203857816040517f5b08ba1800000000000000000000000000000000000000000000000000000000815260040161202f9190612d6e565b60405180910390fd5b80600560008573ffffffffffffffffffffffffffffffffffffffff1673ffffffffffffffffffffffffffffffffffffffff16815260200190815260200160002060008473ffffffffffffffffffffffffffffffffffffffff1673ffffffffffffffffffffffffffffffffffffffff16815260200190815260200160002060006101000a81548160ff0219169083151502179055508173ffffffffffffffffffffffffffffffffffffffff168373ffffffffffffffffffffffffffffffffffffffff167f17307eab39ab6107e8899845ad3d59bd9653f200f220920489ca2b5937696c31836040516121299190612bfd565b60405180910390a3505050565b60008373ffffffffffffffffffffffffffffffffffffffff163b11156122e7578273ffffffffffffffffffffffffffffffffffffffff1663150b7a0261217a611a3a565b8685856040518563ffffffff1660e01b815260040161219c9493929190613c43565b6020604051808303816000875af19250505080156121d857506040513d601f19601f820116820180604052508101906121d59190613ca4565b60015b61225c573d8060008114612208576040519150601f19603f3d011682016040523d82523d6000602084013e61220d565b606091505b50600081510361225457836040517f64a0ae9200000000000000000000000000000000000000000000000000000000815260040161224b9190612d6e565b60405180910390fd5b805181602001fd5b63150b7a0260e01b7bffffffffffffffffffffffffffffffffffffffffffffffffffffffff1916817bffffffffffffffffffffffffffffffffffffffffffffffffffffffff1916146122e557836040517f64a0ae920000000000000000000000000000000000000000000000000000000081526004016122dc9190612d6e565b60405180910390fd5b505b50505050565b600073ffffffffffffffffffffffffffffffffffffffff168273ffffffffffffffffffffffffffffffffffffffff160361235f5760006040517f64a0ae920000000000000000000000000000000000000000000000000000000081526004016123569190612d6e565b60405180910390fd5b600061236d83836000611a54565b9050600073ffffffffffffffffffffffffffffffffffffffff168173ffffffffffffffffffffffffffffffffffffffff16036123e057816040517f7e2732890000000000000000000000000000000000000000000000000000000081526004016123d79190612f7c565b60405180910390fd5b8373ffffffffffffffffffffffffffffffffffffffff168173ffffffffffffffffffffffffffffffffffffffff1614612454578382826040517f64283d7b00000000000000000000000000000000000000000000000000000000815260040161244b93929190613508565b60405180910390fd5b50505050565b606060405180602001604052806000815250905090565b606061247c82611975565b50600061248761245a565b905060008151116124a757604051806020016040528060008152506124d2565b806124b18461280a565b6040516020016124c29291906136e5565b6040516020818303038152906040525b915050919050565b60007f01ffc9a7000000000000000000000000000000000000000000000000000000007bffffffffffffffffffffffffffffffffffffffffffffffffffffffff1916827bffffffffffffffffffffffffffffffffffffffffffffffffffffffff1916149050919050565b60006002600083815260200190815260200160002060009054906101000a900473ffffffffffffffffffffffffffffffffffffffff169050919050565b80806125ba5750600073ffffffffffffffffffffffffffffffffffffffff168273ffffffffffffffffffffffffffffffffffffffff1614155b156126ee5760006125ca84611975565b9050600073ffffffffffffffffffffffffffffffffffffffff168373ffffffffffffffffffffffffffffffffffffffff161415801561263557508273ffffffffffffffffffffffffffffffffffffffff168173ffffffffffffffffffffffffffffffffffffffff1614155b8015612648575061264681846117ff565b155b1561268a57826040517fa9fbf51f0000000000000000000000000000000000000000000000000000000081526004016126819190612d6e565b60405180910390fd5b81156126ec57838573ffffffffffffffffffffffffffffffffffffffff168273ffffffffffffffffffffffffffffffffffffffff167f8c5be1e5ebec7d5bd14f71427d1e84f3dd0314c0f7b2291e5b200ac8c7c3b92560405160405180910390a45b505b836004600085815260200190815260200160002060006101000a81548173ffffffffffffffffffffffffffffffffffffffff021916908373ffffffffffffffffffffffffffffffffffffffff16021790555050505050565b6127518383836128d8565b61280557600073ffffffffffffffffffffffffffffffffffffffff168373ffffffffffffffffffffffffffffffffffffffff16036127c657806040517f7e2732890000000000000000000000000000000000000000000000000000000081526004016127bd9190612f7c565b60405180910390fd5b81816040517f177e802f0000000000000000000000000000000000000000000000000000000081526004016127fc929190613cd1565b60405180910390fd5b505050565b60606000600161281984612999565b01905060008167ffffffffffffffff81111561283857612837613021565b5b6040519080825280601f01601f19166020018201604052801561286a5781602001600182028036833780820191505090505b509050600082602001820190505b6001156128cd578080600190039150507f3031323334353637383961626364656600000000000000000000000000000000600a86061a8153600a85816128c1576128c0613cfa565b5b04945060008503612878575b819350505050919050565b60008073ffffffffffffffffffffffffffffffffffffffff168373ffffffffffffffffffffffffffffffffffffffff161415801561299057508273ffffffffffffffffffffffffffffffffffffffff168473ffffffffffffffffffffffffffffffffffffffff161480612951575061295084846117ff565b5b8061298f57508273ffffffffffffffffffffffffffffffffffffffff16612977836119fd565b73ffffffffffffffffffffffffffffffffffffffff16145b5b90509392505050565b600080600090507a184f03e93ff9f4daa797ed6e38ed64bf6a1f01000000000000000083106129f7577a184f03e93ff9f4daa797ed6e38ed64bf6a1f01000000000000000083816129ed576129ec613cfa565b5b0492506040810190505b6d04ee2d6d415b85acef81000000008310612a34576d04ee2d6d415b85acef81000000008381612a2a57612a29613cfa565b5b0492506020810190505b662386f26fc100008310612a6357662386f26fc100008381612a5957612a58613cfa565b5b0492506010810190505b6305f5e1008310612a8c576305f5e1008381612a8257612a81613cfa565b5b0492506008810190505b6127108310612ab1576127108381612aa757612aa6613cfa565b5b0492506004810190505b60648310612ad45760648381612aca57612ac9613cfa565b5b0492506002810190505b600a8310612ae3576001810190505b80915050919050565b6040518060a0016040528060008152602001600073ffffffffffffffffffffffffffffffffffffffff168152602001600073ffffffffffffffffffffffffffffffffffffffff168152602001600081526020016000151581525090565b6000604051905090565b600080fd5b600080fd5b60007fffffffff0000000000000000000000000000000000000000000000000000000082169050919050565b612b9281612b5d565b8114612b9d57600080fd5b50565b600081359050612baf81612b89565b92915050565b600060208284031215612bcb57612bca612b53565b5b6000612bd984828501612ba0565b91505092915050565b60008115159050919050565b612bf781612be2565b82525050565b6000602082019050612c126000830184612bee565b92915050565b600081519050919050565b600082825260208201905092915050565b60005b83811015612c52578082015181840152602081019050612c37565b60008484015250505050565b6000601f19601f8301169050919050565b6000612c7a82612c18565b612c848185612c23565b9350612c94818560208601612c34565b612c9d81612c5e565b840191505092915050565b60006020820190508181036000830152612cc28184612c6f565b905092915050565b6000819050919050565b612cdd81612cca565b8114612ce857600080fd5b50565b600081359050612cfa81612cd4565b92915050565b600060208284031215612d1657612d15612b53565b5b6000612d2484828501612ceb565b91505092915050565b600073ffffffffffffffffffffffffffffffffffffffff82169050919050565b6000612d5882612d2d565b9050919050565b612d6881612d4d565b82525050565b6000602082019050612d836000830184612d5f565b92915050565b612d9281612d4d565b8114612d9d57600080fd5b50565b600081359050612daf81612d89565b92915050565b60008060408385031215612dcc57612dcb612b53565b5b6000612dda85828601612da0565b9250506020612deb85828601612ceb565b9150509250929050565b600081519050919050565b600082825260208201905092915050565b6000819050602082019050919050565b612e2a81612cca565b82525050565b6000612e3b82612d2d565b9050919050565b612e4b81612e30565b82525050565b612e5a81612be2565b82525050565b60a082016000820151612e766000850182612e21565b506020820151612e896020850182612e42565b506040820151612e9c6040850182612e42565b506060820151612eaf6060850182612e21565b506080820151612ec26080850182612e51565b50505050565b6000612ed48383612e60565b60a08301905092915050565b6000602082019050919050565b6000612ef882612df5565b612f028185612e00565b9350612f0d83612e11565b8060005b83811015612f3e578151612f258882612ec8565b9750612f3083612ee0565b925050600181019050612f11565b5085935050505092915050565b60006020820190508181036000830152612f658184612eed565b905092915050565b612f7681612cca565b82525050565b6000602082019050612f916000830184612f6d565b92915050565b600080600060608486031215612fb057612faf612b53565b5b6000612fbe86828701612da0565b9350506020612fcf86828701612da0565b9250506040612fe086828701612ceb565b9150509250925092565b60006020828403121561300057612fff612b53565b5b600061300e84828501612da0565b91505092915050565b600080fd5b600080fd5b7f4e487b7100000000000000000000000000000000000000000000000000000000600052604160045260246000fd5b61305982612c5e565b810181811067ffffffffffffffff8211171561307857613077613021565b5b80604052505050565b600061308b612b49565b90506130978282613050565b919050565b600067ffffffffffffffff8211156130b7576130b6613021565b5b6130c082612c5e565b9050602081019050919050565b82818337600083830152505050565b60006130ef6130ea8461309c565b613081565b90508281526020810184848401111561310b5761310a61301c565b5b6131168482856130cd565b509392505050565b600082601f83011261313357613132613017565b5b81356131438482602086016130dc565b91505092915050565b6000806040838503121561316357613162612b53565b5b600083013567ffffffffffffffff81111561318157613180612b58565b5b61318d8582860161311e565b925050602061319e85828601612ceb565b9150509250929050565b6131b181612e30565b82525050565b60006020820190506131cc60008301846131a8565b92915050565b6131db81612be2565b81146131e657600080fd5b50565b6000813590506131f8816131d2565b92915050565b6000806040838503121561321557613214612b53565b5b600061322385828601612da0565b9250506020613234858286016131e9565b9150509250929050565b600067ffffffffffffffff82111561325957613258613021565b5b61326282612c5e565b9050602081019050919050565b600061328261327d8461323e565b613081565b90508281526020810184848401111561329e5761329d61301c565b5b6132a98482856130cd565b509392505050565b600082601f8301126132c6576132c5613017565b5b81356132d684826020860161326f565b91505092915050565b600080600080608085870312156132f9576132f8612b53565b5b600061330787828801612da0565b945050602061331887828801612da0565b935050604061332987828801612ceb565b925050606085013567ffffffffffffffff81111561334a57613349612b58565b5b613356878288016132b1565b91505092959194509250565b6000806040838503121561337957613378612b53565b5b600061338785828601612ceb565b925050602061339885828601612ceb565b9150509250929050565b600080604083850312156133b9576133b8612b53565b5b60006133c785828601612da0565b92505060206133d885828601612da0565b9150509250929050565b7f4e487b7100000000000000000000000000000000000000000000000000000000600052602260045260246000fd5b6000600282049050600182168061342957607f821691505b60208210810361343c5761343b6133e2565b5b50919050565b7f4e487b7100000000000000000000000000000000000000000000000000000000600052601160045260246000fd5b600061347c82612cca565b915061348783612cca565b925082820390508181111561349f5761349e613442565b5b92915050565b60006134b082612cca565b91506134bb83612cca565b92508282019050808211156134d3576134d2613442565b5b92915050565b7f4e487b7100000000000000000000000000000000000000000000000000000000600052603260045260246000fd5b600060608201905061351d6000830186612d5f565b61352a6020830185612f6d565b6135376040830184612d5f565b949350505050565b7f496e73756666696369656e74206c697374696e67207072696365000000000000600082015250565b6000613575601a83612c23565b91506135808261353f565b602082019050919050565b600060208201905081810360008301526135a481613568565b9050919050565b7f4f6e6c7920746865206f776e65722063616e20706572666f726d20746869732060008201527f616374696f6e0000000000000000000000000000000000000000000000000000602082015250565b6000613607602683612c23565b9150613612826135ab565b604082019050919050565b60006020820190508181036000830152613636816135fa565b9050919050565b7f506c65617365207375626d6974207468652061736b6564207072696365000000600082015250565b6000613673601d83612c23565b915061367e8261363d565b602082019050919050565b600060208201905081810360008301526136a281613666565b9050919050565b600081905092915050565b60006136bf82612c18565b6136c981856136a9565b93506136d9818560208601612c34565b80840191505092915050565b60006136f182856136b4565b91506136fd82846136b4565b91508190509392505050565b7f4f6e6c7920746865206f776e65722063616e20706572666f726d20746869732060008201527f6f7065726174696f6e0000000000000000000000000000000000000000000000602082015250565b6000613765602983612c23565b915061377082613709565b604082019050919050565b6000602082019050818103600083015261379481613758565b9050919050565b7f5072696365206d75737420626520657175616c20746f20746865206c6973746960008201527f6e67207072696365000000000000000000000000000000000000000000000000602082015250565b60006137f7602883612c23565b91506138028261379b565b604082019050919050565b60006020820190508181036000830152613826816137ea565b9050919050565b60008190508160005260206000209050919050565b60006020601f8301049050919050565b600082821b905092915050565b60006008830261388f7fffffffffffffffffffffffffffffffffffffffffffffffffffffffffffffffff82613852565b6138998683613852565b95508019841693508086168417925050509392505050565b6000819050919050565b60006138d66138d16138cc84612cca565b6138b1565b612cca565b9050919050565b6000819050919050565b6138f0836138bb565b6139046138fc826138dd565b84845461385f565b825550505050565b600090565b61391961390c565b6139248184846138e7565b505050565b5b818110156139485761393d600082613911565b60018101905061392a565b5050565b601f82111561398d5761395e8161382d565b61396784613842565b81016020851015613976578190505b61398a61398285613842565b830182613929565b50505b505050565b600082821c905092915050565b60006139b060001984600802613992565b1980831691505092915050565b60006139c9838361399f565b9150826002028217905092915050565b6139e282612c18565b67ffffffffffffffff8111156139fb576139fa613021565b5b613a058254613411565b613a1082828561394c565b600060209050601f831160018114613a435760008415613a31578287015190505b613a3b85826139bd565b865550613aa3565b601f198416613a518661382d565b60005b82811015613a7957848901518255600182019150602085019450602081019050613a54565b86831015613a965784890151613a92601f89168261399f565b8355505b6001600288020188555050505b505050505050565b7f5072696365206d757374206265206174206c6561737420310000000000000000600082015250565b6000613ae1601883612c23565b9150613aec82613aab565b602082019050919050565b60006020820190508181036000830152613b1081613ad4565b9050919050565b7f5072696365206d75737420626520657175616c20746f206c697374696e67207060008201527f7269636500000000000000000000000000000000000000000000000000000000602082015250565b6000613b73602483612c23565b9150613b7e82613b17565b604082019050919050565b60006020820190508181036000830152613ba281613b66565b9050919050565b6000608082019050613bbe6000830187612d5f565b613bcb6020830186612d5f565b613bd86040830185612f6d565b613be56060830184612bee565b95945050505050565b600081519050919050565b600082825260208201905092915050565b6000613c1582613bee565b613c1f8185613bf9565b9350613c2f818560208601612c34565b613c3881612c5e565b840191505092915050565b6000608082019050613c586000830187612d5f565b613c656020830186612d5f565b613c726040830185612f6d565b8181036060830152613c848184613c0a565b905095945050505050565b600081519050613c9e81612b89565b92915050565b600060208284031215613cba57613cb9612b53565b5b6000613cc884828501613c8f565b91505092915050565b6000604082019050613ce66000830185612d5f565b613cf36020830184612f6d565b9392505050565b7f4e487b7100000000000000000000000000000000000000000000000000000000600052601260045260246000fdfea2646970667358221220d5761b1eb016cb277727b095c8ea14165d84290ff80115f9925994d551909bef64736f6c634300081b0033",
  "linkReferences": {},
  "deployedLinkReferences": {}
}