{
  "_format": "hh-sol-artifact-1",
  "contractName": "NFTMarketplace",
  "sourceName": "contracts/NFTMarketplace.sol",
  "abi": [
    {
      "inputs": [],
      "stateMutability": "nonpayable",
      "type": "constructor"
    },
    {
      "inputs": [
        {
          "internalType": "address",
          "name": "sender",
          "type": "address"
        },
        {
          "internalType": "uint256",
          "name": "tokenId",
          "type": "uint256"
        },
        {
          "internalType": "address",
          "name": "owner",
          "type": "address"
        }
      ],
      "name": "ERC721IncorrectOwner",
      "type": "error"
    },
    {
      "inputs": [
        {
          "internalType": "address",
          "name": "operator",
          "type": "address"
        },
        {
          "internalType": "uint256",
          "name": "tokenId",
          "type": "uint256"
        }
      ],
      "name": "ERC721InsufficientApproval",
      "type": "error"
    },
    {
      "inputs": [
        {
          "internalType": "address",
          "name": "approver",
          "type": "address"
        }
      ],
      "name": "ERC721InvalidApprover",
      "type": "error"
    },
    {
      "inputs": [
        {
          "internalType": "address",
          "name": "operator",
          "type": "address"
        }
      ],
      "name": "ERC721InvalidOperator",
      "type": "error"
    },
    {
      "inputs": [
        {
          "internalType": "address",
          "name": "owner",
          "type": "address"
        }
      ],
      "name": "ERC721InvalidOwner",
      "type": "error"
    },
    {
      "inputs": [
        {
          "internalType": "address",
          "name": "receiver",
          "type": "address"
        }
      ],
      "name": "ERC721InvalidReceiver",
      "type": "error"
    },
    {
      "inputs": [
        {
          "internalType": "address",
          "name": "sender",
          "type": "address"
        }
      ],
      "name": "ERC721InvalidSender",
      "type": "error"
    },
    {
      "inputs": [
        {
          "internalType": "uint256",
          "name": "tokenId",
          "type": "uint256"
        }
      ],
      "name": "ERC721NonexistentToken",
      "type": "error"
    },
    {
      "anonymous": false,
      "inputs": [
        {
          "indexed": true,
          "internalType": "address",
          "name": "owner",
          "type": "address"
        },
        {
          "indexed": true,
          "internalType": "address",
          "name": "approved",
          "type": "address"
        },
        {
          "indexed": true,
          "internalType": "uint256",
          "name": "tokenId",
          "type": "uint256"
        }
      ],
      "name": "Approval",
      "type": "event"
    },
    {
      "anonymous": false,
      "inputs": [
        {
          "indexed": true,
          "internalType": "address",
          "name": "owner",
          "type": "address"
        },
        {
          "indexed": true,
          "internalType": "address",
          "name": "operator",
          "type": "address"
        },
        {
          "indexed": false,
          "internalType": "bool",
          "name": "approved",
          "type": "bool"
        }
      ],
      "name": "ApprovalForAll",
      "type": "event"
    },
    {
      "anonymous": false,
      "inputs": [
        {
          "indexed": false,
          "internalType": "uint256",
          "name": "_fromTokenId",
          "type": "uint256"
        },
        {
          "indexed": false,
          "internalType": "uint256",
          "name": "_toTokenId",
          "type": "uint256"
        }
      ],
      "name": "BatchMetadataUpdate",
      "type": "event"
    },
    {
      "anonymous": false,
      "inputs": [
        {
          "indexed": true,
          "internalType": "uint256",
          "name": "tokenId",
          "type": "uint256"
        },
        {
          "indexed": false,
          "internalType": "address",
          "name": "seller",
          "type": "address"
        },
        {
          "indexed": false,
          "internalType": "address",
          "name": "owner",
          "type": "address"
        },
        {
          "indexed": false,
          "internalType": "uint256",
          "name": "price",
          "type": "uint256"
        },
        {
          "indexed": false,
          "internalType": "bool",
          "name": "sold",
          "type": "bool"
        }
      ],
      "name": "MarketItemCreated",
      "type": "event"
    },
    {
      "anonymous": false,
      "inputs": [
        {
          "indexed": false,
          "internalType": "uint256",
          "name": "_tokenId",
          "type": "uint256"
        }
      ],
      "name": "MetadataUpdate",
      "type": "event"
    },
    {
      "anonymous": false,
      "inputs": [
        {
          "indexed": true,
          "internalType": "uint256",
          "name": "tokenId",
          "type": "uint256"
        },
        {
          "indexed": false,
          "internalType": "address",
          "name": "owner",
          "type": "address"
        }
      ],
      "name": "TokenCreated",
      "type": "event"
    },
    {
      "anonymous": false,
      "inputs": [
        {
          "indexed": true,
          "internalType": "address",
          "name": "from",
          "type": "address"
        },
        {
          "indexed": true,
          "internalType": "address",
          "name": "to",
          "type": "address"
        },
        {
          "indexed": true,
          "internalType": "uint256",
          "name": "tokenId",
          "type": "uint256"
        }
      ],
      "name": "Transfer",
      "type": "event"
    },
    {
      "inputs": [
        {
          "internalType": "address",
          "name": "to",
          "type": "address"
        },
        {
          "internalType": "uint256",
          "name": "tokenId",
          "type": "uint256"
        }
      ],
      "name": "approve",
      "outputs": [],
      "stateMutability": "nonpayable",
      "type": "function"
    },
    {
      "inputs": [
        {
          "internalType": "address",
          "name": "owner",
          "type": "address"
        }
      ],
      "name": "balanceOf",
      "outputs": [
        {
          "internalType": "uint256",
          "name": "",
          "type": "uint256"
        }
      ],
      "stateMutability": "view",
      "type": "function"
    },
    {
      "inputs": [
        {
          "internalType": "uint256",
          "name": "tokenId",
          "type": "uint256"
        }
      ],
      "name": "createMarketSale",
      "outputs": [],
      "stateMutability": "payable",
      "type": "function"
    },
    {
      "inputs": [
        {
          "internalType": "string",
          "name": "tokenURI",
          "type": "string"
        },
        {
          "internalType": "uint256",
          "name": "price",
          "type": "uint256"
        }
      ],
      "name": "createToken",
      "outputs": [
        {
          "internalType": "uint256",
          "name": "",
          "type": "uint256"
        }
      ],
      "stateMutability": "payable",
      "type": "function"
    },
    {
      "inputs": [],
      "name": "fetchItemsListed",
      "outputs": [
        {
          "components": [
            {
              "internalType": "uint256",
              "name": "tokenId",
              "type": "uint256"
            },
            {
              "internalType": "address payable",
              "name": "seller",
              "type": "address"
            },
            {
              "internalType": "address payable",
              "name": "owner",
              "type": "address"
            },
            {
              "internalType": "uint256",
              "name": "price",
              "type": "uint256"
            },
            {
              "internalType": "bool",
              "name": "sold",
              "type": "bool"
            }
          ],
          "internalType": "struct NFTMarketplace.MarketItem[]",
          "name": "",
          "type": "tuple[]"
        }
      ],
      "stateMutability": "view",
      "type": "function"
    },
    {
      "inputs": [],
      "name": "fetchMarketItems",
      "outputs": [
        {
          "components": [
            {
              "internalType": "uint256",
              "name": "tokenId",
              "type": "uint256"
            },
            {
              "internalType": "address payable",
              "name": "seller",
              "type": "address"
            },
            {
              "internalType": "address payable",
              "name": "owner",
              "type": "address"
            },
            {
              "internalType": "uint256",
              "name": "price",
              "type": "uint256"
            },
            {
              "internalType": "bool",
              "name": "sold",
              "type": "bool"
            }
          ],
          "internalType": "struct NFTMarketplace.MarketItem[]",
          "name": "",
          "type": "tuple[]"
        }
      ],
      "stateMutability": "view",
      "type": "function"
    },
    {
      "inputs": [],
      "name": "fetchMyNFTs",
      "outputs": [
        {
          "components": [
            {
              "internalType": "uint256",
              "name": "tokenId",
              "type": "uint256"
            },
            {
              "internalType": "address payable",
              "name": "seller",
              "type": "address"
            },
            {
              "internalType": "address payable",
              "name": "owner",
              "type": "address"
            },
            {
              "internalType": "uint256",
              "name": "price",
              "type": "uint256"
            },
            {
              "internalType": "bool",
              "name": "sold",
              "type": "bool"
            }
          ],
          "internalType": "struct NFTMarketplace.MarketItem[]",
          "name": "",
          "type": "tuple[]"
        }
      ],
      "stateMutability": "view",
      "type": "function"
    },
    {
      "inputs": [
        {
          "internalType": "uint256",
          "name": "tokenId",
          "type": "uint256"
        }
      ],
      "name": "getApproved",
      "outputs": [
        {
          "internalType": "address",
          "name": "",
          "type": "address"
        }
      ],
      "stateMutability": "view",
      "type": "function"
    },
    {
      "inputs": [],
      "name": "getListingPrice",
      "outputs": [
        {
          "internalType": "uint256",
          "name": "",
          "type": "uint256"
        }
      ],
      "stateMutability": "view",
      "type": "function"
    },
    {
      "inputs": [
        {
          "internalType": "address",
          "name": "owner",
          "type": "address"
        },
        {
          "internalType": "address",
          "name": "operator",
          "type": "address"
        }
      ],
      "name": "isApprovedForAll",
      "outputs": [
        {
          "internalType": "bool",
          "name": "",
          "type": "bool"
        }
      ],
      "stateMutability": "view",
      "type": "function"
    },
    {
      "inputs": [],
      "name": "listingPrice",
      "outputs": [
        {
          "internalType": "uint256",
          "name": "",
          "type": "uint256"
        }
      ],
      "stateMutability": "view",
      "type": "function"
    },
    {
      "inputs": [],
      "name": "name",
      "outputs": [
        {
          "internalType": "string",
          "name": "",
          "type": "string"
        }
      ],
      "stateMutability": "view",
      "type": "function"
    },
    {
      "inputs": [],
      "name": "owner",
      "outputs": [
        {
          "internalType": "address payable",
          "name": "",
          "type": "address"
        }
      ],
      "stateMutability": "view",
      "type": "function"
    },
    {
      "inputs": [
        {
          "internalType": "uint256",
          "name": "tokenId",
          "type": "uint256"
        }
      ],
      "name": "ownerOf",
      "outputs": [
        {
          "internalType": "address",
          "name": "",
          "type": "address"
        }
      ],
      "stateMutability": "view",
      "type": "function"
    },
    {
      "inputs": [
        {
          "internalType": "uint256",
          "name": "tokenId",
          "type": "uint256"
        },
        {
          "internalType": "uint256",
          "name": "price",
          "type": "uint256"
        }
      ],
      "name": "resellToken",
      "outputs": [],
      "stateMutability": "payable",
      "type": "function"
    },
    {
      "inputs": [
        {
          "internalType": "address",
          "name": "from",
          "type": "address"
        },
        {
          "internalType": "address",
          "name": "to",
          "type": "address"
        },
        {
          "internalType": "uint256",
          "name": "tokenId",
          "type": "uint256"
        }
      ],
      "name": "safeTransferFrom",
      "outputs": [],
      "stateMutability": "nonpayable",
      "type": "function"
    },
    {
      "inputs": [
        {
          "internalType": "address",
          "name": "from",
          "type": "address"
        },
        {
          "internalType": "address",
          "name": "to",
          "type": "address"
        },
        {
          "internalType": "uint256",
          "name": "tokenId",
          "type": "uint256"
        },
        {
          "internalType": "bytes",
          "name": "data",
          "type": "bytes"
        }
      ],
      "name": "safeTransferFrom",
      "outputs": [],
      "stateMutability": "nonpayable",
      "type": "function"
    },
    {
      "inputs": [
        {
          "internalType": "address",
          "name": "operator",
          "type": "address"
        },
        {
          "internalType": "bool",
          "name": "approved",
          "type": "bool"
        }
      ],
      "name": "setApprovalForAll",
      "outputs": [],
      "stateMutability": "nonpayable",
      "type": "function"
    },
    {
      "inputs": [
        {
          "internalType": "bytes4",
          "name": "interfaceId",
          "type": "bytes4"
        }
      ],
      "name": "supportsInterface",
      "outputs": [
        {
          "internalType": "bool",
          "name": "",
          "type": "bool"
        }
      ],
      "stateMutability": "view",
      "type": "function"
    },
    {
      "inputs": [],
      "name": "symbol",
      "outputs": [
        {
          "internalType": "string",
          "name": "",
          "type": "string"
        }
      ],
      "stateMutability": "view",
      "type": "function"
    },
    {
      "inputs": [
        {
          "internalType": "uint256",
          "name": "tokenId",
          "type": "uint256"
        }
      ],
      "name": "tokenURI",
      "outputs": [
        {
          "internalType": "string",
          "name": "",
          "type": "string"
        }
      ],
      "stateMutability": "view",
      "type": "function"
    },
    {
      "inputs": [
        {
          "internalType": "address",
          "name": "from",
          "type": "address"
        },
        {
          "internalType": "address",
          "name": "to",
          "type": "address"
        },
        {
          "internalType": "uint256",
          "name": "tokenId",
          "type": "uint256"
        }
      ],
      "name": "transferFrom",
      "outputs": [],
      "stateMutability": "nonpayable",
      "type": "function"
    },
    {
      "inputs": [
        {
          "internalType": "uint256",
          "name": "_listingPrice",
          "type": "uint256"
        }
      ],
      "name": "updateListingPrice",
      "outputs": [],
      "stateMutability": "nonpayable",
      "type": "function"
    }
  ],
  "bytecode": "0x60806040526658d15e1762800060095534801561001b57600080fd5b506040518060400160405280600f81526020017f4e4654204d61726b6574706c61636500000000000000000000000000000000008152506040518060400160405280600481526020017f4e46544d0000000000000000000000000000000000000000000000000000000081525081600090816100979190610340565b5080600190816100a79190610340565b50505033600a60006101000a81548173ffffffffffffffffffffffffffffffffffffffff021916908373ffffffffffffffffffffffffffffffffffffffff160217905550610412565b600081519050919050565b7f4e487b7100000000000000000000000000000000000000000000000000000000600052604160045260246000fd5b7f4e487b7100000000000000000000000000000000000000000000000000000000600052602260045260246000fd5b6000600282049050600182168061017157607f821691505b6020821081036101845761018361012a565b5b50919050565b60008190508160005260206000209050919050565b60006020601f8301049050919050565b600082821b905092915050565b6000600883026101ec7fffffffffffffffffffffffffffffffffffffffffffffffffffffffffffffffff826101af565b6101f686836101af565b95508019841693508086168417925050509392505050565b6000819050919050565b6000819050919050565b600061023d6102386102338461020e565b610218565b61020e565b9050919050565b6000819050919050565b61025783610222565b61026b61026382610244565b8484546101bc565b825550505050565b600090565b610280610273565b61028b81848461024e565b505050565b5b818110156102af576102a4600082610278565b600181019050610291565b5050565b601f8211156102f4576102c58161018a565b6102ce8461019f565b810160208510156102dd578190505b6102f16102e98561019f565b830182610290565b50505b505050565b600082821c905092915050565b6000610317600019846008026102f9565b1980831691505092915050565b60006103308383610306565b9150826002028217905092915050565b610349826100f0565b67ffffffffffffffff811115610362576103616100fb565b5b61036c8254610159565b6103778282856102b3565b600060209050601f8311600181146103aa5760008415610398578287015190505b6103a28582610324565b86555061040a565b601f1984166103b88661018a565b60005b828110156103e0578489015182556001820191506020850194506020810190506103bb565b868310156103fd57848901516103f9601f891682610306565b8355505b6001600288020188555050505b505050505050565b613d9c806104216000396000f3fe6080604052600436106101405760003560e01c806370a08231116100b6578063b88d4fde1161006f578063b88d4fde14610463578063be9af5361461048c578063c78f19f9146104a8578063c87b56dd146104d3578063e219fc7514610510578063e985e9c51461052c57610140565b806370a082311461034e57806372b3b6201461038b5780638da5cb5b146103bb57806395d89b41146103e6578063a22cb46514610411578063ae677aa31461043a57610140565b806312e855851161010857806312e855851461023e578063202e37401461026957806323b872dd1461029457806342842e0e146102bd57806345f8fa80146102e65780636352211e1461031157610140565b806301ffc9a71461014557806306fdde0314610182578063081812fc146101ad578063095ea7b3146101ea5780630f08efe014610213575b600080fd5b34801561015157600080fd5b5061016c60048036038101906101679190612bf2565b610569565b6040516101799190612c3a565b60405180910390f35b34801561018e57600080fd5b506101976105ca565b6040516101a49190612ce5565b60405180910390f35b3480156101b957600080fd5b506101d460048036038101906101cf9190612d3d565b61065c565b6040516101e19190612dab565b60405180910390f35b3480156101f657600080fd5b50610211600480360381019061020c9190612df2565b610678565b005b34801561021f57600080fd5b5061022861068e565b6040516102359190612f88565b60405180910390f35b34801561024a57600080fd5b506102536108db565b6040516102609190612fb9565b60405180910390f35b34801561027557600080fd5b5061027e6108e5565b60405161028b9190612f88565b60405180910390f35b3480156102a057600080fd5b506102bb60048036038101906102b69190612fd4565b610bbe565b005b3480156102c957600080fd5b506102e460048036038101906102df9190612fd4565b610cc0565b005b3480156102f257600080fd5b506102fb610ce0565b6040516103089190612f88565b60405180910390f35b34801561031d57600080fd5b5061033860048036038101906103339190612d3d565b610fb9565b6040516103459190612dab565b60405180910390f35b34801561035a57600080fd5b5061037560048036038101906103709190613027565b610fcb565b6040516103829190612fb9565b60405180910390f35b6103a560048036038101906103a09190613189565b611085565b6040516103b29190612fb9565b60405180910390f35b3480156103c757600080fd5b506103d061114c565b6040516103dd91906131f4565b60405180910390f35b3480156103f257600080fd5b506103fb611172565b6040516104089190612ce5565b60405180910390f35b34801561041d57600080fd5b506104386004803603810190610433919061323b565b611204565b005b34801561044657600080fd5b50610461600480360381019061045c9190612d3d565b61121a565b005b34801561046f57600080fd5b5061048a6004803603810190610485919061331c565b6112b4565b005b6104a660048036038101906104a19190612d3d565b6112d1565b005b3480156104b457600080fd5b506104bd61151f565b6040516104ca9190612fb9565b60405180910390f35b3480156104df57600080fd5b506104fa60048036038101906104f59190612d3d565b611525565b6040516105079190612ce5565b60405180910390f35b61052a6004803603810190610525919061339f565b611638565b005b34801561053857600080fd5b50610553600480360381019061054e91906133df565b61183d565b6040516105609190612c3a565b60405180910390f35b6000634906490660e01b7bffffffffffffffffffffffffffffffffffffffffffffffffffffffff1916827bffffffffffffffffffffffffffffffffffffffffffffffffffffffff191614806105c357506105c2826118d1565b5b9050919050565b6060600080546105d99061344e565b80601f01602080910402602001604051908101604052809291908181526020018280546106059061344e565b80156106525780601f1061062757610100808354040283529160200191610652565b820191906000526020600020905b81548152906001019060200180831161063557829003601f168201915b5050505050905090565b6000610667826119b3565b5061067182611a3b565b9050919050565b61068a8282610685611a78565b611a80565b5050565b60606000600754905060006008546007546106a991906134ae565b90506000808267ffffffffffffffff8111156106c8576106c761305e565b5b60405190808252806020026020018201604052801561070157816020015b6106ee612b29565b8152602001906001900390816106e65790505b50905060005b848110156108d0573073ffffffffffffffffffffffffffffffffffffffff16600b600060018461073791906134e2565b815260200190815260200160002060020160009054906101000a900473ffffffffffffffffffffffffffffffffffffffff1673ffffffffffffffffffffffffffffffffffffffff16036108c357600060018261079391906134e2565b90506000600b60008381526020019081526020016000209050806040518060a0016040529081600082015481526020016001820160009054906101000a900473ffffffffffffffffffffffffffffffffffffffff1673ffffffffffffffffffffffffffffffffffffffff1673ffffffffffffffffffffffffffffffffffffffff1681526020016002820160009054906101000a900473ffffffffffffffffffffffffffffffffffffffff1673ffffffffffffffffffffffffffffffffffffffff1673ffffffffffffffffffffffffffffffffffffffff168152602001600382015481526020016004820160009054906101000a900460ff1615151515815250508486815181106108a6576108a5613516565b5b60200260200101819052506001856108be91906134e2565b945050505b8080600101915050610707565b508094505050505090565b6000600954905090565b60606000600754905060008060005b8381101561098e573373ffffffffffffffffffffffffffffffffffffffff16600b600060018461092491906134e2565b815260200190815260200160002060020160009054906101000a900473ffffffffffffffffffffffffffffffffffffffff1673ffffffffffffffffffffffffffffffffffffffff16036109815760018361097e91906134e2565b92505b80806001019150506108f4565b5060008267ffffffffffffffff8111156109ab576109aa61305e565b5b6040519080825280602002602001820160405280156109e457816020015b6109d1612b29565b8152602001906001900390816109c95790505b50905060005b84811015610bb3573373ffffffffffffffffffffffffffffffffffffffff16600b6000600184610a1a91906134e2565b815260200190815260200160002060020160009054906101000a900473ffffffffffffffffffffffffffffffffffffffff1673ffffffffffffffffffffffffffffffffffffffff1603610ba6576000600182610a7691906134e2565b90506000600b60008381526020019081526020016000209050806040518060a0016040529081600082015481526020016001820160009054906101000a900473ffffffffffffffffffffffffffffffffffffffff1673ffffffffffffffffffffffffffffffffffffffff1673ffffffffffffffffffffffffffffffffffffffff1681526020016002820160009054906101000a900473ffffffffffffffffffffffffffffffffffffffff1673ffffffffffffffffffffffffffffffffffffffff1673ffffffffffffffffffffffffffffffffffffffff168152602001600382015481526020016004820160009054906101000a900460ff161515151581525050848681518110610b8957610b88613516565b5b6020026020010181905250600185610ba191906134e2565b945050505b80806001019150506109ea565b508094505050505090565b600073ffffffffffffffffffffffffffffffffffffffff168273ffffffffffffffffffffffffffffffffffffffff1603610c305760006040517f64a0ae92000000000000000000000000000000000000000000000000000000008152600401610c279190612dab565b60405180910390fd5b6000610c448383610c3f611a78565b611a92565b90508373ffffffffffffffffffffffffffffffffffffffff168173ffffffffffffffffffffffffffffffffffffffff1614610cba578382826040517f64283d7b000000000000000000000000000000000000000000000000000000008152600401610cb193929190613545565b60405180910390fd5b50505050565b610cdb838383604051806020016040528060008152506112b4565b505050565b60606000600754905060008060005b83811015610d89573373ffffffffffffffffffffffffffffffffffffffff16600b6000600184610d1f91906134e2565b815260200190815260200160002060010160009054906101000a900473ffffffffffffffffffffffffffffffffffffffff1673ffffffffffffffffffffffffffffffffffffffff1603610d7c57600183610d7991906134e2565b92505b8080600101915050610cef565b5060008267ffffffffffffffff811115610da657610da561305e565b5b604051908082528060200260200182016040528015610ddf57816020015b610dcc612b29565b815260200190600190039081610dc45790505b50905060005b84811015610fae573373ffffffffffffffffffffffffffffffffffffffff16600b6000600184610e1591906134e2565b815260200190815260200160002060010160009054906101000a900473ffffffffffffffffffffffffffffffffffffffff1673ffffffffffffffffffffffffffffffffffffffff1603610fa1576000600182610e7191906134e2565b90506000600b60008381526020019081526020016000209050806040518060a0016040529081600082015481526020016001820160009054906101000a900473ffffffffffffffffffffffffffffffffffffffff1673ffffffffffffffffffffffffffffffffffffffff1673ffffffffffffffffffffffffffffffffffffffff1681526020016002820160009054906101000a900473ffffffffffffffffffffffffffffffffffffffff1673ffffffffffffffffffffffffffffffffffffffff1673ffffffffffffffffffffffffffffffffffffffff168152602001600382015481526020016004820160009054906101000a900460ff161515151581525050848681518110610f8457610f83613516565b5b6020026020010181905250600185610f9c91906134e2565b945050505b8080600101915050610de5565b508094505050505090565b6000610fc4826119b3565b9050919050565b60008073ffffffffffffffffffffffffffffffffffffffff168273ffffffffffffffffffffffffffffffffffffffff160361103e5760006040517f89c62b640000000000000000000000000000000000000000000000000000000081526004016110359190612dab565b60405180910390fd5b600360008373ffffffffffffffffffffffffffffffffffffffff1673ffffffffffffffffffffffffffffffffffffffff168152602001908152602001600020549050919050565b600060095434146110cb576040517f08c379a00000000000000000000000000000000000000000000000000000000081526004016110c2906135c8565b60405180910390fd5b6001600760008282546110de91906134e2565b92505081905550600060075490506110f63382611cac565b6111008185611da5565b61110a8184611e01565b807fc331dc3e37e2ab4d6e65d42a119ffdfab8481b9be24d26704f9f4b4a331d4dd03360405161113a9190612dab565b60405180910390a28091505092915050565b600a60009054906101000a900473ffffffffffffffffffffffffffffffffffffffff1681565b6060600180546111819061344e565b80601f01602080910402602001604051908101604052809291908181526020018280546111ad9061344e565b80156111fa5780601f106111cf576101008083540402835291602001916111fa565b820191906000526020600020905b8154815290600101906020018083116111dd57829003601f168201915b5050505050905090565b61121661120f611a78565b8383612004565b5050565b3373ffffffffffffffffffffffffffffffffffffffff16600a60009054906101000a900473ffffffffffffffffffffffffffffffffffffffff1673ffffffffffffffffffffffffffffffffffffffff16146112aa576040517f08c379a00000000000000000000000000000000000000000000000000000000081526004016112a19061365a565b60405180910390fd5b8060098190555050565b6112bf848484610bbe565b6112cb84848484612173565b50505050565b6000600b600083815260200190815260200160002060030154905080341461132e576040517f08c379a0000000000000000000000000000000000000000000000000000000008152600401611325906136c6565b60405180910390fd5b6000600b600084815260200190815260200160002060010160009054906101000a900473ffffffffffffffffffffffffffffffffffffffff16905033600b600085815260200190815260200160002060020160006101000a81548173ffffffffffffffffffffffffffffffffffffffff021916908373ffffffffffffffffffffffffffffffffffffffff1602179055506001600b600085815260200190815260200160002060040160006101000a81548160ff0219169083151502179055506000600b600085815260200190815260200160002060010160006101000a81548173ffffffffffffffffffffffffffffffffffffffff021916908373ffffffffffffffffffffffffffffffffffffffff16021790555060016008600082825461145691906134e2565b9250508190555061146830338561232a565b600a60009054906101000a900473ffffffffffffffffffffffffffffffffffffffff1673ffffffffffffffffffffffffffffffffffffffff166108fc6009549081150290604051600060405180830381858888f193505050501580156114d2573d6000803e3d6000fd5b508073ffffffffffffffffffffffffffffffffffffffff166108fc349081150290604051600060405180830381858888f19350505050158015611519573d6000803e3d6000fd5b50505050565b60095481565b6060611530826119b3565b5060006006600084815260200190815260200160002080546115519061344e565b80601f016020809104026020016040519081016040528092919081815260200182805461157d9061344e565b80156115ca5780601f1061159f576101008083540402835291602001916115ca565b820191906000526020600020905b8154815290600101906020018083116115ad57829003601f168201915b5050505050905060006115db612497565b905060008151036115f0578192505050611633565b60008251111561162557808260405160200161160d929190613722565b60405160208183030381529060405292505050611633565b61162e846124ae565b925050505b919050565b3373ffffffffffffffffffffffffffffffffffffffff16600b600084815260200190815260200160002060020160009054906101000a900473ffffffffffffffffffffffffffffffffffffffff1673ffffffffffffffffffffffffffffffffffffffff16146116dc576040517f08c379a00000000000000000000000000000000000000000000000000000000081526004016116d3906137b8565b60405180910390fd5b6009543414611720576040517f08c379a00000000000000000000000000000000000000000000000000000000081526004016117179061384a565b60405180910390fd5b6000600b600084815260200190815260200160002060040160006101000a81548160ff02191690831515021790555080600b60008481526020019081526020016000206003018190555033600b600084815260200190815260200160002060010160006101000a81548173ffffffffffffffffffffffffffffffffffffffff021916908373ffffffffffffffffffffffffffffffffffffffff16021790555030600b600084815260200190815260200160002060020160006101000a81548173ffffffffffffffffffffffffffffffffffffffff021916908373ffffffffffffffffffffffffffffffffffffffff16021790555060016008600082825461182791906134ae565b9250508190555061183933308461232a565b5050565b6000600560008473ffffffffffffffffffffffffffffffffffffffff1673ffffffffffffffffffffffffffffffffffffffff16815260200190815260200160002060008373ffffffffffffffffffffffffffffffffffffffff1673ffffffffffffffffffffffffffffffffffffffff16815260200190815260200160002060009054906101000a900460ff16905092915050565b60007f80ac58cd000000000000000000000000000000000000000000000000000000007bffffffffffffffffffffffffffffffffffffffffffffffffffffffff1916827bffffffffffffffffffffffffffffffffffffffffffffffffffffffff1916148061199c57507f5b5e139f000000000000000000000000000000000000000000000000000000007bffffffffffffffffffffffffffffffffffffffffffffffffffffffff1916827bffffffffffffffffffffffffffffffffffffffffffffffffffffffff1916145b806119ac57506119ab82612517565b5b9050919050565b6000806119bf83612581565b9050600073ffffffffffffffffffffffffffffffffffffffff168173ffffffffffffffffffffffffffffffffffffffff1603611a3257826040517f7e273289000000000000000000000000000000000000000000000000000000008152600401611a299190612fb9565b60405180910390fd5b80915050919050565b60006004600083815260200190815260200160002060009054906101000a900473ffffffffffffffffffffffffffffffffffffffff169050919050565b600033905090565b611a8d83838360016125be565b505050565b600080611a9e84612581565b9050600073ffffffffffffffffffffffffffffffffffffffff168373ffffffffffffffffffffffffffffffffffffffff1614611ae057611adf818486612783565b5b600073ffffffffffffffffffffffffffffffffffffffff168173ffffffffffffffffffffffffffffffffffffffff1614611b7157611b226000856000806125be565b6001600360008373ffffffffffffffffffffffffffffffffffffffff1673ffffffffffffffffffffffffffffffffffffffff168152602001908152602001600020600082825403925050819055505b600073ffffffffffffffffffffffffffffffffffffffff168573ffffffffffffffffffffffffffffffffffffffff1614611bf4576001600360008773ffffffffffffffffffffffffffffffffffffffff1673ffffffffffffffffffffffffffffffffffffffff168152602001908152602001600020600082825401925050819055505b846002600086815260200190815260200160002060006101000a81548173ffffffffffffffffffffffffffffffffffffffff021916908373ffffffffffffffffffffffffffffffffffffffff160217905550838573ffffffffffffffffffffffffffffffffffffffff168273ffffffffffffffffffffffffffffffffffffffff167fddf252ad1be2c89b69c2b068fc378daa952ba7f163c4a11628f55a4df523b3ef60405160405180910390a4809150509392505050565b600073ffffffffffffffffffffffffffffffffffffffff168273ffffffffffffffffffffffffffffffffffffffff1603611d1e5760006040517f64a0ae92000000000000000000000000000000000000000000000000000000008152600401611d159190612dab565b60405180910390fd5b6000611d2c83836000611a92565b9050600073ffffffffffffffffffffffffffffffffffffffff168173ffffffffffffffffffffffffffffffffffffffff1614611da05760006040517f73c6ac6e000000000000000000000000000000000000000000000000000000008152600401611d979190612dab565b60405180910390fd5b505050565b80600660008481526020019081526020016000209081611dc59190613a16565b507ff8e1a15aba9398e019f0b49df1a4fde98ee17ae345cb5f6b5e2c27f5033e8ce782604051611df59190612fb9565b60405180910390a15050565b60008111611e44576040517f08c379a0000000000000000000000000000000000000000000000000000000008152600401611e3b90613b34565b60405180910390fd5b6009543414611e88576040517f08c379a0000000000000000000000000000000000000000000000000000000008152600401611e7f90613bc6565b60405180910390fd5b6040518060a001604052808381526020013373ffffffffffffffffffffffffffffffffffffffff1681526020013073ffffffffffffffffffffffffffffffffffffffff16815260200182815260200160001515815250600b60008481526020019081526020016000206000820151816000015560208201518160010160006101000a81548173ffffffffffffffffffffffffffffffffffffffff021916908373ffffffffffffffffffffffffffffffffffffffff16021790555060408201518160020160006101000a81548173ffffffffffffffffffffffffffffffffffffffff021916908373ffffffffffffffffffffffffffffffffffffffff1602179055506060820151816003015560808201518160040160006101000a81548160ff021916908315150217905550905050611fc133308461232a565b817fb640004f1d14576d0c209e240cad0410e0d8c0c33a09375861fbadae2588a98d3330846000604051611ff89493929190613be6565b60405180910390a25050565b600073ffffffffffffffffffffffffffffffffffffffff168273ffffffffffffffffffffffffffffffffffffffff160361207557816040517f5b08ba1800000000000000000000000000000000000000000000000000000000815260040161206c9190612dab565b60405180910390fd5b80600560008573ffffffffffffffffffffffffffffffffffffffff1673ffffffffffffffffffffffffffffffffffffffff16815260200190815260200160002060008473ffffffffffffffffffffffffffffffffffffffff1673ffffffffffffffffffffffffffffffffffffffff16815260200190815260200160002060006101000a81548160ff0219169083151502179055508173ffffffffffffffffffffffffffffffffffffffff168373ffffffffffffffffffffffffffffffffffffffff167f17307eab39ab6107e8899845ad3d59bd9653f200f220920489ca2b5937696c31836040516121669190612c3a565b60405180910390a3505050565b60008373ffffffffffffffffffffffffffffffffffffffff163b1115612324578273ffffffffffffffffffffffffffffffffffffffff1663150b7a026121b7611a78565b8685856040518563ffffffff1660e01b81526004016121d99493929190613c80565b6020604051808303816000875af192505050801561221557506040513d601f19601f820116820180604052508101906122129190613ce1565b60015b612299573d8060008114612245576040519150601f19603f3d011682016040523d82523d6000602084013e61224a565b606091505b50600081510361229157836040517f64a0ae920000000000000000000000000000000000000000000000000000000081526004016122889190612dab565b60405180910390fd5b805181602001fd5b63150b7a0260e01b7bffffffffffffffffffffffffffffffffffffffffffffffffffffffff1916817bffffffffffffffffffffffffffffffffffffffffffffffffffffffff19161461232257836040517f64a0ae920000000000000000000000000000000000000000000000000000000081526004016123199190612dab565b60405180910390fd5b505b50505050565b600073ffffffffffffffffffffffffffffffffffffffff168273ffffffffffffffffffffffffffffffffffffffff160361239c5760006040517f64a0ae920000000000000000000000000000000000000000000000000000000081526004016123939190612dab565b60405180910390fd5b60006123aa83836000611a92565b9050600073ffffffffffffffffffffffffffffffffffffffff168173ffffffffffffffffffffffffffffffffffffffff160361241d57816040517f7e2732890000000000000000000000000000000000000000000000000000000081526004016124149190612fb9565b60405180910390fd5b8373ffffffffffffffffffffffffffffffffffffffff168173ffffffffffffffffffffffffffffffffffffffff1614612491578382826040517f64283d7b00000000000000000000000000000000000000000000000000000000815260040161248893929190613545565b60405180910390fd5b50505050565b606060405180602001604052806000815250905090565b60606124b9826119b3565b5060006124c4612497565b905060008151116124e4576040518060200160405280600081525061250f565b806124ee84612847565b6040516020016124ff929190613722565b6040516020818303038152906040525b915050919050565b60007f01ffc9a7000000000000000000000000000000000000000000000000000000007bffffffffffffffffffffffffffffffffffffffffffffffffffffffff1916827bffffffffffffffffffffffffffffffffffffffffffffffffffffffff1916149050919050565b60006002600083815260200190815260200160002060009054906101000a900473ffffffffffffffffffffffffffffffffffffffff169050919050565b80806125f75750600073ffffffffffffffffffffffffffffffffffffffff168273ffffffffffffffffffffffffffffffffffffffff1614155b1561272b576000612607846119b3565b9050600073ffffffffffffffffffffffffffffffffffffffff168373ffffffffffffffffffffffffffffffffffffffff161415801561267257508273ffffffffffffffffffffffffffffffffffffffff168173ffffffffffffffffffffffffffffffffffffffff1614155b80156126855750612683818461183d565b155b156126c757826040517fa9fbf51f0000000000000000000000000000000000000000000000000000000081526004016126be9190612dab565b60405180910390fd5b811561272957838573ffffffffffffffffffffffffffffffffffffffff168273ffffffffffffffffffffffffffffffffffffffff167f8c5be1e5ebec7d5bd14f71427d1e84f3dd0314c0f7b2291e5b200ac8c7c3b92560405160405180910390a45b505b836004600085815260200190815260200160002060006101000a81548173ffffffffffffffffffffffffffffffffffffffff021916908373ffffffffffffffffffffffffffffffffffffffff16021790555050505050565b61278e838383612915565b61284257600073ffffffffffffffffffffffffffffffffffffffff168373ffffffffffffffffffffffffffffffffffffffff160361280357806040517f7e2732890000000000000000000000000000000000000000000000000000000081526004016127fa9190612fb9565b60405180910390fd5b81816040517f177e802f000000000000000000000000000000000000000000000000000000008152600401612839929190613d0e565b60405180910390fd5b505050565b606060006001612856846129d6565b01905060008167ffffffffffffffff8111156128755761287461305e565b5b6040519080825280601f01601f1916602001820160405280156128a75781602001600182028036833780820191505090505b509050600082602001820190505b60011561290a578080600190039150507f3031323334353637383961626364656600000000000000000000000000000000600a86061a8153600a85816128fe576128fd613d37565b5b049450600085036128b5575b819350505050919050565b60008073ffffffffffffffffffffffffffffffffffffffff168373ffffffffffffffffffffffffffffffffffffffff16141580156129cd57508273ffffffffffffffffffffffffffffffffffffffff168473ffffffffffffffffffffffffffffffffffffffff16148061298e575061298d848461183d565b5b806129cc57508273ffffffffffffffffffffffffffffffffffffffff166129b483611a3b565b73ffffffffffffffffffffffffffffffffffffffff16145b5b90509392505050565b600080600090507a184f03e93ff9f4daa797ed6e38ed64bf6a1f0100000000000000008310612a34577a184f03e93ff9f4daa797ed6e38ed64bf6a1f0100000000000000008381612a2a57612a29613d37565b5b0492506040810190505b6d04ee2d6d415b85acef81000000008310612a71576d04ee2d6d415b85acef81000000008381612a6757612a66613d37565b5b0492506020810190505b662386f26fc100008310612aa057662386f26fc100008381612a9657612a95613d37565b5b0492506010810190505b6305f5e1008310612ac9576305f5e1008381612abf57612abe613d37565b5b0492506008810190505b6127108310612aee576127108381612ae457612ae3613d37565b5b0492506004810190505b60648310612b115760648381612b0757612b06613d37565b5b0492506002810190505b600a8310612b20576001810190505b80915050919050565b6040518060a0016040528060008152602001600073ffffffffffffffffffffffffffffffffffffffff168152602001600073ffffffffffffffffffffffffffffffffffffffff168152602001600081526020016000151581525090565b6000604051905090565b600080fd5b600080fd5b60007fffffffff0000000000000000000000000000000000000000000000000000000082169050919050565b612bcf81612b9a565b8114612bda57600080fd5b50565b600081359050612bec81612bc6565b92915050565b600060208284031215612c0857612c07612b90565b5b6000612c1684828501612bdd565b91505092915050565b60008115159050919050565b612c3481612c1f565b82525050565b6000602082019050612c4f6000830184612c2b565b92915050565b600081519050919050565b600082825260208201905092915050565b60005b83811015612c8f578082015181840152602081019050612c74565b60008484015250505050565b6000601f19601f8301169050919050565b6000612cb782612c55565b612cc18185612c60565b9350612cd1818560208601612c71565b612cda81612c9b565b840191505092915050565b60006020820190508181036000830152612cff8184612cac565b905092915050565b6000819050919050565b612d1a81612d07565b8114612d2557600080fd5b50565b600081359050612d3781612d11565b92915050565b600060208284031215612d5357612d52612b90565b5b6000612d6184828501612d28565b91505092915050565b600073ffffffffffffffffffffffffffffffffffffffff82169050919050565b6000612d9582612d6a565b9050919050565b612da581612d8a565b82525050565b6000602082019050612dc06000830184612d9c565b92915050565b612dcf81612d8a565b8114612dda57600080fd5b50565b600081359050612dec81612dc6565b92915050565b60008060408385031215612e0957612e08612b90565b5b6000612e1785828601612ddd565b9250506020612e2885828601612d28565b9150509250929050565b600081519050919050565b600082825260208201905092915050565b6000819050602082019050919050565b612e6781612d07565b82525050565b6000612e7882612d6a565b9050919050565b612e8881612e6d565b82525050565b612e9781612c1f565b82525050565b60a082016000820151612eb36000850182612e5e565b506020820151612ec66020850182612e7f565b506040820151612ed96040850182612e7f565b506060820151612eec6060850182612e5e565b506080820151612eff6080850182612e8e565b50505050565b6000612f118383612e9d565b60a08301905092915050565b6000602082019050919050565b6000612f3582612e32565b612f3f8185612e3d565b9350612f4a83612e4e565b8060005b83811015612f7b578151612f628882612f05565b9750612f6d83612f1d565b925050600181019050612f4e565b5085935050505092915050565b60006020820190508181036000830152612fa28184612f2a565b905092915050565b612fb381612d07565b82525050565b6000602082019050612fce6000830184612faa565b92915050565b600080600060608486031215612fed57612fec612b90565b5b6000612ffb86828701612ddd565b935050602061300c86828701612ddd565b925050604061301d86828701612d28565b9150509250925092565b60006020828403121561303d5761303c612b90565b5b600061304b84828501612ddd565b91505092915050565b600080fd5b600080fd5b7f4e487b7100000000000000000000000000000000000000000000000000000000600052604160045260246000fd5b61309682612c9b565b810181811067ffffffffffffffff821117156130b5576130b461305e565b5b80604052505050565b60006130c8612b86565b90506130d4828261308d565b919050565b600067ffffffffffffffff8211156130f4576130f361305e565b5b6130fd82612c9b565b9050602081019050919050565b82818337600083830152505050565b600061312c613127846130d9565b6130be565b90508281526020810184848401111561314857613147613059565b5b61315384828561310a565b509392505050565b600082601f8301126131705761316f613054565b5b8135613180848260208601613119565b91505092915050565b600080604083850312156131a05761319f612b90565b5b600083013567ffffffffffffffff8111156131be576131bd612b95565b5b6131ca8582860161315b565b92505060206131db85828601612d28565b9150509250929050565b6131ee81612e6d565b82525050565b600060208201905061320960008301846131e5565b92915050565b61321881612c1f565b811461322357600080fd5b50565b6000813590506132358161320f565b92915050565b6000806040838503121561325257613251612b90565b5b600061326085828601612ddd565b925050602061327185828601613226565b9150509250929050565b600067ffffffffffffffff8211156132965761329561305e565b5b61329f82612c9b565b9050602081019050919050565b60006132bf6132ba8461327b565b6130be565b9050828152602081018484840111156132db576132da613059565b5b6132e684828561310a565b509392505050565b600082601f83011261330357613302613054565b5b81356133138482602086016132ac565b91505092915050565b6000806000806080858703121561333657613335612b90565b5b600061334487828801612ddd565b945050602061335587828801612ddd565b935050604061336687828801612d28565b925050606085013567ffffffffffffffff81111561338757613386612b95565b5b613393878288016132ee565b91505092959194509250565b600080604083850312156133b6576133b5612b90565b5b60006133c485828601612d28565b92505060206133d585828601612d28565b9150509250929050565b600080604083850312156133f6576133f5612b90565b5b600061340485828601612ddd565b925050602061341585828601612ddd565b9150509250929050565b7f4e487b7100000000000000000000000000000000000000000000000000000000600052602260045260246000fd5b6000600282049050600182168061346657607f821691505b6020821081036134795761347861341f565b5b50919050565b7f4e487b7100000000000000000000000000000000000000000000000000000000600052601160045260246000fd5b60006134b982612d07565b91506134c483612d07565b92508282039050818111156134dc576134db61347f565b5b92915050565b60006134ed82612d07565b91506134f883612d07565b92508282019050808211156135105761350f61347f565b5b92915050565b7f4e487b7100000000000000000000000000000000000000000000000000000000600052603260045260246000fd5b600060608201905061355a6000830186612d9c565b6135676020830185612faa565b6135746040830184612d9c565b949350505050565b7f496e73756666696369656e74206c697374696e67207072696365000000000000600082015250565b60006135b2601a83612c60565b91506135bd8261357c565b602082019050919050565b600060208201905081810360008301526135e1816135a5565b9050919050565b7f4f6e6c7920746865206f776e65722063616e20706572666f726d20746869732060008201527f616374696f6e0000000000000000000000000000000000000000000000000000602082015250565b6000613644602683612c60565b915061364f826135e8565b604082019050919050565b6000602082019050818103600083015261367381613637565b9050919050565b7f506c65617365207375626d6974207468652061736b6564207072696365000000600082015250565b60006136b0601d83612c60565b91506136bb8261367a565b602082019050919050565b600060208201905081810360008301526136df816136a3565b9050919050565b600081905092915050565b60006136fc82612c55565b61370681856136e6565b9350613716818560208601612c71565b80840191505092915050565b600061372e82856136f1565b915061373a82846136f1565b91508190509392505050565b7f4f6e6c7920746865206f776e65722063616e20706572666f726d20746869732060008201527f6f7065726174696f6e0000000000000000000000000000000000000000000000602082015250565b60006137a2602983612c60565b91506137ad82613746565b604082019050919050565b600060208201905081810360008301526137d181613795565b9050919050565b7f5072696365206d75737420626520657175616c20746f20746865206c6973746960008201527f6e67207072696365000000000000000000000000000000000000000000000000602082015250565b6000613834602883612c60565b915061383f826137d8565b604082019050919050565b6000602082019050818103600083015261386381613827565b9050919050565b60008190508160005260206000209050919050565b60006020601f8301049050919050565b600082821b905092915050565b6000600883026138cc7fffffffffffffffffffffffffffffffffffffffffffffffffffffffffffffffff8261388f565b6138d6868361388f565b95508019841693508086168417925050509392505050565b6000819050919050565b600061391361390e61390984612d07565b6138ee565b612d07565b9050919050565b6000819050919050565b61392d836138f8565b6139416139398261391a565b84845461389c565b825550505050565b600090565b613956613949565b613961818484613924565b505050565b5b818110156139855761397a60008261394e565b600181019050613967565b5050565b601f8211156139ca5761399b8161386a565b6139a48461387f565b810160208510156139b3578190505b6139c76139bf8561387f565b830182613966565b50505b505050565b600082821c905092915050565b60006139ed600019846008026139cf565b1980831691505092915050565b6000613a0683836139dc565b9150826002028217905092915050565b613a1f82612c55565b67ffffffffffffffff811115613a3857613a3761305e565b5b613a42825461344e565b613a4d828285613989565b600060209050601f831160018114613a805760008415613a6e578287015190505b613a7885826139fa565b865550613ae0565b601f198416613a8e8661386a565b60005b82811015613ab657848901518255600182019150602085019450602081019050613a91565b86831015613ad35784890151613acf601f8916826139dc565b8355505b6001600288020188555050505b505050505050565b7f5072696365206d757374206265206174206c6561737420310000000000000000600082015250565b6000613b1e601883612c60565b9150613b2982613ae8565b602082019050919050565b60006020820190508181036000830152613b4d81613b11565b9050919050565b7f5072696365206d75737420626520657175616c20746f206c697374696e67207060008201527f7269636500000000000000000000000000000000000000000000000000000000602082015250565b6000613bb0602483612c60565b9150613bbb82613b54565b604082019050919050565b60006020820190508181036000830152613bdf81613ba3565b9050919050565b6000608082019050613bfb6000830187612d9c565b613c086020830186612d9c565b613c156040830185612faa565b613c226060830184612c2b565b95945050505050565b600081519050919050565b600082825260208201905092915050565b6000613c5282613c2b565b613c5c8185613c36565b9350613c6c818560208601612c71565b613c7581612c9b565b840191505092915050565b6000608082019050613c956000830187612d9c565b613ca26020830186612d9c565b613caf6040830185612faa565b8181036060830152613cc18184613c47565b905095945050505050565b600081519050613cdb81612bc6565b92915050565b600060208284031215613cf757613cf6612b90565b5b6000613d0584828501613ccc565b91505092915050565b6000604082019050613d236000830185612d9c565b613d306020830184612faa565b9392505050565b7f4e487b7100000000000000000000000000000000000000000000000000000000600052601260045260246000fdfea2646970667358221220ff22d1b0f0df25ccc89d2b1b6cf70870b0ba6492b22763e8f4ccba992e88de9f64736f6c634300081b0033",
  "linkReferences": {},
  "deployedLinkReferences": {}
}